{
	"github/dGFsYWw/Foundry/FundMe.sol": {
		"FundMe": {
			"abi": [
				{
					"inputs": [],
					"stateMutability": "nonpayable",
					"type": "constructor"
				},
				{
					"inputs": [
						{
							"internalType": "address",
							"name": "funder",
							"type": "address"
						}
					],
					"name": "addressToAmountFunded",
					"outputs": [
						{
							"internalType": "uint256",
							"name": "amountFunded",
							"type": "uint256"
						}
					],
					"stateMutability": "view",
					"type": "function"
				},
				{
					"inputs": [],
					"name": "fund",
					"outputs": [],
					"stateMutability": "payable",
					"type": "function"
				},
				{
					"inputs": [
						{
							"internalType": "uint256",
							"name": "",
							"type": "uint256"
						}
					],
					"name": "funders",
					"outputs": [
						{
							"internalType": "address",
							"name": "",
							"type": "address"
						}
					],
					"stateMutability": "view",
					"type": "function"
				},
				{
					"inputs": [],
					"name": "minUSD",
					"outputs": [
						{
							"internalType": "uint256",
							"name": "",
							"type": "uint256"
						}
					],
					"stateMutability": "view",
					"type": "function"
				},
				{
					"inputs": [],
					"name": "owner",
					"outputs": [
						{
							"internalType": "address",
							"name": "",
							"type": "address"
						}
					],
					"stateMutability": "view",
					"type": "function"
				},
				{
					"inputs": [],
					"name": "withdraw",
					"outputs": [],
					"stateMutability": "nonpayable",
					"type": "function"
				}
			],
			"devdoc": {
				"kind": "dev",
				"methods": {},
				"version": 1
			},
			"evm": {
				"assembly": "    /* \"github/dGFsYWw/Foundry/FundMe.sol\":276:4615  contract FundMe {... */\n  mstore(0x40, 0x80)\n    /* \"github/dGFsYWw/Foundry/FundMe.sol\":377:381  5e18 */\n  0x4563918244f40000\n    /* \"github/dGFsYWw/Foundry/FundMe.sol\":353:381  uint256 public minUSD = 5e18 */\n  0x00\n  sstore\n    /* \"github/dGFsYWw/Foundry/FundMe.sol\":875:1013  constructor() {... */\n  callvalue\n  dup1\n  iszero\n  tag_1\n  jumpi\n  0x00\n  dup1\n  revert\ntag_1:\n  pop\n    /* \"github/dGFsYWw/Foundry/FundMe.sol\":908:918  msg.sender */\n  caller\n    /* \"github/dGFsYWw/Foundry/FundMe.sol\":900:905  owner */\n  0x03\n  0x00\n    /* \"github/dGFsYWw/Foundry/FundMe.sol\":900:918  owner = msg.sender */\n  0x0100\n  exp\n  dup2\n  sload\n  dup2\n  0xffffffffffffffffffffffffffffffffffffffff\n  mul\n  not\n  and\n  swap1\n  dup4\n  0xffffffffffffffffffffffffffffffffffffffff\n  and\n  mul\n  or\n  swap1\n  sstore\n  pop\n    /* \"github/dGFsYWw/Foundry/FundMe.sol\":276:4615  contract FundMe {... */\n  dataSize(sub_0)\n  dup1\n  dataOffset(sub_0)\n  0x00\n  codecopy\n  0x00\n  return\nstop\n\nsub_0: assembly {\n        /* \"github/dGFsYWw/Foundry/FundMe.sol\":276:4615  contract FundMe {... */\n      mstore(0x40, 0x80)\n      jumpi(tag_1, lt(calldatasize, 0x04))\n      shr(0xe0, calldataload(0x00))\n      dup1\n      0x3ccfd60b\n      eq\n      tag_2\n      jumpi\n      dup1\n      0x3e47d6f3\n      eq\n      tag_3\n      jumpi\n      dup1\n      0x8da5cb5b\n      eq\n      tag_4\n      jumpi\n      dup1\n      0xb60d4288\n      eq\n      tag_5\n      jumpi\n      dup1\n      0xdc0d3dff\n      eq\n      tag_6\n      jumpi\n      dup1\n      0xdc992aa0\n      eq\n      tag_7\n      jumpi\n    tag_1:\n      0x00\n      dup1\n      revert\n        /* \"github/dGFsYWw/Foundry/FundMe.sol\":2773:4481  function withdraw() public onlyOwner { // onlyOwner modifier gets executed first (i.e. only contract owner gets to run this function... */\n    tag_2:\n      callvalue\n      dup1\n      iszero\n      tag_8\n      jumpi\n      0x00\n      dup1\n      revert\n    tag_8:\n      pop\n      tag_9\n      tag_10\n      jump\t// in\n    tag_9:\n      stop\n        /* \"github/dGFsYWw/Foundry/FundMe.sol\":731:808  mapping (address funder => uint256 amountFunded) public addressToAmountFunded */\n    tag_3:\n      callvalue\n      dup1\n      iszero\n      tag_11\n      jumpi\n      0x00\n      dup1\n      revert\n    tag_11:\n      pop\n      tag_12\n      0x04\n      dup1\n      calldatasize\n      sub\n      dup2\n      add\n      swap1\n      tag_13\n      swap2\n      swap1\n      tag_14\n      jump\t// in\n    tag_13:\n      tag_15\n      jump\t// in\n    tag_12:\n      mload(0x40)\n      tag_16\n      swap2\n      swap1\n      tag_17\n      jump\t// in\n    tag_16:\n      mload(0x40)\n      dup1\n      swap2\n      sub\n      swap1\n      return\n        /* \"github/dGFsYWw/Foundry/FundMe.sol\":848:868  address public owner */\n    tag_4:\n      callvalue\n      dup1\n      iszero\n      tag_18\n      jumpi\n      0x00\n      dup1\n      revert\n    tag_18:\n      pop\n      tag_19\n      tag_20\n      jump\t// in\n    tag_19:\n      mload(0x40)\n      tag_21\n      swap2\n      swap1\n      tag_22\n      jump\t// in\n    tag_21:\n      mload(0x40)\n      dup1\n      swap2\n      sub\n      swap1\n      return\n        /* \"github/dGFsYWw/Foundry/FundMe.sol\":2080:2765  function fund() public payable {... */\n    tag_5:\n      tag_23\n      tag_24\n      jump\t// in\n    tag_23:\n      stop\n        /* \"github/dGFsYWw/Foundry/FundMe.sol\":700:724  address[] public funders */\n    tag_6:\n      callvalue\n      dup1\n      iszero\n      tag_25\n      jumpi\n      0x00\n      dup1\n      revert\n    tag_25:\n      pop\n      tag_26\n      0x04\n      dup1\n      calldatasize\n      sub\n      dup2\n      add\n      swap1\n      tag_27\n      swap2\n      swap1\n      tag_28\n      jump\t// in\n    tag_27:\n      tag_29\n      jump\t// in\n    tag_26:\n      mload(0x40)\n      tag_30\n      swap2\n      swap1\n      tag_22\n      jump\t// in\n    tag_30:\n      mload(0x40)\n      dup1\n      swap2\n      sub\n      swap1\n      return\n        /* \"github/dGFsYWw/Foundry/FundMe.sol\":353:381  uint256 public minUSD = 5e18 */\n    tag_7:\n      callvalue\n      dup1\n      iszero\n      tag_31\n      jumpi\n      0x00\n      dup1\n      revert\n    tag_31:\n      pop\n      tag_32\n      tag_33\n      jump\t// in\n    tag_32:\n      mload(0x40)\n      tag_34\n      swap2\n      swap1\n      tag_17\n      jump\t// in\n    tag_34:\n      mload(0x40)\n      dup1\n      swap2\n      sub\n      swap1\n      return\n        /* \"github/dGFsYWw/Foundry/FundMe.sol\":2773:4481  function withdraw() public onlyOwner { // onlyOwner modifier gets executed first (i.e. only contract owner gets to run this function... */\n    tag_10:\n        /* \"github/dGFsYWw/Foundry/FundMe.sol\":4543:4548  owner */\n      0x03\n      0x00\n      swap1\n      sload\n      swap1\n      0x0100\n      exp\n      swap1\n      div\n      0xffffffffffffffffffffffffffffffffffffffff\n      and\n        /* \"github/dGFsYWw/Foundry/FundMe.sol\":4529:4548  msg.sender == owner */\n      0xffffffffffffffffffffffffffffffffffffffff\n      and\n        /* \"github/dGFsYWw/Foundry/FundMe.sol\":4529:4539  msg.sender */\n      caller\n        /* \"github/dGFsYWw/Foundry/FundMe.sol\":4529:4548  msg.sender == owner */\n      0xffffffffffffffffffffffffffffffffffffffff\n      and\n      eq\n        /* \"github/dGFsYWw/Foundry/FundMe.sol\":4521:4590  require(msg.sender == owner, \"Only contract owner can w/draw, DUDE!\") */\n      tag_36\n      jumpi\n      mload(0x40)\n      0x08c379a000000000000000000000000000000000000000000000000000000000\n      dup2\n      mstore\n      0x04\n      add\n      tag_37\n      swap1\n      tag_38\n      jump\t// in\n    tag_37:\n      mload(0x40)\n      dup1\n      swap2\n      sub\n      swap1\n      revert\n    tag_36:\n        /* \"github/dGFsYWw/Foundry/FundMe.sol\":3435:3454  uint256 funderIndex */\n      0x00\n        /* \"github/dGFsYWw/Foundry/FundMe.sol\":3430:3823  for (uint256 funderIndex = 0; funderIndex < funders.length; funderIndex++){... */\n    tag_40:\n        /* \"github/dGFsYWw/Foundry/FundMe.sol\":3474:3481  funders */\n      0x01\n        /* \"github/dGFsYWw/Foundry/FundMe.sol\":3474:3488  funders.length */\n      dup1\n      sload\n      swap1\n      pop\n        /* \"github/dGFsYWw/Foundry/FundMe.sol\":3460:3471  funderIndex */\n      dup2\n        /* \"github/dGFsYWw/Foundry/FundMe.sol\":3460:3488  funderIndex < funders.length */\n      lt\n        /* \"github/dGFsYWw/Foundry/FundMe.sol\":3430:3823  for (uint256 funderIndex = 0; funderIndex < funders.length; funderIndex++){... */\n      iszero\n      tag_41\n      jumpi\n        /* \"github/dGFsYWw/Foundry/FundMe.sol\":3625:3639  address funder */\n      0x00\n        /* \"github/dGFsYWw/Foundry/FundMe.sol\":3642:3649  funders */\n      0x01\n        /* \"github/dGFsYWw/Foundry/FundMe.sol\":3650:3661  funderIndex */\n      dup3\n        /* \"github/dGFsYWw/Foundry/FundMe.sol\":3642:3662  funders[funderIndex] */\n      dup2\n      sload\n      dup2\n      lt\n      tag_43\n      jumpi\n      tag_44\n      tag_45\n      jump\t// in\n    tag_44:\n    tag_43:\n      swap1\n      0x00\n      mstore\n      keccak256(0x00, 0x20)\n      add\n      0x00\n      swap1\n      sload\n      swap1\n      0x0100\n      exp\n      swap1\n      div\n      0xffffffffffffffffffffffffffffffffffffffff\n      and\n        /* \"github/dGFsYWw/Foundry/FundMe.sol\":3625:3662  address funder = funders[funderIndex] */\n      swap1\n      pop\n        /* \"github/dGFsYWw/Foundry/FundMe.sol\":3744:3745  0 */\n      0x00\n        /* \"github/dGFsYWw/Foundry/FundMe.sol\":3712:3733  addressToAmountFunded */\n      0x02\n        /* \"github/dGFsYWw/Foundry/FundMe.sol\":3712:3741  addressToAmountFunded[funder] */\n      0x00\n        /* \"github/dGFsYWw/Foundry/FundMe.sol\":3734:3740  funder */\n      dup4\n        /* \"github/dGFsYWw/Foundry/FundMe.sol\":3712:3741  addressToAmountFunded[funder] */\n      0xffffffffffffffffffffffffffffffffffffffff\n      and\n      0xffffffffffffffffffffffffffffffffffffffff\n      and\n      dup2\n      mstore\n      0x20\n      add\n      swap1\n      dup2\n      mstore\n      0x20\n      add\n      0x00\n      keccak256\n        /* \"github/dGFsYWw/Foundry/FundMe.sol\":3712:3745  addressToAmountFunded[funder] = 0 */\n      dup2\n      swap1\n      sstore\n      pop\n        /* \"github/dGFsYWw/Foundry/FundMe.sol\":3504:3823  {... */\n      pop\n        /* \"github/dGFsYWw/Foundry/FundMe.sol\":3490:3503  funderIndex++ */\n      dup1\n      dup1\n      0x01\n      add\n      swap2\n      pop\n      pop\n        /* \"github/dGFsYWw/Foundry/FundMe.sol\":3430:3823  for (uint256 funderIndex = 0; funderIndex < funders.length; funderIndex++){... */\n      jump(tag_40)\n    tag_41:\n      pop\n        /* \"github/dGFsYWw/Foundry/FundMe.sol\":3878:3879  0 */\n      0x00\n        /* \"github/dGFsYWw/Foundry/FundMe.sol\":3864:3880  new address[](0) */\n      0xffffffffffffffff\n      dup2\n      gt\n      iszero\n      tag_47\n      jumpi\n      tag_48\n      tag_49\n      jump\t// in\n    tag_48:\n    tag_47:\n      mload(0x40)\n      swap1\n      dup1\n      dup3\n      mstore\n      dup1\n      0x20\n      mul\n      0x20\n      add\n      dup3\n      add\n      0x40\n      mstore\n      dup1\n      iszero\n      tag_50\n      jumpi\n      dup2\n      0x20\n      add\n      0x20\n      dup3\n      mul\n      dup1\n      calldatasize\n      dup4\n      calldatacopy\n      dup1\n      dup3\n      add\n      swap2\n      pop\n      pop\n      swap1\n      pop\n    tag_50:\n      pop\n        /* \"github/dGFsYWw/Foundry/FundMe.sol\":3854:3861  funders */\n      0x01\n        /* \"github/dGFsYWw/Foundry/FundMe.sol\":3854:3880  funders = new address[](0) */\n      swap1\n      dup1\n      mload\n      swap1\n      0x20\n      add\n      swap1\n      tag_51\n      swap3\n      swap2\n      swap1\n      tag_52\n      jump\t// in\n    tag_51:\n      pop\n        /* \"github/dGFsYWw/Foundry/FundMe.sol\":4343:4359  bool callSuccess */\n      0x00\n        /* \"github/dGFsYWw/Foundry/FundMe.sol\":4373:4383  msg.sender */\n      caller\n        /* \"github/dGFsYWw/Foundry/FundMe.sol\":4365:4389  payable(msg.sender).call */\n      0xffffffffffffffffffffffffffffffffffffffff\n      and\n        /* \"github/dGFsYWw/Foundry/FundMe.sol\":4397:4418  address(this).balance */\n      selfbalance\n        /* \"github/dGFsYWw/Foundry/FundMe.sol\":4365:4423  payable(msg.sender).call{value: address(this).balance}(\"\") */\n      mload(0x40)\n      tag_53\n      swap1\n      tag_54\n      jump\t// in\n    tag_53:\n      0x00\n      mload(0x40)\n      dup1\n      dup4\n      sub\n      dup2\n      dup6\n      dup8\n      gas\n      call\n      swap3\n      pop\n      pop\n      pop\n      returndatasize\n      dup1\n      0x00\n      dup2\n      eq\n      tag_57\n      jumpi\n      mload(0x40)\n      swap2\n      pop\n      and(add(returndatasize, 0x3f), not(0x1f))\n      dup3\n      add\n      0x40\n      mstore\n      returndatasize\n      dup3\n      mstore\n      returndatasize\n      0x00\n      0x20\n      dup5\n      add\n      returndatacopy\n      jump(tag_56)\n    tag_57:\n      0x60\n      swap2\n      pop\n    tag_56:\n      pop\n        /* \"github/dGFsYWw/Foundry/FundMe.sol\":4342:4423  (bool callSuccess, ) = payable(msg.sender).call{value: address(this).balance}(\"\") */\n      pop\n      swap1\n      pop\n        /* \"github/dGFsYWw/Foundry/FundMe.sol\":4446:4457  callSuccess */\n      dup1\n        /* \"github/dGFsYWw/Foundry/FundMe.sol\":4438:4473  require(callSuccess, \"Call failed\") */\n      tag_58\n      jumpi\n      mload(0x40)\n      0x08c379a000000000000000000000000000000000000000000000000000000000\n      dup2\n      mstore\n      0x04\n      add\n      tag_59\n      swap1\n      tag_60\n      jump\t// in\n    tag_59:\n      mload(0x40)\n      dup1\n      swap2\n      sub\n      swap1\n      revert\n    tag_58:\n        /* \"github/dGFsYWw/Foundry/FundMe.sol\":2810:4481  { // onlyOwner modifier gets executed first (i.e. only contract owner gets to run this function... */\n      pop\n        /* \"github/dGFsYWw/Foundry/FundMe.sol\":2773:4481  function withdraw() public onlyOwner { // onlyOwner modifier gets executed first (i.e. only contract owner gets to run this function... */\n      jump\t// out\n        /* \"github/dGFsYWw/Foundry/FundMe.sol\":731:808  mapping (address funder => uint256 amountFunded) public addressToAmountFunded */\n    tag_15:\n      mstore(0x20, 0x02)\n      dup1\n      0x00\n      mstore\n      keccak256(0x00, 0x40)\n      0x00\n      swap2\n      pop\n      swap1\n      pop\n      sload\n      dup2\n      jump\t// out\n        /* \"github/dGFsYWw/Foundry/FundMe.sol\":848:868  address public owner */\n    tag_20:\n      0x03\n      0x00\n      swap1\n      sload\n      swap1\n      0x0100\n      exp\n      swap1\n      div\n      0xffffffffffffffffffffffffffffffffffffffff\n      and\n      dup2\n      jump\t// out\n        /* \"github/dGFsYWw/Foundry/FundMe.sol\":2080:2765  function fund() public payable {... */\n    tag_24:\n        /* \"github/dGFsYWw/Foundry/FundMe.sol\":2401:2407  minUSD */\n      sload(0x00)\n        /* \"github/dGFsYWw/Foundry/FundMe.sol\":2368:2397  msg.value.getConversionRate() */\n      tag_62\n        /* \"github/dGFsYWw/Foundry/FundMe.sol\":2368:2377  msg.value */\n      callvalue\n        /* \"github/dGFsYWw/Foundry/FundMe.sol\":2368:2395  msg.value.getConversionRate */\n      tag_63\n        /* \"github/dGFsYWw/Foundry/FundMe.sol\":2368:2397  msg.value.getConversionRate() */\n      jump\t// in\n    tag_62:\n        /* \"github/dGFsYWw/Foundry/FundMe.sol\":2368:2407  msg.value.getConversionRate() >= minUSD */\n      lt\n      iszero\n        /* \"github/dGFsYWw/Foundry/FundMe.sol\":2360:2432  require(msg.value.getConversionRate() >= minUSD, \"Not enough ETH baby!\") */\n      tag_64\n      jumpi\n      mload(0x40)\n      0x08c379a000000000000000000000000000000000000000000000000000000000\n      dup2\n      mstore\n      0x04\n      add\n      tag_65\n      swap1\n      tag_66\n      jump\t// in\n    tag_65:\n      mload(0x40)\n      dup1\n      swap2\n      sub\n      swap1\n      revert\n    tag_64:\n        /* \"github/dGFsYWw/Foundry/FundMe.sol\":2443:2450  funders */\n      0x01\n        /* \"github/dGFsYWw/Foundry/FundMe.sol\":2456:2466  msg.sender */\n      caller\n        /* \"github/dGFsYWw/Foundry/FundMe.sol\":2443:2467  funders.push(msg.sender) */\n      swap1\n      dup1\n      0x01\n      dup2\n      sload\n      add\n      dup1\n      dup3\n      sstore\n      dup1\n      swap2\n      pop\n      pop\n      0x01\n      swap1\n      sub\n      swap1\n      0x00\n      mstore\n      keccak256(0x00, 0x20)\n      add\n      0x00\n      swap1\n      swap2\n      swap1\n      swap2\n      swap1\n      swap2\n      0x0100\n      exp\n      dup2\n      sload\n      dup2\n      0xffffffffffffffffffffffffffffffffffffffff\n      mul\n      not\n      and\n      swap1\n      dup4\n      0xffffffffffffffffffffffffffffffffffffffff\n      and\n      mul\n      or\n      swap1\n      sstore\n      pop\n        /* \"github/dGFsYWw/Foundry/FundMe.sol\":2633:2642  msg.value */\n      callvalue\n        /* \"github/dGFsYWw/Foundry/FundMe.sol\":2596:2617  addressToAmountFunded */\n      0x02\n        /* \"github/dGFsYWw/Foundry/FundMe.sol\":2596:2629  addressToAmountFunded[msg.sender] */\n      0x00\n        /* \"github/dGFsYWw/Foundry/FundMe.sol\":2618:2628  msg.sender */\n      caller\n        /* \"github/dGFsYWw/Foundry/FundMe.sol\":2596:2629  addressToAmountFunded[msg.sender] */\n      0xffffffffffffffffffffffffffffffffffffffff\n      and\n      0xffffffffffffffffffffffffffffffffffffffff\n      and\n      dup2\n      mstore\n      0x20\n      add\n      swap1\n      dup2\n      mstore\n      0x20\n      add\n      0x00\n      keccak256\n      0x00\n        /* \"github/dGFsYWw/Foundry/FundMe.sol\":2596:2642  addressToAmountFunded[msg.sender] += msg.value */\n      dup3\n      dup3\n      sload\n      tag_68\n      swap2\n      swap1\n      tag_69\n      jump\t// in\n    tag_68:\n      swap3\n      pop\n      pop\n      dup2\n      swap1\n      sstore\n      pop\n        /* \"github/dGFsYWw/Foundry/FundMe.sol\":2080:2765  function fund() public payable {... */\n      jump\t// out\n        /* \"github/dGFsYWw/Foundry/FundMe.sol\":700:724  address[] public funders */\n    tag_29:\n      0x01\n      dup2\n      dup2\n      sload\n      dup2\n      lt\n      tag_70\n      jumpi\n      0x00\n      dup1\n      revert\n    tag_70:\n      swap1\n      0x00\n      mstore\n      keccak256(0x00, 0x20)\n      add\n      0x00\n      swap2\n      pop\n      sload\n      swap1\n      0x0100\n      exp\n      swap1\n      div\n      0xffffffffffffffffffffffffffffffffffffffff\n      and\n      dup2\n      jump\t// out\n        /* \"github/dGFsYWw/Foundry/FundMe.sol\":353:381  uint256 public minUSD = 5e18 */\n    tag_33:\n      sload(0x00)\n      dup2\n      jump\t// out\n        /* \"github/dGFsYWw/Foundry/PriceConverter.sol\":819:1302  function getConversionRate(uint256 ethAmount) internal view returns (uint256) {... */\n    tag_63:\n        /* \"github/dGFsYWw/Foundry/PriceConverter.sol\":888:895  uint256 */\n      0x00\n        /* \"github/dGFsYWw/Foundry/PriceConverter.sol\":1122:1138  uint256 ethPrice */\n      dup1\n        /* \"github/dGFsYWw/Foundry/PriceConverter.sol\":1141:1160  getChainlinkPrice() */\n      tag_73\n        /* \"github/dGFsYWw/Foundry/PriceConverter.sol\":1141:1158  getChainlinkPrice */\n      tag_74\n        /* \"github/dGFsYWw/Foundry/PriceConverter.sol\":1141:1160  getChainlinkPrice() */\n      jump\t// in\n    tag_73:\n        /* \"github/dGFsYWw/Foundry/PriceConverter.sol\":1122:1160  uint256 ethPrice = getChainlinkPrice() */\n      swap1\n      pop\n        /* \"github/dGFsYWw/Foundry/PriceConverter.sol\":1210:1232  uint256 ethAmountInUSD */\n      0x00\n        /* \"github/dGFsYWw/Foundry/PriceConverter.sol\":1258:1262  1e18 */\n      0x0de0b6b3a7640000\n        /* \"github/dGFsYWw/Foundry/PriceConverter.sol\":1247:1256  ethAmount */\n      dup5\n        /* \"github/dGFsYWw/Foundry/PriceConverter.sol\":1236:1244  ethPrice */\n      dup4\n        /* \"github/dGFsYWw/Foundry/PriceConverter.sol\":1236:1256  ethPrice * ethAmount */\n      tag_75\n      swap2\n      swap1\n      tag_76\n      jump\t// in\n    tag_75:\n        /* \"github/dGFsYWw/Foundry/PriceConverter.sol\":1235:1262  (ethPrice * ethAmount)/1e18 */\n      tag_77\n      swap2\n      swap1\n      tag_78\n      jump\t// in\n    tag_77:\n        /* \"github/dGFsYWw/Foundry/PriceConverter.sol\":1210:1262  uint256 ethAmountInUSD = (ethPrice * ethAmount)/1e18 */\n      swap1\n      pop\n        /* \"github/dGFsYWw/Foundry/PriceConverter.sol\":1280:1294  ethAmountInUSD */\n      dup1\n        /* \"github/dGFsYWw/Foundry/PriceConverter.sol\":1273:1294  return ethAmountInUSD */\n      swap3\n      pop\n      pop\n      pop\n        /* \"github/dGFsYWw/Foundry/PriceConverter.sol\":819:1302  function getConversionRate(uint256 ethAmount) internal view returns (uint256) {... */\n      swap2\n      swap1\n      pop\n      jump\t// out\n        /* \"github/dGFsYWw/Foundry/PriceConverter.sol\":361:811  function getChainlinkPrice() internal view returns (uint256) {... */\n    tag_74:\n        /* \"github/dGFsYWw/Foundry/PriceConverter.sol\":413:420  uint256 */\n      0x00\n        /* \"github/dGFsYWw/Foundry/PriceConverter.sol\":540:571  AggregatorV3Interface priceFeed */\n      dup1\n        /* \"github/dGFsYWw/Foundry/PriceConverter.sol\":596:638  0x694AA1769357215DE4FAC081bf1f309aDC325306 */\n      0x694aa1769357215de4fac081bf1f309adc325306\n        /* \"github/dGFsYWw/Foundry/PriceConverter.sol\":540:639  AggregatorV3Interface priceFeed = AggregatorV3Interface(0x694AA1769357215DE4FAC081bf1f309aDC325306) */\n      swap1\n      pop\n        /* \"github/dGFsYWw/Foundry/PriceConverter.sol\":653:666  int256 answer */\n      0x00\n        /* \"github/dGFsYWw/Foundry/PriceConverter.sol\":676:685  priceFeed */\n      dup2\n        /* \"github/dGFsYWw/Foundry/PriceConverter.sol\":676:701  priceFeed.latestRoundData */\n      0xffffffffffffffffffffffffffffffffffffffff\n      and\n      0xfeaf968c\n        /* \"github/dGFsYWw/Foundry/PriceConverter.sol\":676:703  priceFeed.latestRoundData() */\n      mload(0x40)\n      dup2\n      0xffffffff\n      and\n      0xe0\n      shl\n      dup2\n      mstore\n      0x04\n      add\n      0xa0\n      mload(0x40)\n      dup1\n      dup4\n      sub\n      dup2\n      dup7\n      gas\n      staticcall\n      iszero\n      dup1\n      iszero\n      tag_81\n      jumpi\n      returndatasize\n      0x00\n      dup1\n      returndatacopy\n      revert(0x00, returndatasize)\n    tag_81:\n      pop\n      pop\n      pop\n      pop\n      mload(0x40)\n      returndatasize\n      not(0x1f)\n      0x1f\n      dup3\n      add\n      and\n      dup3\n      add\n      dup1\n      0x40\n      mstore\n      pop\n      dup2\n      add\n      swap1\n      tag_82\n      swap2\n      swap1\n      tag_83\n      jump\t// in\n    tag_82:\n        /* \"github/dGFsYWw/Foundry/PriceConverter.sol\":650:703  (, int256 answer, , , ) = priceFeed.latestRoundData() */\n      pop\n      pop\n      pop\n      swap2\n      pop\n      pop\n        /* \"github/dGFsYWw/Foundry/PriceConverter.sol\":737:741  1e10 */\n      0x02540be400\n        /* \"github/dGFsYWw/Foundry/PriceConverter.sol\":729:735  answer */\n      dup2\n        /* \"github/dGFsYWw/Foundry/PriceConverter.sol\":729:741  answer* 1e10 */\n      tag_84\n      swap2\n      swap1\n      tag_85\n      jump\t// in\n    tag_84:\n        /* \"github/dGFsYWw/Foundry/PriceConverter.sol\":714:742  return uint256(answer* 1e10) */\n      swap3\n      pop\n      pop\n      pop\n        /* \"github/dGFsYWw/Foundry/PriceConverter.sol\":361:811  function getChainlinkPrice() internal view returns (uint256) {... */\n      swap1\n      jump\t// out\n    tag_52:\n      dup3\n      dup1\n      sload\n      dup3\n      dup3\n      sstore\n      swap1\n      0x00\n      mstore\n      keccak256(0x00, 0x20)\n      swap1\n      dup2\n      add\n      swap3\n      dup3\n      iszero\n      tag_86\n      jumpi\n      swap2\n      0x20\n      mul\n      dup3\n      add\n    tag_87:\n      dup3\n      dup2\n      gt\n      iszero\n      tag_88\n      jumpi\n      dup3\n      mload\n      dup3\n      exp(0x0100, 0x00)\n      dup2\n      sload\n      dup2\n      0xffffffffffffffffffffffffffffffffffffffff\n      mul\n      not\n      and\n      swap1\n      dup4\n      0xffffffffffffffffffffffffffffffffffffffff\n      and\n      mul\n      or\n      swap1\n      sstore\n      pop\n      swap2\n      0x20\n      add\n      swap2\n      swap1\n      0x01\n      add\n      swap1\n      jump(tag_87)\n    tag_88:\n    tag_86:\n      pop\n      swap1\n      pop\n      tag_89\n      swap2\n      swap1\n      tag_90\n      jump\t// in\n    tag_89:\n      pop\n      swap1\n      jump\t// out\n    tag_90:\n    tag_91:\n      dup1\n      dup3\n      gt\n      iszero\n      tag_92\n      jumpi\n      0x00\n      dup2\n      0x00\n      swap1\n      sstore\n      pop\n      0x01\n      add\n      jump(tag_91)\n    tag_92:\n      pop\n      swap1\n      jump\t// out\n        /* \"#utility.yul\":88:205   */\n    tag_94:\n        /* \"#utility.yul\":197:198   */\n      0x00\n        /* \"#utility.yul\":194:195   */\n      dup1\n        /* \"#utility.yul\":187:199   */\n      revert\n        /* \"#utility.yul\":334:460   */\n    tag_96:\n        /* \"#utility.yul\":371:378   */\n      0x00\n        /* \"#utility.yul\":411:453   */\n      0xffffffffffffffffffffffffffffffffffffffff\n        /* \"#utility.yul\":404:409   */\n      dup3\n        /* \"#utility.yul\":400:454   */\n      and\n        /* \"#utility.yul\":389:454   */\n      swap1\n      pop\n        /* \"#utility.yul\":334:460   */\n      swap2\n      swap1\n      pop\n      jump\t// out\n        /* \"#utility.yul\":466:562   */\n    tag_97:\n        /* \"#utility.yul\":503:510   */\n      0x00\n        /* \"#utility.yul\":532:556   */\n      tag_130\n        /* \"#utility.yul\":550:555   */\n      dup3\n        /* \"#utility.yul\":532:556   */\n      tag_96\n      jump\t// in\n    tag_130:\n        /* \"#utility.yul\":521:556   */\n      swap1\n      pop\n        /* \"#utility.yul\":466:562   */\n      swap2\n      swap1\n      pop\n      jump\t// out\n        /* \"#utility.yul\":568:690   */\n    tag_98:\n        /* \"#utility.yul\":641:665   */\n      tag_132\n        /* \"#utility.yul\":659:664   */\n      dup2\n        /* \"#utility.yul\":641:665   */\n      tag_97\n      jump\t// in\n    tag_132:\n        /* \"#utility.yul\":634:639   */\n      dup2\n        /* \"#utility.yul\":631:666   */\n      eq\n        /* \"#utility.yul\":621:684   */\n      tag_133\n      jumpi\n        /* \"#utility.yul\":680:681   */\n      0x00\n        /* \"#utility.yul\":677:678   */\n      dup1\n        /* \"#utility.yul\":670:682   */\n      revert\n        /* \"#utility.yul\":621:684   */\n    tag_133:\n        /* \"#utility.yul\":568:690   */\n      pop\n      jump\t// out\n        /* \"#utility.yul\":696:835   */\n    tag_99:\n        /* \"#utility.yul\":742:747   */\n      0x00\n        /* \"#utility.yul\":780:786   */\n      dup2\n        /* \"#utility.yul\":767:787   */\n      calldataload\n        /* \"#utility.yul\":758:787   */\n      swap1\n      pop\n        /* \"#utility.yul\":796:829   */\n      tag_135\n        /* \"#utility.yul\":823:828   */\n      dup2\n        /* \"#utility.yul\":796:829   */\n      tag_98\n      jump\t// in\n    tag_135:\n        /* \"#utility.yul\":696:835   */\n      swap3\n      swap2\n      pop\n      pop\n      jump\t// out\n        /* \"#utility.yul\":841:1170   */\n    tag_14:\n        /* \"#utility.yul\":900:906   */\n      0x00\n        /* \"#utility.yul\":949:951   */\n      0x20\n        /* \"#utility.yul\":937:946   */\n      dup3\n        /* \"#utility.yul\":928:935   */\n      dup5\n        /* \"#utility.yul\":924:947   */\n      sub\n        /* \"#utility.yul\":920:952   */\n      slt\n        /* \"#utility.yul\":917:1036   */\n      iszero\n      tag_137\n      jumpi\n        /* \"#utility.yul\":955:1034   */\n      tag_138\n      tag_94\n      jump\t// in\n    tag_138:\n        /* \"#utility.yul\":917:1036   */\n    tag_137:\n        /* \"#utility.yul\":1075:1076   */\n      0x00\n        /* \"#utility.yul\":1100:1153   */\n      tag_139\n        /* \"#utility.yul\":1145:1152   */\n      dup5\n        /* \"#utility.yul\":1136:1142   */\n      dup3\n        /* \"#utility.yul\":1125:1134   */\n      dup6\n        /* \"#utility.yul\":1121:1143   */\n      add\n        /* \"#utility.yul\":1100:1153   */\n      tag_99\n      jump\t// in\n    tag_139:\n        /* \"#utility.yul\":1090:1153   */\n      swap2\n      pop\n        /* \"#utility.yul\":1046:1163   */\n      pop\n        /* \"#utility.yul\":841:1170   */\n      swap3\n      swap2\n      pop\n      pop\n      jump\t// out\n        /* \"#utility.yul\":1176:1253   */\n    tag_100:\n        /* \"#utility.yul\":1213:1220   */\n      0x00\n        /* \"#utility.yul\":1242:1247   */\n      dup2\n        /* \"#utility.yul\":1231:1247   */\n      swap1\n      pop\n        /* \"#utility.yul\":1176:1253   */\n      swap2\n      swap1\n      pop\n      jump\t// out\n        /* \"#utility.yul\":1259:1377   */\n    tag_101:\n        /* \"#utility.yul\":1346:1370   */\n      tag_142\n        /* \"#utility.yul\":1364:1369   */\n      dup2\n        /* \"#utility.yul\":1346:1370   */\n      tag_100\n      jump\t// in\n    tag_142:\n        /* \"#utility.yul\":1341:1344   */\n      dup3\n        /* \"#utility.yul\":1334:1371   */\n      mstore\n        /* \"#utility.yul\":1259:1377   */\n      pop\n      pop\n      jump\t// out\n        /* \"#utility.yul\":1383:1605   */\n    tag_17:\n        /* \"#utility.yul\":1476:1480   */\n      0x00\n        /* \"#utility.yul\":1514:1516   */\n      0x20\n        /* \"#utility.yul\":1503:1512   */\n      dup3\n        /* \"#utility.yul\":1499:1517   */\n      add\n        /* \"#utility.yul\":1491:1517   */\n      swap1\n      pop\n        /* \"#utility.yul\":1527:1598   */\n      tag_144\n        /* \"#utility.yul\":1595:1596   */\n      0x00\n        /* \"#utility.yul\":1584:1593   */\n      dup4\n        /* \"#utility.yul\":1580:1597   */\n      add\n        /* \"#utility.yul\":1571:1577   */\n      dup5\n        /* \"#utility.yul\":1527:1598   */\n      tag_101\n      jump\t// in\n    tag_144:\n        /* \"#utility.yul\":1383:1605   */\n      swap3\n      swap2\n      pop\n      pop\n      jump\t// out\n        /* \"#utility.yul\":1611:1729   */\n    tag_102:\n        /* \"#utility.yul\":1698:1722   */\n      tag_146\n        /* \"#utility.yul\":1716:1721   */\n      dup2\n        /* \"#utility.yul\":1698:1722   */\n      tag_97\n      jump\t// in\n    tag_146:\n        /* \"#utility.yul\":1693:1696   */\n      dup3\n        /* \"#utility.yul\":1686:1723   */\n      mstore\n        /* \"#utility.yul\":1611:1729   */\n      pop\n      pop\n      jump\t// out\n        /* \"#utility.yul\":1735:1957   */\n    tag_22:\n        /* \"#utility.yul\":1828:1832   */\n      0x00\n        /* \"#utility.yul\":1866:1868   */\n      0x20\n        /* \"#utility.yul\":1855:1864   */\n      dup3\n        /* \"#utility.yul\":1851:1869   */\n      add\n        /* \"#utility.yul\":1843:1869   */\n      swap1\n      pop\n        /* \"#utility.yul\":1879:1950   */\n      tag_148\n        /* \"#utility.yul\":1947:1948   */\n      0x00\n        /* \"#utility.yul\":1936:1945   */\n      dup4\n        /* \"#utility.yul\":1932:1949   */\n      add\n        /* \"#utility.yul\":1923:1929   */\n      dup5\n        /* \"#utility.yul\":1879:1950   */\n      tag_102\n      jump\t// in\n    tag_148:\n        /* \"#utility.yul\":1735:1957   */\n      swap3\n      swap2\n      pop\n      pop\n      jump\t// out\n        /* \"#utility.yul\":1963:2085   */\n    tag_103:\n        /* \"#utility.yul\":2036:2060   */\n      tag_150\n        /* \"#utility.yul\":2054:2059   */\n      dup2\n        /* \"#utility.yul\":2036:2060   */\n      tag_100\n      jump\t// in\n    tag_150:\n        /* \"#utility.yul\":2029:2034   */\n      dup2\n        /* \"#utility.yul\":2026:2061   */\n      eq\n        /* \"#utility.yul\":2016:2079   */\n      tag_151\n      jumpi\n        /* \"#utility.yul\":2075:2076   */\n      0x00\n        /* \"#utility.yul\":2072:2073   */\n      dup1\n        /* \"#utility.yul\":2065:2077   */\n      revert\n        /* \"#utility.yul\":2016:2079   */\n    tag_151:\n        /* \"#utility.yul\":1963:2085   */\n      pop\n      jump\t// out\n        /* \"#utility.yul\":2091:2230   */\n    tag_104:\n        /* \"#utility.yul\":2137:2142   */\n      0x00\n        /* \"#utility.yul\":2175:2181   */\n      dup2\n        /* \"#utility.yul\":2162:2182   */\n      calldataload\n        /* \"#utility.yul\":2153:2182   */\n      swap1\n      pop\n        /* \"#utility.yul\":2191:2224   */\n      tag_153\n        /* \"#utility.yul\":2218:2223   */\n      dup2\n        /* \"#utility.yul\":2191:2224   */\n      tag_103\n      jump\t// in\n    tag_153:\n        /* \"#utility.yul\":2091:2230   */\n      swap3\n      swap2\n      pop\n      pop\n      jump\t// out\n        /* \"#utility.yul\":2236:2565   */\n    tag_28:\n        /* \"#utility.yul\":2295:2301   */\n      0x00\n        /* \"#utility.yul\":2344:2346   */\n      0x20\n        /* \"#utility.yul\":2332:2341   */\n      dup3\n        /* \"#utility.yul\":2323:2330   */\n      dup5\n        /* \"#utility.yul\":2319:2342   */\n      sub\n        /* \"#utility.yul\":2315:2347   */\n      slt\n        /* \"#utility.yul\":2312:2431   */\n      iszero\n      tag_155\n      jumpi\n        /* \"#utility.yul\":2350:2429   */\n      tag_156\n      tag_94\n      jump\t// in\n    tag_156:\n        /* \"#utility.yul\":2312:2431   */\n    tag_155:\n        /* \"#utility.yul\":2470:2471   */\n      0x00\n        /* \"#utility.yul\":2495:2548   */\n      tag_157\n        /* \"#utility.yul\":2540:2547   */\n      dup5\n        /* \"#utility.yul\":2531:2537   */\n      dup3\n        /* \"#utility.yul\":2520:2529   */\n      dup6\n        /* \"#utility.yul\":2516:2538   */\n      add\n        /* \"#utility.yul\":2495:2548   */\n      tag_104\n      jump\t// in\n    tag_157:\n        /* \"#utility.yul\":2485:2548   */\n      swap2\n      pop\n        /* \"#utility.yul\":2441:2558   */\n      pop\n        /* \"#utility.yul\":2236:2565   */\n      swap3\n      swap2\n      pop\n      pop\n      jump\t// out\n        /* \"#utility.yul\":2571:2740   */\n    tag_105:\n        /* \"#utility.yul\":2655:2666   */\n      0x00\n        /* \"#utility.yul\":2689:2695   */\n      dup3\n        /* \"#utility.yul\":2684:2687   */\n      dup3\n        /* \"#utility.yul\":2677:2696   */\n      mstore\n        /* \"#utility.yul\":2729:2733   */\n      0x20\n        /* \"#utility.yul\":2724:2727   */\n      dup3\n        /* \"#utility.yul\":2720:2734   */\n      add\n        /* \"#utility.yul\":2705:2734   */\n      swap1\n      pop\n        /* \"#utility.yul\":2571:2740   */\n      swap3\n      swap2\n      pop\n      pop\n      jump\t// out\n        /* \"#utility.yul\":2746:2970   */\n    tag_106:\n        /* \"#utility.yul\":2886:2920   */\n      0x4f6e6c7920636f6e7472616374206f776e65722063616e20772f647261772c20\n        /* \"#utility.yul\":2882:2883   */\n      0x00\n        /* \"#utility.yul\":2874:2880   */\n      dup3\n        /* \"#utility.yul\":2870:2884   */\n      add\n        /* \"#utility.yul\":2863:2921   */\n      mstore\n        /* \"#utility.yul\":2955:2962   */\n      0x4455444521000000000000000000000000000000000000000000000000000000\n        /* \"#utility.yul\":2950:2952   */\n      0x20\n        /* \"#utility.yul\":2942:2948   */\n      dup3\n        /* \"#utility.yul\":2938:2953   */\n      add\n        /* \"#utility.yul\":2931:2963   */\n      mstore\n        /* \"#utility.yul\":2746:2970   */\n      pop\n      jump\t// out\n        /* \"#utility.yul\":2976:3342   */\n    tag_107:\n        /* \"#utility.yul\":3118:3121   */\n      0x00\n        /* \"#utility.yul\":3139:3206   */\n      tag_161\n        /* \"#utility.yul\":3203:3205   */\n      0x25\n        /* \"#utility.yul\":3198:3201   */\n      dup4\n        /* \"#utility.yul\":3139:3206   */\n      tag_105\n      jump\t// in\n    tag_161:\n        /* \"#utility.yul\":3132:3206   */\n      swap2\n      pop\n        /* \"#utility.yul\":3215:3308   */\n      tag_162\n        /* \"#utility.yul\":3304:3307   */\n      dup3\n        /* \"#utility.yul\":3215:3308   */\n      tag_106\n      jump\t// in\n    tag_162:\n        /* \"#utility.yul\":3333:3335   */\n      0x40\n        /* \"#utility.yul\":3328:3331   */\n      dup3\n        /* \"#utility.yul\":3324:3336   */\n      add\n        /* \"#utility.yul\":3317:3336   */\n      swap1\n      pop\n        /* \"#utility.yul\":2976:3342   */\n      swap2\n      swap1\n      pop\n      jump\t// out\n        /* \"#utility.yul\":3348:3767   */\n    tag_38:\n        /* \"#utility.yul\":3514:3518   */\n      0x00\n        /* \"#utility.yul\":3552:3554   */\n      0x20\n        /* \"#utility.yul\":3541:3550   */\n      dup3\n        /* \"#utility.yul\":3537:3555   */\n      add\n        /* \"#utility.yul\":3529:3555   */\n      swap1\n      pop\n        /* \"#utility.yul\":3601:3610   */\n      dup2\n        /* \"#utility.yul\":3595:3599   */\n      dup2\n        /* \"#utility.yul\":3591:3611   */\n      sub\n        /* \"#utility.yul\":3587:3588   */\n      0x00\n        /* \"#utility.yul\":3576:3585   */\n      dup4\n        /* \"#utility.yul\":3572:3589   */\n      add\n        /* \"#utility.yul\":3565:3612   */\n      mstore\n        /* \"#utility.yul\":3629:3760   */\n      tag_164\n        /* \"#utility.yul\":3755:3759   */\n      dup2\n        /* \"#utility.yul\":3629:3760   */\n      tag_107\n      jump\t// in\n    tag_164:\n        /* \"#utility.yul\":3621:3760   */\n      swap1\n      pop\n        /* \"#utility.yul\":3348:3767   */\n      swap2\n      swap1\n      pop\n      jump\t// out\n        /* \"#utility.yul\":3773:3953   */\n    tag_45:\n        /* \"#utility.yul\":3821:3898   */\n      0x4e487b7100000000000000000000000000000000000000000000000000000000\n        /* \"#utility.yul\":3818:3819   */\n      0x00\n        /* \"#utility.yul\":3811:3899   */\n      mstore\n        /* \"#utility.yul\":3918:3922   */\n      0x32\n        /* \"#utility.yul\":3915:3916   */\n      0x04\n        /* \"#utility.yul\":3908:3923   */\n      mstore\n        /* \"#utility.yul\":3942:3946   */\n      0x24\n        /* \"#utility.yul\":3939:3940   */\n      0x00\n        /* \"#utility.yul\":3932:3947   */\n      revert\n        /* \"#utility.yul\":3959:4139   */\n    tag_49:\n        /* \"#utility.yul\":4007:4084   */\n      0x4e487b7100000000000000000000000000000000000000000000000000000000\n        /* \"#utility.yul\":4004:4005   */\n      0x00\n        /* \"#utility.yul\":3997:4085   */\n      mstore\n        /* \"#utility.yul\":4104:4108   */\n      0x41\n        /* \"#utility.yul\":4101:4102   */\n      0x04\n        /* \"#utility.yul\":4094:4109   */\n      mstore\n        /* \"#utility.yul\":4128:4132   */\n      0x24\n        /* \"#utility.yul\":4125:4126   */\n      0x00\n        /* \"#utility.yul\":4118:4133   */\n      revert\n        /* \"#utility.yul\":4145:4292   */\n    tag_108:\n        /* \"#utility.yul\":4246:4257   */\n      0x00\n        /* \"#utility.yul\":4283:4286   */\n      dup2\n        /* \"#utility.yul\":4268:4286   */\n      swap1\n      pop\n        /* \"#utility.yul\":4145:4292   */\n      swap3\n      swap2\n      pop\n      pop\n      jump\t// out\n        /* \"#utility.yul\":4298:4412   */\n    tag_109:\n      pop\n      jump\t// out\n        /* \"#utility.yul\":4418:4816   */\n    tag_110:\n        /* \"#utility.yul\":4577:4580   */\n      0x00\n        /* \"#utility.yul\":4598:4681   */\n      tag_170\n        /* \"#utility.yul\":4679:4680   */\n      0x00\n        /* \"#utility.yul\":4674:4677   */\n      dup4\n        /* \"#utility.yul\":4598:4681   */\n      tag_108\n      jump\t// in\n    tag_170:\n        /* \"#utility.yul\":4591:4681   */\n      swap2\n      pop\n        /* \"#utility.yul\":4690:4783   */\n      tag_171\n        /* \"#utility.yul\":4779:4782   */\n      dup3\n        /* \"#utility.yul\":4690:4783   */\n      tag_109\n      jump\t// in\n    tag_171:\n        /* \"#utility.yul\":4808:4809   */\n      0x00\n        /* \"#utility.yul\":4803:4806   */\n      dup3\n        /* \"#utility.yul\":4799:4810   */\n      add\n        /* \"#utility.yul\":4792:4810   */\n      swap1\n      pop\n        /* \"#utility.yul\":4418:4816   */\n      swap2\n      swap1\n      pop\n      jump\t// out\n        /* \"#utility.yul\":4822:5201   */\n    tag_54:\n        /* \"#utility.yul\":5006:5009   */\n      0x00\n        /* \"#utility.yul\":5028:5175   */\n      tag_173\n        /* \"#utility.yul\":5171:5174   */\n      dup3\n        /* \"#utility.yul\":5028:5175   */\n      tag_110\n      jump\t// in\n    tag_173:\n        /* \"#utility.yul\":5021:5175   */\n      swap2\n      pop\n        /* \"#utility.yul\":5192:5195   */\n      dup2\n        /* \"#utility.yul\":5185:5195   */\n      swap1\n      pop\n        /* \"#utility.yul\":4822:5201   */\n      swap2\n      swap1\n      pop\n      jump\t// out\n        /* \"#utility.yul\":5207:5368   */\n    tag_111:\n        /* \"#utility.yul\":5347:5360   */\n      0x43616c6c206661696c6564000000000000000000000000000000000000000000\n        /* \"#utility.yul\":5343:5344   */\n      0x00\n        /* \"#utility.yul\":5335:5341   */\n      dup3\n        /* \"#utility.yul\":5331:5345   */\n      add\n        /* \"#utility.yul\":5324:5361   */\n      mstore\n        /* \"#utility.yul\":5207:5368   */\n      pop\n      jump\t// out\n        /* \"#utility.yul\":5374:5740   */\n    tag_112:\n        /* \"#utility.yul\":5516:5519   */\n      0x00\n        /* \"#utility.yul\":5537:5604   */\n      tag_176\n        /* \"#utility.yul\":5601:5603   */\n      0x0b\n        /* \"#utility.yul\":5596:5599   */\n      dup4\n        /* \"#utility.yul\":5537:5604   */\n      tag_105\n      jump\t// in\n    tag_176:\n        /* \"#utility.yul\":5530:5604   */\n      swap2\n      pop\n        /* \"#utility.yul\":5613:5706   */\n      tag_177\n        /* \"#utility.yul\":5702:5705   */\n      dup3\n        /* \"#utility.yul\":5613:5706   */\n      tag_111\n      jump\t// in\n    tag_177:\n        /* \"#utility.yul\":5731:5733   */\n      0x20\n        /* \"#utility.yul\":5726:5729   */\n      dup3\n        /* \"#utility.yul\":5722:5734   */\n      add\n        /* \"#utility.yul\":5715:5734   */\n      swap1\n      pop\n        /* \"#utility.yul\":5374:5740   */\n      swap2\n      swap1\n      pop\n      jump\t// out\n        /* \"#utility.yul\":5746:6165   */\n    tag_60:\n        /* \"#utility.yul\":5912:5916   */\n      0x00\n        /* \"#utility.yul\":5950:5952   */\n      0x20\n        /* \"#utility.yul\":5939:5948   */\n      dup3\n        /* \"#utility.yul\":5935:5953   */\n      add\n        /* \"#utility.yul\":5927:5953   */\n      swap1\n      pop\n        /* \"#utility.yul\":5999:6008   */\n      dup2\n        /* \"#utility.yul\":5993:5997   */\n      dup2\n        /* \"#utility.yul\":5989:6009   */\n      sub\n        /* \"#utility.yul\":5985:5986   */\n      0x00\n        /* \"#utility.yul\":5974:5983   */\n      dup4\n        /* \"#utility.yul\":5970:5987   */\n      add\n        /* \"#utility.yul\":5963:6010   */\n      mstore\n        /* \"#utility.yul\":6027:6158   */\n      tag_179\n        /* \"#utility.yul\":6153:6157   */\n      dup2\n        /* \"#utility.yul\":6027:6158   */\n      tag_112\n      jump\t// in\n    tag_179:\n        /* \"#utility.yul\":6019:6158   */\n      swap1\n      pop\n        /* \"#utility.yul\":5746:6165   */\n      swap2\n      swap1\n      pop\n      jump\t// out\n        /* \"#utility.yul\":6171:6341   */\n    tag_113:\n        /* \"#utility.yul\":6311:6333   */\n      0x4e6f7420656e6f75676820455448206261627921000000000000000000000000\n        /* \"#utility.yul\":6307:6308   */\n      0x00\n        /* \"#utility.yul\":6299:6305   */\n      dup3\n        /* \"#utility.yul\":6295:6309   */\n      add\n        /* \"#utility.yul\":6288:6334   */\n      mstore\n        /* \"#utility.yul\":6171:6341   */\n      pop\n      jump\t// out\n        /* \"#utility.yul\":6347:6713   */\n    tag_114:\n        /* \"#utility.yul\":6489:6492   */\n      0x00\n        /* \"#utility.yul\":6510:6577   */\n      tag_182\n        /* \"#utility.yul\":6574:6576   */\n      0x14\n        /* \"#utility.yul\":6569:6572   */\n      dup4\n        /* \"#utility.yul\":6510:6577   */\n      tag_105\n      jump\t// in\n    tag_182:\n        /* \"#utility.yul\":6503:6577   */\n      swap2\n      pop\n        /* \"#utility.yul\":6586:6679   */\n      tag_183\n        /* \"#utility.yul\":6675:6678   */\n      dup3\n        /* \"#utility.yul\":6586:6679   */\n      tag_113\n      jump\t// in\n    tag_183:\n        /* \"#utility.yul\":6704:6706   */\n      0x20\n        /* \"#utility.yul\":6699:6702   */\n      dup3\n        /* \"#utility.yul\":6695:6707   */\n      add\n        /* \"#utility.yul\":6688:6707   */\n      swap1\n      pop\n        /* \"#utility.yul\":6347:6713   */\n      swap2\n      swap1\n      pop\n      jump\t// out\n        /* \"#utility.yul\":6719:7138   */\n    tag_66:\n        /* \"#utility.yul\":6885:6889   */\n      0x00\n        /* \"#utility.yul\":6923:6925   */\n      0x20\n        /* \"#utility.yul\":6912:6921   */\n      dup3\n        /* \"#utility.yul\":6908:6926   */\n      add\n        /* \"#utility.yul\":6900:6926   */\n      swap1\n      pop\n        /* \"#utility.yul\":6972:6981   */\n      dup2\n        /* \"#utility.yul\":6966:6970   */\n      dup2\n        /* \"#utility.yul\":6962:6982   */\n      sub\n        /* \"#utility.yul\":6958:6959   */\n      0x00\n        /* \"#utility.yul\":6947:6956   */\n      dup4\n        /* \"#utility.yul\":6943:6960   */\n      add\n        /* \"#utility.yul\":6936:6983   */\n      mstore\n        /* \"#utility.yul\":7000:7131   */\n      tag_185\n        /* \"#utility.yul\":7126:7130   */\n      dup2\n        /* \"#utility.yul\":7000:7131   */\n      tag_114\n      jump\t// in\n    tag_185:\n        /* \"#utility.yul\":6992:7131   */\n      swap1\n      pop\n        /* \"#utility.yul\":6719:7138   */\n      swap2\n      swap1\n      pop\n      jump\t// out\n        /* \"#utility.yul\":7144:7324   */\n    tag_115:\n        /* \"#utility.yul\":7192:7269   */\n      0x4e487b7100000000000000000000000000000000000000000000000000000000\n        /* \"#utility.yul\":7189:7190   */\n      0x00\n        /* \"#utility.yul\":7182:7270   */\n      mstore\n        /* \"#utility.yul\":7289:7293   */\n      0x11\n        /* \"#utility.yul\":7286:7287   */\n      0x04\n        /* \"#utility.yul\":7279:7294   */\n      mstore\n        /* \"#utility.yul\":7313:7317   */\n      0x24\n        /* \"#utility.yul\":7310:7311   */\n      0x00\n        /* \"#utility.yul\":7303:7318   */\n      revert\n        /* \"#utility.yul\":7330:7521   */\n    tag_69:\n        /* \"#utility.yul\":7370:7373   */\n      0x00\n        /* \"#utility.yul\":7389:7409   */\n      tag_188\n        /* \"#utility.yul\":7407:7408   */\n      dup3\n        /* \"#utility.yul\":7389:7409   */\n      tag_100\n      jump\t// in\n    tag_188:\n        /* \"#utility.yul\":7384:7409   */\n      swap2\n      pop\n        /* \"#utility.yul\":7423:7443   */\n      tag_189\n        /* \"#utility.yul\":7441:7442   */\n      dup4\n        /* \"#utility.yul\":7423:7443   */\n      tag_100\n      jump\t// in\n    tag_189:\n        /* \"#utility.yul\":7418:7443   */\n      swap3\n      pop\n        /* \"#utility.yul\":7466:7467   */\n      dup3\n        /* \"#utility.yul\":7463:7464   */\n      dup3\n        /* \"#utility.yul\":7459:7468   */\n      add\n        /* \"#utility.yul\":7452:7468   */\n      swap1\n      pop\n        /* \"#utility.yul\":7487:7490   */\n      dup1\n        /* \"#utility.yul\":7484:7485   */\n      dup3\n        /* \"#utility.yul\":7481:7491   */\n      gt\n        /* \"#utility.yul\":7478:7514   */\n      iszero\n      tag_190\n      jumpi\n        /* \"#utility.yul\":7494:7512   */\n      tag_191\n      tag_115\n      jump\t// in\n    tag_191:\n        /* \"#utility.yul\":7478:7514   */\n    tag_190:\n        /* \"#utility.yul\":7330:7521   */\n      swap3\n      swap2\n      pop\n      pop\n      jump\t// out\n        /* \"#utility.yul\":7527:7937   */\n    tag_76:\n        /* \"#utility.yul\":7567:7574   */\n      0x00\n        /* \"#utility.yul\":7590:7610   */\n      tag_193\n        /* \"#utility.yul\":7608:7609   */\n      dup3\n        /* \"#utility.yul\":7590:7610   */\n      tag_100\n      jump\t// in\n    tag_193:\n        /* \"#utility.yul\":7585:7610   */\n      swap2\n      pop\n        /* \"#utility.yul\":7624:7644   */\n      tag_194\n        /* \"#utility.yul\":7642:7643   */\n      dup4\n        /* \"#utility.yul\":7624:7644   */\n      tag_100\n      jump\t// in\n    tag_194:\n        /* \"#utility.yul\":7619:7644   */\n      swap3\n      pop\n        /* \"#utility.yul\":7679:7680   */\n      dup3\n        /* \"#utility.yul\":7676:7677   */\n      dup3\n        /* \"#utility.yul\":7672:7681   */\n      mul\n        /* \"#utility.yul\":7701:7731   */\n      tag_195\n        /* \"#utility.yul\":7719:7730   */\n      dup2\n        /* \"#utility.yul\":7701:7731   */\n      tag_100\n      jump\t// in\n    tag_195:\n        /* \"#utility.yul\":7690:7731   */\n      swap2\n      pop\n        /* \"#utility.yul\":7880:7881   */\n      dup3\n        /* \"#utility.yul\":7871:7878   */\n      dup3\n        /* \"#utility.yul\":7867:7882   */\n      div\n        /* \"#utility.yul\":7864:7865   */\n      dup5\n        /* \"#utility.yul\":7861:7883   */\n      eq\n        /* \"#utility.yul\":7841:7842   */\n      dup4\n        /* \"#utility.yul\":7834:7843   */\n      iszero\n        /* \"#utility.yul\":7814:7897   */\n      or\n        /* \"#utility.yul\":7791:7930   */\n      tag_196\n      jumpi\n        /* \"#utility.yul\":7910:7928   */\n      tag_197\n      tag_115\n      jump\t// in\n    tag_197:\n        /* \"#utility.yul\":7791:7930   */\n    tag_196:\n        /* \"#utility.yul\":7575:7937   */\n      pop\n        /* \"#utility.yul\":7527:7937   */\n      swap3\n      swap2\n      pop\n      pop\n      jump\t// out\n        /* \"#utility.yul\":7943:8123   */\n    tag_116:\n        /* \"#utility.yul\":7991:8068   */\n      0x4e487b7100000000000000000000000000000000000000000000000000000000\n        /* \"#utility.yul\":7988:7989   */\n      0x00\n        /* \"#utility.yul\":7981:8069   */\n      mstore\n        /* \"#utility.yul\":8088:8092   */\n      0x12\n        /* \"#utility.yul\":8085:8086   */\n      0x04\n        /* \"#utility.yul\":8078:8093   */\n      mstore\n        /* \"#utility.yul\":8112:8116   */\n      0x24\n        /* \"#utility.yul\":8109:8110   */\n      0x00\n        /* \"#utility.yul\":8102:8117   */\n      revert\n        /* \"#utility.yul\":8129:8314   */\n    tag_78:\n        /* \"#utility.yul\":8169:8170   */\n      0x00\n        /* \"#utility.yul\":8186:8206   */\n      tag_200\n        /* \"#utility.yul\":8204:8205   */\n      dup3\n        /* \"#utility.yul\":8186:8206   */\n      tag_100\n      jump\t// in\n    tag_200:\n        /* \"#utility.yul\":8181:8206   */\n      swap2\n      pop\n        /* \"#utility.yul\":8220:8240   */\n      tag_201\n        /* \"#utility.yul\":8238:8239   */\n      dup4\n        /* \"#utility.yul\":8220:8240   */\n      tag_100\n      jump\t// in\n    tag_201:\n        /* \"#utility.yul\":8215:8240   */\n      swap3\n      pop\n        /* \"#utility.yul\":8259:8260   */\n      dup3\n        /* \"#utility.yul\":8249:8284   */\n      tag_202\n      jumpi\n        /* \"#utility.yul\":8264:8282   */\n      tag_203\n      tag_116\n      jump\t// in\n    tag_203:\n        /* \"#utility.yul\":8249:8284   */\n    tag_202:\n        /* \"#utility.yul\":8306:8307   */\n      dup3\n        /* \"#utility.yul\":8303:8304   */\n      dup3\n        /* \"#utility.yul\":8299:8308   */\n      div\n        /* \"#utility.yul\":8294:8308   */\n      swap1\n      pop\n        /* \"#utility.yul\":8129:8314   */\n      swap3\n      swap2\n      pop\n      pop\n      jump\t// out\n        /* \"#utility.yul\":8320:8425   */\n    tag_117:\n        /* \"#utility.yul\":8356:8363   */\n      0x00\n        /* \"#utility.yul\":8396:8418   */\n      0xffffffffffffffffffff\n        /* \"#utility.yul\":8389:8394   */\n      dup3\n        /* \"#utility.yul\":8385:8419   */\n      and\n        /* \"#utility.yul\":8374:8419   */\n      swap1\n      pop\n        /* \"#utility.yul\":8320:8425   */\n      swap2\n      swap1\n      pop\n      jump\t// out\n        /* \"#utility.yul\":8431:8551   */\n    tag_118:\n        /* \"#utility.yul\":8503:8526   */\n      tag_206\n        /* \"#utility.yul\":8520:8525   */\n      dup2\n        /* \"#utility.yul\":8503:8526   */\n      tag_117\n      jump\t// in\n    tag_206:\n        /* \"#utility.yul\":8496:8501   */\n      dup2\n        /* \"#utility.yul\":8493:8527   */\n      eq\n        /* \"#utility.yul\":8483:8545   */\n      tag_207\n      jumpi\n        /* \"#utility.yul\":8541:8542   */\n      0x00\n        /* \"#utility.yul\":8538:8539   */\n      dup1\n        /* \"#utility.yul\":8531:8543   */\n      revert\n        /* \"#utility.yul\":8483:8545   */\n    tag_207:\n        /* \"#utility.yul\":8431:8551   */\n      pop\n      jump\t// out\n        /* \"#utility.yul\":8557:8698   */\n    tag_119:\n        /* \"#utility.yul\":8613:8618   */\n      0x00\n        /* \"#utility.yul\":8644:8650   */\n      dup2\n        /* \"#utility.yul\":8638:8651   */\n      mload\n        /* \"#utility.yul\":8629:8651   */\n      swap1\n      pop\n        /* \"#utility.yul\":8660:8692   */\n      tag_209\n        /* \"#utility.yul\":8686:8691   */\n      dup2\n        /* \"#utility.yul\":8660:8692   */\n      tag_118\n      jump\t// in\n    tag_209:\n        /* \"#utility.yul\":8557:8698   */\n      swap3\n      swap2\n      pop\n      pop\n      jump\t// out\n        /* \"#utility.yul\":8704:8780   */\n    tag_120:\n        /* \"#utility.yul\":8740:8747   */\n      0x00\n        /* \"#utility.yul\":8769:8774   */\n      dup2\n        /* \"#utility.yul\":8758:8774   */\n      swap1\n      pop\n        /* \"#utility.yul\":8704:8780   */\n      swap2\n      swap1\n      pop\n      jump\t// out\n        /* \"#utility.yul\":8786:8906   */\n    tag_121:\n        /* \"#utility.yul\":8858:8881   */\n      tag_212\n        /* \"#utility.yul\":8875:8880   */\n      dup2\n        /* \"#utility.yul\":8858:8881   */\n      tag_120\n      jump\t// in\n    tag_212:\n        /* \"#utility.yul\":8851:8856   */\n      dup2\n        /* \"#utility.yul\":8848:8882   */\n      eq\n        /* \"#utility.yul\":8838:8900   */\n      tag_213\n      jumpi\n        /* \"#utility.yul\":8896:8897   */\n      0x00\n        /* \"#utility.yul\":8893:8894   */\n      dup1\n        /* \"#utility.yul\":8886:8898   */\n      revert\n        /* \"#utility.yul\":8838:8900   */\n    tag_213:\n        /* \"#utility.yul\":8786:8906   */\n      pop\n      jump\t// out\n        /* \"#utility.yul\":8912:9053   */\n    tag_122:\n        /* \"#utility.yul\":8968:8973   */\n      0x00\n        /* \"#utility.yul\":8999:9005   */\n      dup2\n        /* \"#utility.yul\":8993:9006   */\n      mload\n        /* \"#utility.yul\":8984:9006   */\n      swap1\n      pop\n        /* \"#utility.yul\":9015:9047   */\n      tag_215\n        /* \"#utility.yul\":9041:9046   */\n      dup2\n        /* \"#utility.yul\":9015:9047   */\n      tag_121\n      jump\t// in\n    tag_215:\n        /* \"#utility.yul\":8912:9053   */\n      swap3\n      swap2\n      pop\n      pop\n      jump\t// out\n        /* \"#utility.yul\":9059:9202   */\n    tag_123:\n        /* \"#utility.yul\":9116:9121   */\n      0x00\n        /* \"#utility.yul\":9147:9153   */\n      dup2\n        /* \"#utility.yul\":9141:9154   */\n      mload\n        /* \"#utility.yul\":9132:9154   */\n      swap1\n      pop\n        /* \"#utility.yul\":9163:9196   */\n      tag_217\n        /* \"#utility.yul\":9190:9195   */\n      dup2\n        /* \"#utility.yul\":9163:9196   */\n      tag_103\n      jump\t// in\n    tag_217:\n        /* \"#utility.yul\":9059:9202   */\n      swap3\n      swap2\n      pop\n      pop\n      jump\t// out\n        /* \"#utility.yul\":9208:10179   */\n    tag_83:\n        /* \"#utility.yul\":9311:9317   */\n      0x00\n        /* \"#utility.yul\":9319:9325   */\n      dup1\n        /* \"#utility.yul\":9327:9333   */\n      0x00\n        /* \"#utility.yul\":9335:9341   */\n      dup1\n        /* \"#utility.yul\":9343:9349   */\n      0x00\n        /* \"#utility.yul\":9392:9395   */\n      0xa0\n        /* \"#utility.yul\":9380:9389   */\n      dup7\n        /* \"#utility.yul\":9371:9378   */\n      dup9\n        /* \"#utility.yul\":9367:9390   */\n      sub\n        /* \"#utility.yul\":9363:9396   */\n      slt\n        /* \"#utility.yul\":9360:9480   */\n      iszero\n      tag_219\n      jumpi\n        /* \"#utility.yul\":9399:9478   */\n      tag_220\n      tag_94\n      jump\t// in\n    tag_220:\n        /* \"#utility.yul\":9360:9480   */\n    tag_219:\n        /* \"#utility.yul\":9519:9520   */\n      0x00\n        /* \"#utility.yul\":9544:9607   */\n      tag_221\n        /* \"#utility.yul\":9599:9606   */\n      dup9\n        /* \"#utility.yul\":9590:9596   */\n      dup3\n        /* \"#utility.yul\":9579:9588   */\n      dup10\n        /* \"#utility.yul\":9575:9597   */\n      add\n        /* \"#utility.yul\":9544:9607   */\n      tag_119\n      jump\t// in\n    tag_221:\n        /* \"#utility.yul\":9534:9607   */\n      swap6\n      pop\n        /* \"#utility.yul\":9490:9617   */\n      pop\n        /* \"#utility.yul\":9656:9658   */\n      0x20\n        /* \"#utility.yul\":9682:9745   */\n      tag_222\n        /* \"#utility.yul\":9737:9744   */\n      dup9\n        /* \"#utility.yul\":9728:9734   */\n      dup3\n        /* \"#utility.yul\":9717:9726   */\n      dup10\n        /* \"#utility.yul\":9713:9735   */\n      add\n        /* \"#utility.yul\":9682:9745   */\n      tag_122\n      jump\t// in\n    tag_222:\n        /* \"#utility.yul\":9672:9745   */\n      swap5\n      pop\n        /* \"#utility.yul\":9627:9755   */\n      pop\n        /* \"#utility.yul\":9794:9796   */\n      0x40\n        /* \"#utility.yul\":9820:9884   */\n      tag_223\n        /* \"#utility.yul\":9876:9883   */\n      dup9\n        /* \"#utility.yul\":9867:9873   */\n      dup3\n        /* \"#utility.yul\":9856:9865   */\n      dup10\n        /* \"#utility.yul\":9852:9874   */\n      add\n        /* \"#utility.yul\":9820:9884   */\n      tag_123\n      jump\t// in\n    tag_223:\n        /* \"#utility.yul\":9810:9884   */\n      swap4\n      pop\n        /* \"#utility.yul\":9765:9894   */\n      pop\n        /* \"#utility.yul\":9933:9935   */\n      0x60\n        /* \"#utility.yul\":9959:10023   */\n      tag_224\n        /* \"#utility.yul\":10015:10022   */\n      dup9\n        /* \"#utility.yul\":10006:10012   */\n      dup3\n        /* \"#utility.yul\":9995:10004   */\n      dup10\n        /* \"#utility.yul\":9991:10013   */\n      add\n        /* \"#utility.yul\":9959:10023   */\n      tag_123\n      jump\t// in\n    tag_224:\n        /* \"#utility.yul\":9949:10023   */\n      swap3\n      pop\n        /* \"#utility.yul\":9904:10033   */\n      pop\n        /* \"#utility.yul\":10072:10075   */\n      0x80\n        /* \"#utility.yul\":10099:10162   */\n      tag_225\n        /* \"#utility.yul\":10154:10161   */\n      dup9\n        /* \"#utility.yul\":10145:10151   */\n      dup3\n        /* \"#utility.yul\":10134:10143   */\n      dup10\n        /* \"#utility.yul\":10130:10152   */\n      add\n        /* \"#utility.yul\":10099:10162   */\n      tag_119\n      jump\t// in\n    tag_225:\n        /* \"#utility.yul\":10089:10162   */\n      swap2\n      pop\n        /* \"#utility.yul\":10043:10172   */\n      pop\n        /* \"#utility.yul\":9208:10179   */\n      swap3\n      swap6\n      pop\n      swap3\n      swap6\n      swap1\n      swap4\n      pop\n      jump\t// out\n        /* \"#utility.yul\":10185:10741   */\n    tag_85:\n        /* \"#utility.yul\":10224:10231   */\n      0x00\n        /* \"#utility.yul\":10247:10266   */\n      tag_227\n        /* \"#utility.yul\":10264:10265   */\n      dup3\n        /* \"#utility.yul\":10247:10266   */\n      tag_120\n      jump\t// in\n    tag_227:\n        /* \"#utility.yul\":10242:10266   */\n      swap2\n      pop\n        /* \"#utility.yul\":10280:10299   */\n      tag_228\n        /* \"#utility.yul\":10297:10298   */\n      dup4\n        /* \"#utility.yul\":10280:10299   */\n      tag_120\n      jump\t// in\n    tag_228:\n        /* \"#utility.yul\":10275:10299   */\n      swap3\n      pop\n        /* \"#utility.yul\":10334:10335   */\n      dup3\n        /* \"#utility.yul\":10331:10332   */\n      dup3\n        /* \"#utility.yul\":10327:10336   */\n      mul\n        /* \"#utility.yul\":10356:10385   */\n      tag_229\n        /* \"#utility.yul\":10373:10384   */\n      dup2\n        /* \"#utility.yul\":10356:10385   */\n      tag_120\n      jump\t// in\n    tag_229:\n        /* \"#utility.yul\":10345:10385   */\n      swap2\n      pop\n        /* \"#utility.yul\":10443:10509   */\n      0x8000000000000000000000000000000000000000000000000000000000000000\n        /* \"#utility.yul\":10440:10441   */\n      dup5\n        /* \"#utility.yul\":10437:10510   */\n      eq\n        /* \"#utility.yul\":10433:10434   */\n      0x00\n        /* \"#utility.yul\":10430:10431   */\n      dup5\n        /* \"#utility.yul\":10426:10435   */\n      slt\n        /* \"#utility.yul\":10422:10511   */\n      and\n        /* \"#utility.yul\":10419:10534   */\n      iszero\n      tag_230\n      jumpi\n        /* \"#utility.yul\":10514:10532   */\n      tag_231\n      tag_115\n      jump\t// in\n    tag_231:\n        /* \"#utility.yul\":10419:10534   */\n    tag_230:\n        /* \"#utility.yul\":10684:10685   */\n      dup3\n        /* \"#utility.yul\":10675:10682   */\n      dup3\n        /* \"#utility.yul\":10670:10686   */\n      sdiv\n        /* \"#utility.yul\":10667:10668   */\n      dup5\n        /* \"#utility.yul\":10664:10687   */\n      eq\n        /* \"#utility.yul\":10644:10645   */\n      dup4\n        /* \"#utility.yul\":10637:10646   */\n      iszero\n        /* \"#utility.yul\":10617:10701   */\n      or\n        /* \"#utility.yul\":10594:10734   */\n      tag_232\n      jumpi\n        /* \"#utility.yul\":10714:10732   */\n      tag_233\n      tag_115\n      jump\t// in\n    tag_233:\n        /* \"#utility.yul\":10594:10734   */\n    tag_232:\n        /* \"#utility.yul\":10232:10741   */\n      pop\n        /* \"#utility.yul\":10185:10741   */\n      swap3\n      swap2\n      pop\n      pop\n      jump\t// out\n\n    auxdata: 0xa264697066735822122050fc3169aec5cef7999c00a07946d59a7d7e12e29a37237dac97584d35d9ebe464736f6c63430008190033\n}\n",
				"bytecode": {
					"linkReferences": {},
					"object": "6080604052674563918244f400005f553480156019575f80fd5b503360035f6101000a81548173ffffffffffffffffffffffffffffffffffffffff021916908373ffffffffffffffffffffffffffffffffffffffff160217905550610c5d806100675f395ff3fe608060405260043610610054575f3560e01c80633ccfd60b146100585780633e47d6f31461006e5780638da5cb5b146100aa578063b60d4288146100d4578063dc0d3dff146100de578063dc992aa01461011a575b5f80fd5b348015610063575f80fd5b5061006c610144565b005b348015610079575f80fd5b50610094600480360381019061008f91906106d4565b61037c565b6040516100a19190610717565b60405180910390f35b3480156100b5575f80fd5b506100be610391565b6040516100cb919061073f565b60405180910390f35b6100dc6103b6565b005b3480156100e9575f80fd5b5061010460048036038101906100ff9190610782565b6104b7565b604051610111919061073f565b60405180910390f35b348015610125575f80fd5b5061012e6104f2565b60405161013b9190610717565b60405180910390f35b60035f9054906101000a900473ffffffffffffffffffffffffffffffffffffffff1673ffffffffffffffffffffffffffffffffffffffff163373ffffffffffffffffffffffffffffffffffffffff16146101d3576040517f08c379a00000000000000000000000000000000000000000000000000000000081526004016101ca9061082d565b60405180910390fd5b5f5b600180549050811015610271575f600182815481106101f7576101f661084b565b5b905f5260205f20015f9054906101000a900473ffffffffffffffffffffffffffffffffffffffff1690505f60025f8373ffffffffffffffffffffffffffffffffffffffff1673ffffffffffffffffffffffffffffffffffffffff1681526020019081526020015f20819055505080806001019150506101d5565b505f67ffffffffffffffff81111561028c5761028b610878565b5b6040519080825280602002602001820160405280156102ba5781602001602082028036833780820191505090505b50600190805190602001906102d09291906105d4565b505f3373ffffffffffffffffffffffffffffffffffffffff16476040516102f6906108d2565b5f6040518083038185875af1925050503d805f8114610330576040519150601f19603f3d011682016040523d82523d5f602084013e610335565b606091505b5050905080610379576040517f08c379a000000000000000000000000000000000000000000000000000000000815260040161037090610930565b60405180910390fd5b50565b6002602052805f5260405f205f915090505481565b60035f9054906101000a900473ffffffffffffffffffffffffffffffffffffffff1681565b5f546103c1346104f7565b1015610402576040517f08c379a00000000000000000000000000000000000000000000000000000000081526004016103f990610998565b60405180910390fd5b600133908060018154018082558091505060019003905f5260205f20015f9091909190916101000a81548173ffffffffffffffffffffffffffffffffffffffff021916908373ffffffffffffffffffffffffffffffffffffffff1602179055503460025f3373ffffffffffffffffffffffffffffffffffffffff1673ffffffffffffffffffffffffffffffffffffffff1681526020019081526020015f205f8282546104ae91906109e3565b92505081905550565b600181815481106104c6575f80fd5b905f5260205f20015f915054906101000a900473ffffffffffffffffffffffffffffffffffffffff1681565b5f5481565b5f8061050161052f565b90505f670de0b6b3a764000084836105199190610a16565b6105239190610a84565b90508092505050919050565b5f8073694aa1769357215de4fac081bf1f309adc32530690505f8173ffffffffffffffffffffffffffffffffffffffff1663feaf968c6040518163ffffffff1660e01b815260040160a060405180830381865afa158015610592573d5f803e3d5ffd5b505050506040513d601f19601f820116820180604052508101906105b69190610b3a565b5050509150506402540be400816105cd9190610bb1565b9250505090565b828054828255905f5260205f2090810192821561064a579160200282015b82811115610649578251825f6101000a81548173ffffffffffffffffffffffffffffffffffffffff021916908373ffffffffffffffffffffffffffffffffffffffff160217905550916020019190600101906105f2565b5b509050610657919061065b565b5090565b5b80821115610672575f815f90555060010161065c565b5090565b5f80fd5b5f73ffffffffffffffffffffffffffffffffffffffff82169050919050565b5f6106a38261067a565b9050919050565b6106b381610699565b81146106bd575f80fd5b50565b5f813590506106ce816106aa565b92915050565b5f602082840312156106e9576106e8610676565b5b5f6106f6848285016106c0565b91505092915050565b5f819050919050565b610711816106ff565b82525050565b5f60208201905061072a5f830184610708565b92915050565b61073981610699565b82525050565b5f6020820190506107525f830184610730565b92915050565b610761816106ff565b811461076b575f80fd5b50565b5f8135905061077c81610758565b92915050565b5f6020828403121561079757610796610676565b5b5f6107a48482850161076e565b91505092915050565b5f82825260208201905092915050565b7f4f6e6c7920636f6e7472616374206f776e65722063616e20772f647261772c205f8201527f4455444521000000000000000000000000000000000000000000000000000000602082015250565b5f6108176025836107ad565b9150610822826107bd565b604082019050919050565b5f6020820190508181035f8301526108448161080b565b9050919050565b7f4e487b71000000000000000000000000000000000000000000000000000000005f52603260045260245ffd5b7f4e487b71000000000000000000000000000000000000000000000000000000005f52604160045260245ffd5b5f81905092915050565b50565b5f6108bd5f836108a5565b91506108c8826108af565b5f82019050919050565b5f6108dc826108b2565b9150819050919050565b7f43616c6c206661696c65640000000000000000000000000000000000000000005f82015250565b5f61091a600b836107ad565b9150610925826108e6565b602082019050919050565b5f6020820190508181035f8301526109478161090e565b9050919050565b7f4e6f7420656e6f756768204554482062616279210000000000000000000000005f82015250565b5f6109826014836107ad565b915061098d8261094e565b602082019050919050565b5f6020820190508181035f8301526109af81610976565b9050919050565b7f4e487b71000000000000000000000000000000000000000000000000000000005f52601160045260245ffd5b5f6109ed826106ff565b91506109f8836106ff565b9250828201905080821115610a1057610a0f6109b6565b5b92915050565b5f610a20826106ff565b9150610a2b836106ff565b9250828202610a39816106ff565b91508282048414831517610a5057610a4f6109b6565b5b5092915050565b7f4e487b71000000000000000000000000000000000000000000000000000000005f52601260045260245ffd5b5f610a8e826106ff565b9150610a99836106ff565b925082610aa957610aa8610a57565b5b828204905092915050565b5f69ffffffffffffffffffff82169050919050565b610ad281610ab4565b8114610adc575f80fd5b50565b5f81519050610aed81610ac9565b92915050565b5f819050919050565b610b0581610af3565b8114610b0f575f80fd5b50565b5f81519050610b2081610afc565b92915050565b5f81519050610b3481610758565b92915050565b5f805f805f60a08688031215610b5357610b52610676565b5b5f610b6088828901610adf565b9550506020610b7188828901610b12565b9450506040610b8288828901610b26565b9350506060610b9388828901610b26565b9250506080610ba488828901610adf565b9150509295509295909350565b5f610bbb82610af3565b9150610bc683610af3565b9250828202610bd481610af3565b91507f800000000000000000000000000000000000000000000000000000000000000084145f84121615610c0b57610c0a6109b6565b5b8282058414831517610c2057610c1f6109b6565b5b509291505056fea264697066735822122050fc3169aec5cef7999c00a07946d59a7d7e12e29a37237dac97584d35d9ebe464736f6c63430008190033",
					"opcodes": "PUSH1 0x80 PUSH1 0x40 MSTORE PUSH8 0x4563918244F40000 PUSH0 SSTORE CALLVALUE DUP1 ISZERO PUSH1 0x19 JUMPI PUSH0 DUP1 REVERT JUMPDEST POP CALLER PUSH1 0x3 PUSH0 PUSH2 0x100 EXP DUP2 SLOAD DUP2 PUSH20 0xFFFFFFFFFFFFFFFFFFFFFFFFFFFFFFFFFFFFFFFF MUL NOT AND SWAP1 DUP4 PUSH20 0xFFFFFFFFFFFFFFFFFFFFFFFFFFFFFFFFFFFFFFFF AND MUL OR SWAP1 SSTORE POP PUSH2 0xC5D DUP1 PUSH2 0x67 PUSH0 CODECOPY PUSH0 RETURN INVALID PUSH1 0x80 PUSH1 0x40 MSTORE PUSH1 0x4 CALLDATASIZE LT PUSH2 0x54 JUMPI PUSH0 CALLDATALOAD PUSH1 0xE0 SHR DUP1 PUSH4 0x3CCFD60B EQ PUSH2 0x58 JUMPI DUP1 PUSH4 0x3E47D6F3 EQ PUSH2 0x6E JUMPI DUP1 PUSH4 0x8DA5CB5B EQ PUSH2 0xAA JUMPI DUP1 PUSH4 0xB60D4288 EQ PUSH2 0xD4 JUMPI DUP1 PUSH4 0xDC0D3DFF EQ PUSH2 0xDE JUMPI DUP1 PUSH4 0xDC992AA0 EQ PUSH2 0x11A JUMPI JUMPDEST PUSH0 DUP1 REVERT JUMPDEST CALLVALUE DUP1 ISZERO PUSH2 0x63 JUMPI PUSH0 DUP1 REVERT JUMPDEST POP PUSH2 0x6C PUSH2 0x144 JUMP JUMPDEST STOP JUMPDEST CALLVALUE DUP1 ISZERO PUSH2 0x79 JUMPI PUSH0 DUP1 REVERT JUMPDEST POP PUSH2 0x94 PUSH1 0x4 DUP1 CALLDATASIZE SUB DUP2 ADD SWAP1 PUSH2 0x8F SWAP2 SWAP1 PUSH2 0x6D4 JUMP JUMPDEST PUSH2 0x37C JUMP JUMPDEST PUSH1 0x40 MLOAD PUSH2 0xA1 SWAP2 SWAP1 PUSH2 0x717 JUMP JUMPDEST PUSH1 0x40 MLOAD DUP1 SWAP2 SUB SWAP1 RETURN JUMPDEST CALLVALUE DUP1 ISZERO PUSH2 0xB5 JUMPI PUSH0 DUP1 REVERT JUMPDEST POP PUSH2 0xBE PUSH2 0x391 JUMP JUMPDEST PUSH1 0x40 MLOAD PUSH2 0xCB SWAP2 SWAP1 PUSH2 0x73F JUMP JUMPDEST PUSH1 0x40 MLOAD DUP1 SWAP2 SUB SWAP1 RETURN JUMPDEST PUSH2 0xDC PUSH2 0x3B6 JUMP JUMPDEST STOP JUMPDEST CALLVALUE DUP1 ISZERO PUSH2 0xE9 JUMPI PUSH0 DUP1 REVERT JUMPDEST POP PUSH2 0x104 PUSH1 0x4 DUP1 CALLDATASIZE SUB DUP2 ADD SWAP1 PUSH2 0xFF SWAP2 SWAP1 PUSH2 0x782 JUMP JUMPDEST PUSH2 0x4B7 JUMP JUMPDEST PUSH1 0x40 MLOAD PUSH2 0x111 SWAP2 SWAP1 PUSH2 0x73F JUMP JUMPDEST PUSH1 0x40 MLOAD DUP1 SWAP2 SUB SWAP1 RETURN JUMPDEST CALLVALUE DUP1 ISZERO PUSH2 0x125 JUMPI PUSH0 DUP1 REVERT JUMPDEST POP PUSH2 0x12E PUSH2 0x4F2 JUMP JUMPDEST PUSH1 0x40 MLOAD PUSH2 0x13B SWAP2 SWAP1 PUSH2 0x717 JUMP JUMPDEST PUSH1 0x40 MLOAD DUP1 SWAP2 SUB SWAP1 RETURN JUMPDEST PUSH1 0x3 PUSH0 SWAP1 SLOAD SWAP1 PUSH2 0x100 EXP SWAP1 DIV PUSH20 0xFFFFFFFFFFFFFFFFFFFFFFFFFFFFFFFFFFFFFFFF AND PUSH20 0xFFFFFFFFFFFFFFFFFFFFFFFFFFFFFFFFFFFFFFFF AND CALLER PUSH20 0xFFFFFFFFFFFFFFFFFFFFFFFFFFFFFFFFFFFFFFFF AND EQ PUSH2 0x1D3 JUMPI PUSH1 0x40 MLOAD PUSH32 0x8C379A000000000000000000000000000000000000000000000000000000000 DUP2 MSTORE PUSH1 0x4 ADD PUSH2 0x1CA SWAP1 PUSH2 0x82D JUMP JUMPDEST PUSH1 0x40 MLOAD DUP1 SWAP2 SUB SWAP1 REVERT JUMPDEST PUSH0 JUMPDEST PUSH1 0x1 DUP1 SLOAD SWAP1 POP DUP2 LT ISZERO PUSH2 0x271 JUMPI PUSH0 PUSH1 0x1 DUP3 DUP2 SLOAD DUP2 LT PUSH2 0x1F7 JUMPI PUSH2 0x1F6 PUSH2 0x84B JUMP JUMPDEST JUMPDEST SWAP1 PUSH0 MSTORE PUSH1 0x20 PUSH0 KECCAK256 ADD PUSH0 SWAP1 SLOAD SWAP1 PUSH2 0x100 EXP SWAP1 DIV PUSH20 0xFFFFFFFFFFFFFFFFFFFFFFFFFFFFFFFFFFFFFFFF AND SWAP1 POP PUSH0 PUSH1 0x2 PUSH0 DUP4 PUSH20 0xFFFFFFFFFFFFFFFFFFFFFFFFFFFFFFFFFFFFFFFF AND PUSH20 0xFFFFFFFFFFFFFFFFFFFFFFFFFFFFFFFFFFFFFFFF AND DUP2 MSTORE PUSH1 0x20 ADD SWAP1 DUP2 MSTORE PUSH1 0x20 ADD PUSH0 KECCAK256 DUP2 SWAP1 SSTORE POP POP DUP1 DUP1 PUSH1 0x1 ADD SWAP2 POP POP PUSH2 0x1D5 JUMP JUMPDEST POP PUSH0 PUSH8 0xFFFFFFFFFFFFFFFF DUP2 GT ISZERO PUSH2 0x28C JUMPI PUSH2 0x28B PUSH2 0x878 JUMP JUMPDEST JUMPDEST PUSH1 0x40 MLOAD SWAP1 DUP1 DUP3 MSTORE DUP1 PUSH1 0x20 MUL PUSH1 0x20 ADD DUP3 ADD PUSH1 0x40 MSTORE DUP1 ISZERO PUSH2 0x2BA JUMPI DUP2 PUSH1 0x20 ADD PUSH1 0x20 DUP3 MUL DUP1 CALLDATASIZE DUP4 CALLDATACOPY DUP1 DUP3 ADD SWAP2 POP POP SWAP1 POP JUMPDEST POP PUSH1 0x1 SWAP1 DUP1 MLOAD SWAP1 PUSH1 0x20 ADD SWAP1 PUSH2 0x2D0 SWAP3 SWAP2 SWAP1 PUSH2 0x5D4 JUMP JUMPDEST POP PUSH0 CALLER PUSH20 0xFFFFFFFFFFFFFFFFFFFFFFFFFFFFFFFFFFFFFFFF AND SELFBALANCE PUSH1 0x40 MLOAD PUSH2 0x2F6 SWAP1 PUSH2 0x8D2 JUMP JUMPDEST PUSH0 PUSH1 0x40 MLOAD DUP1 DUP4 SUB DUP2 DUP6 DUP8 GAS CALL SWAP3 POP POP POP RETURNDATASIZE DUP1 PUSH0 DUP2 EQ PUSH2 0x330 JUMPI PUSH1 0x40 MLOAD SWAP2 POP PUSH1 0x1F NOT PUSH1 0x3F RETURNDATASIZE ADD AND DUP3 ADD PUSH1 0x40 MSTORE RETURNDATASIZE DUP3 MSTORE RETURNDATASIZE PUSH0 PUSH1 0x20 DUP5 ADD RETURNDATACOPY PUSH2 0x335 JUMP JUMPDEST PUSH1 0x60 SWAP2 POP JUMPDEST POP POP SWAP1 POP DUP1 PUSH2 0x379 JUMPI PUSH1 0x40 MLOAD PUSH32 0x8C379A000000000000000000000000000000000000000000000000000000000 DUP2 MSTORE PUSH1 0x4 ADD PUSH2 0x370 SWAP1 PUSH2 0x930 JUMP JUMPDEST PUSH1 0x40 MLOAD DUP1 SWAP2 SUB SWAP1 REVERT JUMPDEST POP JUMP JUMPDEST PUSH1 0x2 PUSH1 0x20 MSTORE DUP1 PUSH0 MSTORE PUSH1 0x40 PUSH0 KECCAK256 PUSH0 SWAP2 POP SWAP1 POP SLOAD DUP2 JUMP JUMPDEST PUSH1 0x3 PUSH0 SWAP1 SLOAD SWAP1 PUSH2 0x100 EXP SWAP1 DIV PUSH20 0xFFFFFFFFFFFFFFFFFFFFFFFFFFFFFFFFFFFFFFFF AND DUP2 JUMP JUMPDEST PUSH0 SLOAD PUSH2 0x3C1 CALLVALUE PUSH2 0x4F7 JUMP JUMPDEST LT ISZERO PUSH2 0x402 JUMPI PUSH1 0x40 MLOAD PUSH32 0x8C379A000000000000000000000000000000000000000000000000000000000 DUP2 MSTORE PUSH1 0x4 ADD PUSH2 0x3F9 SWAP1 PUSH2 0x998 JUMP JUMPDEST PUSH1 0x40 MLOAD DUP1 SWAP2 SUB SWAP1 REVERT JUMPDEST PUSH1 0x1 CALLER SWAP1 DUP1 PUSH1 0x1 DUP2 SLOAD ADD DUP1 DUP3 SSTORE DUP1 SWAP2 POP POP PUSH1 0x1 SWAP1 SUB SWAP1 PUSH0 MSTORE PUSH1 0x20 PUSH0 KECCAK256 ADD PUSH0 SWAP1 SWAP2 SWAP1 SWAP2 SWAP1 SWAP2 PUSH2 0x100 EXP DUP2 SLOAD DUP2 PUSH20 0xFFFFFFFFFFFFFFFFFFFFFFFFFFFFFFFFFFFFFFFF MUL NOT AND SWAP1 DUP4 PUSH20 0xFFFFFFFFFFFFFFFFFFFFFFFFFFFFFFFFFFFFFFFF AND MUL OR SWAP1 SSTORE POP CALLVALUE PUSH1 0x2 PUSH0 CALLER PUSH20 0xFFFFFFFFFFFFFFFFFFFFFFFFFFFFFFFFFFFFFFFF AND PUSH20 0xFFFFFFFFFFFFFFFFFFFFFFFFFFFFFFFFFFFFFFFF AND DUP2 MSTORE PUSH1 0x20 ADD SWAP1 DUP2 MSTORE PUSH1 0x20 ADD PUSH0 KECCAK256 PUSH0 DUP3 DUP3 SLOAD PUSH2 0x4AE SWAP2 SWAP1 PUSH2 0x9E3 JUMP JUMPDEST SWAP3 POP POP DUP2 SWAP1 SSTORE POP JUMP JUMPDEST PUSH1 0x1 DUP2 DUP2 SLOAD DUP2 LT PUSH2 0x4C6 JUMPI PUSH0 DUP1 REVERT JUMPDEST SWAP1 PUSH0 MSTORE PUSH1 0x20 PUSH0 KECCAK256 ADD PUSH0 SWAP2 POP SLOAD SWAP1 PUSH2 0x100 EXP SWAP1 DIV PUSH20 0xFFFFFFFFFFFFFFFFFFFFFFFFFFFFFFFFFFFFFFFF AND DUP2 JUMP JUMPDEST PUSH0 SLOAD DUP2 JUMP JUMPDEST PUSH0 DUP1 PUSH2 0x501 PUSH2 0x52F JUMP JUMPDEST SWAP1 POP PUSH0 PUSH8 0xDE0B6B3A7640000 DUP5 DUP4 PUSH2 0x519 SWAP2 SWAP1 PUSH2 0xA16 JUMP JUMPDEST PUSH2 0x523 SWAP2 SWAP1 PUSH2 0xA84 JUMP JUMPDEST SWAP1 POP DUP1 SWAP3 POP POP POP SWAP2 SWAP1 POP JUMP JUMPDEST PUSH0 DUP1 PUSH20 0x694AA1769357215DE4FAC081BF1F309ADC325306 SWAP1 POP PUSH0 DUP2 PUSH20 0xFFFFFFFFFFFFFFFFFFFFFFFFFFFFFFFFFFFFFFFF AND PUSH4 0xFEAF968C PUSH1 0x40 MLOAD DUP2 PUSH4 0xFFFFFFFF AND PUSH1 0xE0 SHL DUP2 MSTORE PUSH1 0x4 ADD PUSH1 0xA0 PUSH1 0x40 MLOAD DUP1 DUP4 SUB DUP2 DUP7 GAS STATICCALL ISZERO DUP1 ISZERO PUSH2 0x592 JUMPI RETURNDATASIZE PUSH0 DUP1 RETURNDATACOPY RETURNDATASIZE PUSH0 REVERT JUMPDEST POP POP POP POP PUSH1 0x40 MLOAD RETURNDATASIZE PUSH1 0x1F NOT PUSH1 0x1F DUP3 ADD AND DUP3 ADD DUP1 PUSH1 0x40 MSTORE POP DUP2 ADD SWAP1 PUSH2 0x5B6 SWAP2 SWAP1 PUSH2 0xB3A JUMP JUMPDEST POP POP POP SWAP2 POP POP PUSH5 0x2540BE400 DUP2 PUSH2 0x5CD SWAP2 SWAP1 PUSH2 0xBB1 JUMP JUMPDEST SWAP3 POP POP POP SWAP1 JUMP JUMPDEST DUP3 DUP1 SLOAD DUP3 DUP3 SSTORE SWAP1 PUSH0 MSTORE PUSH1 0x20 PUSH0 KECCAK256 SWAP1 DUP2 ADD SWAP3 DUP3 ISZERO PUSH2 0x64A JUMPI SWAP2 PUSH1 0x20 MUL DUP3 ADD JUMPDEST DUP3 DUP2 GT ISZERO PUSH2 0x649 JUMPI DUP3 MLOAD DUP3 PUSH0 PUSH2 0x100 EXP DUP2 SLOAD DUP2 PUSH20 0xFFFFFFFFFFFFFFFFFFFFFFFFFFFFFFFFFFFFFFFF MUL NOT AND SWAP1 DUP4 PUSH20 0xFFFFFFFFFFFFFFFFFFFFFFFFFFFFFFFFFFFFFFFF AND MUL OR SWAP1 SSTORE POP SWAP2 PUSH1 0x20 ADD SWAP2 SWAP1 PUSH1 0x1 ADD SWAP1 PUSH2 0x5F2 JUMP JUMPDEST JUMPDEST POP SWAP1 POP PUSH2 0x657 SWAP2 SWAP1 PUSH2 0x65B JUMP JUMPDEST POP SWAP1 JUMP JUMPDEST JUMPDEST DUP1 DUP3 GT ISZERO PUSH2 0x672 JUMPI PUSH0 DUP2 PUSH0 SWAP1 SSTORE POP PUSH1 0x1 ADD PUSH2 0x65C JUMP JUMPDEST POP SWAP1 JUMP JUMPDEST PUSH0 DUP1 REVERT JUMPDEST PUSH0 PUSH20 0xFFFFFFFFFFFFFFFFFFFFFFFFFFFFFFFFFFFFFFFF DUP3 AND SWAP1 POP SWAP2 SWAP1 POP JUMP JUMPDEST PUSH0 PUSH2 0x6A3 DUP3 PUSH2 0x67A JUMP JUMPDEST SWAP1 POP SWAP2 SWAP1 POP JUMP JUMPDEST PUSH2 0x6B3 DUP2 PUSH2 0x699 JUMP JUMPDEST DUP2 EQ PUSH2 0x6BD JUMPI PUSH0 DUP1 REVERT JUMPDEST POP JUMP JUMPDEST PUSH0 DUP2 CALLDATALOAD SWAP1 POP PUSH2 0x6CE DUP2 PUSH2 0x6AA JUMP JUMPDEST SWAP3 SWAP2 POP POP JUMP JUMPDEST PUSH0 PUSH1 0x20 DUP3 DUP5 SUB SLT ISZERO PUSH2 0x6E9 JUMPI PUSH2 0x6E8 PUSH2 0x676 JUMP JUMPDEST JUMPDEST PUSH0 PUSH2 0x6F6 DUP5 DUP3 DUP6 ADD PUSH2 0x6C0 JUMP JUMPDEST SWAP2 POP POP SWAP3 SWAP2 POP POP JUMP JUMPDEST PUSH0 DUP2 SWAP1 POP SWAP2 SWAP1 POP JUMP JUMPDEST PUSH2 0x711 DUP2 PUSH2 0x6FF JUMP JUMPDEST DUP3 MSTORE POP POP JUMP JUMPDEST PUSH0 PUSH1 0x20 DUP3 ADD SWAP1 POP PUSH2 0x72A PUSH0 DUP4 ADD DUP5 PUSH2 0x708 JUMP JUMPDEST SWAP3 SWAP2 POP POP JUMP JUMPDEST PUSH2 0x739 DUP2 PUSH2 0x699 JUMP JUMPDEST DUP3 MSTORE POP POP JUMP JUMPDEST PUSH0 PUSH1 0x20 DUP3 ADD SWAP1 POP PUSH2 0x752 PUSH0 DUP4 ADD DUP5 PUSH2 0x730 JUMP JUMPDEST SWAP3 SWAP2 POP POP JUMP JUMPDEST PUSH2 0x761 DUP2 PUSH2 0x6FF JUMP JUMPDEST DUP2 EQ PUSH2 0x76B JUMPI PUSH0 DUP1 REVERT JUMPDEST POP JUMP JUMPDEST PUSH0 DUP2 CALLDATALOAD SWAP1 POP PUSH2 0x77C DUP2 PUSH2 0x758 JUMP JUMPDEST SWAP3 SWAP2 POP POP JUMP JUMPDEST PUSH0 PUSH1 0x20 DUP3 DUP5 SUB SLT ISZERO PUSH2 0x797 JUMPI PUSH2 0x796 PUSH2 0x676 JUMP JUMPDEST JUMPDEST PUSH0 PUSH2 0x7A4 DUP5 DUP3 DUP6 ADD PUSH2 0x76E JUMP JUMPDEST SWAP2 POP POP SWAP3 SWAP2 POP POP JUMP JUMPDEST PUSH0 DUP3 DUP3 MSTORE PUSH1 0x20 DUP3 ADD SWAP1 POP SWAP3 SWAP2 POP POP JUMP JUMPDEST PUSH32 0x4F6E6C7920636F6E7472616374206F776E65722063616E20772F647261772C20 PUSH0 DUP3 ADD MSTORE PUSH32 0x4455444521000000000000000000000000000000000000000000000000000000 PUSH1 0x20 DUP3 ADD MSTORE POP JUMP JUMPDEST PUSH0 PUSH2 0x817 PUSH1 0x25 DUP4 PUSH2 0x7AD JUMP JUMPDEST SWAP2 POP PUSH2 0x822 DUP3 PUSH2 0x7BD JUMP JUMPDEST PUSH1 0x40 DUP3 ADD SWAP1 POP SWAP2 SWAP1 POP JUMP JUMPDEST PUSH0 PUSH1 0x20 DUP3 ADD SWAP1 POP DUP2 DUP2 SUB PUSH0 DUP4 ADD MSTORE PUSH2 0x844 DUP2 PUSH2 0x80B JUMP JUMPDEST SWAP1 POP SWAP2 SWAP1 POP JUMP JUMPDEST PUSH32 0x4E487B7100000000000000000000000000000000000000000000000000000000 PUSH0 MSTORE PUSH1 0x32 PUSH1 0x4 MSTORE PUSH1 0x24 PUSH0 REVERT JUMPDEST PUSH32 0x4E487B7100000000000000000000000000000000000000000000000000000000 PUSH0 MSTORE PUSH1 0x41 PUSH1 0x4 MSTORE PUSH1 0x24 PUSH0 REVERT JUMPDEST PUSH0 DUP2 SWAP1 POP SWAP3 SWAP2 POP POP JUMP JUMPDEST POP JUMP JUMPDEST PUSH0 PUSH2 0x8BD PUSH0 DUP4 PUSH2 0x8A5 JUMP JUMPDEST SWAP2 POP PUSH2 0x8C8 DUP3 PUSH2 0x8AF JUMP JUMPDEST PUSH0 DUP3 ADD SWAP1 POP SWAP2 SWAP1 POP JUMP JUMPDEST PUSH0 PUSH2 0x8DC DUP3 PUSH2 0x8B2 JUMP JUMPDEST SWAP2 POP DUP2 SWAP1 POP SWAP2 SWAP1 POP JUMP JUMPDEST PUSH32 0x43616C6C206661696C6564000000000000000000000000000000000000000000 PUSH0 DUP3 ADD MSTORE POP JUMP JUMPDEST PUSH0 PUSH2 0x91A PUSH1 0xB DUP4 PUSH2 0x7AD JUMP JUMPDEST SWAP2 POP PUSH2 0x925 DUP3 PUSH2 0x8E6 JUMP JUMPDEST PUSH1 0x20 DUP3 ADD SWAP1 POP SWAP2 SWAP1 POP JUMP JUMPDEST PUSH0 PUSH1 0x20 DUP3 ADD SWAP1 POP DUP2 DUP2 SUB PUSH0 DUP4 ADD MSTORE PUSH2 0x947 DUP2 PUSH2 0x90E JUMP JUMPDEST SWAP1 POP SWAP2 SWAP1 POP JUMP JUMPDEST PUSH32 0x4E6F7420656E6F75676820455448206261627921000000000000000000000000 PUSH0 DUP3 ADD MSTORE POP JUMP JUMPDEST PUSH0 PUSH2 0x982 PUSH1 0x14 DUP4 PUSH2 0x7AD JUMP JUMPDEST SWAP2 POP PUSH2 0x98D DUP3 PUSH2 0x94E JUMP JUMPDEST PUSH1 0x20 DUP3 ADD SWAP1 POP SWAP2 SWAP1 POP JUMP JUMPDEST PUSH0 PUSH1 0x20 DUP3 ADD SWAP1 POP DUP2 DUP2 SUB PUSH0 DUP4 ADD MSTORE PUSH2 0x9AF DUP2 PUSH2 0x976 JUMP JUMPDEST SWAP1 POP SWAP2 SWAP1 POP JUMP JUMPDEST PUSH32 0x4E487B7100000000000000000000000000000000000000000000000000000000 PUSH0 MSTORE PUSH1 0x11 PUSH1 0x4 MSTORE PUSH1 0x24 PUSH0 REVERT JUMPDEST PUSH0 PUSH2 0x9ED DUP3 PUSH2 0x6FF JUMP JUMPDEST SWAP2 POP PUSH2 0x9F8 DUP4 PUSH2 0x6FF JUMP JUMPDEST SWAP3 POP DUP3 DUP3 ADD SWAP1 POP DUP1 DUP3 GT ISZERO PUSH2 0xA10 JUMPI PUSH2 0xA0F PUSH2 0x9B6 JUMP JUMPDEST JUMPDEST SWAP3 SWAP2 POP POP JUMP JUMPDEST PUSH0 PUSH2 0xA20 DUP3 PUSH2 0x6FF JUMP JUMPDEST SWAP2 POP PUSH2 0xA2B DUP4 PUSH2 0x6FF JUMP JUMPDEST SWAP3 POP DUP3 DUP3 MUL PUSH2 0xA39 DUP2 PUSH2 0x6FF JUMP JUMPDEST SWAP2 POP DUP3 DUP3 DIV DUP5 EQ DUP4 ISZERO OR PUSH2 0xA50 JUMPI PUSH2 0xA4F PUSH2 0x9B6 JUMP JUMPDEST JUMPDEST POP SWAP3 SWAP2 POP POP JUMP JUMPDEST PUSH32 0x4E487B7100000000000000000000000000000000000000000000000000000000 PUSH0 MSTORE PUSH1 0x12 PUSH1 0x4 MSTORE PUSH1 0x24 PUSH0 REVERT JUMPDEST PUSH0 PUSH2 0xA8E DUP3 PUSH2 0x6FF JUMP JUMPDEST SWAP2 POP PUSH2 0xA99 DUP4 PUSH2 0x6FF JUMP JUMPDEST SWAP3 POP DUP3 PUSH2 0xAA9 JUMPI PUSH2 0xAA8 PUSH2 0xA57 JUMP JUMPDEST JUMPDEST DUP3 DUP3 DIV SWAP1 POP SWAP3 SWAP2 POP POP JUMP JUMPDEST PUSH0 PUSH10 0xFFFFFFFFFFFFFFFFFFFF DUP3 AND SWAP1 POP SWAP2 SWAP1 POP JUMP JUMPDEST PUSH2 0xAD2 DUP2 PUSH2 0xAB4 JUMP JUMPDEST DUP2 EQ PUSH2 0xADC JUMPI PUSH0 DUP1 REVERT JUMPDEST POP JUMP JUMPDEST PUSH0 DUP2 MLOAD SWAP1 POP PUSH2 0xAED DUP2 PUSH2 0xAC9 JUMP JUMPDEST SWAP3 SWAP2 POP POP JUMP JUMPDEST PUSH0 DUP2 SWAP1 POP SWAP2 SWAP1 POP JUMP JUMPDEST PUSH2 0xB05 DUP2 PUSH2 0xAF3 JUMP JUMPDEST DUP2 EQ PUSH2 0xB0F JUMPI PUSH0 DUP1 REVERT JUMPDEST POP JUMP JUMPDEST PUSH0 DUP2 MLOAD SWAP1 POP PUSH2 0xB20 DUP2 PUSH2 0xAFC JUMP JUMPDEST SWAP3 SWAP2 POP POP JUMP JUMPDEST PUSH0 DUP2 MLOAD SWAP1 POP PUSH2 0xB34 DUP2 PUSH2 0x758 JUMP JUMPDEST SWAP3 SWAP2 POP POP JUMP JUMPDEST PUSH0 DUP1 PUSH0 DUP1 PUSH0 PUSH1 0xA0 DUP7 DUP9 SUB SLT ISZERO PUSH2 0xB53 JUMPI PUSH2 0xB52 PUSH2 0x676 JUMP JUMPDEST JUMPDEST PUSH0 PUSH2 0xB60 DUP9 DUP3 DUP10 ADD PUSH2 0xADF JUMP JUMPDEST SWAP6 POP POP PUSH1 0x20 PUSH2 0xB71 DUP9 DUP3 DUP10 ADD PUSH2 0xB12 JUMP JUMPDEST SWAP5 POP POP PUSH1 0x40 PUSH2 0xB82 DUP9 DUP3 DUP10 ADD PUSH2 0xB26 JUMP JUMPDEST SWAP4 POP POP PUSH1 0x60 PUSH2 0xB93 DUP9 DUP3 DUP10 ADD PUSH2 0xB26 JUMP JUMPDEST SWAP3 POP POP PUSH1 0x80 PUSH2 0xBA4 DUP9 DUP3 DUP10 ADD PUSH2 0xADF JUMP JUMPDEST SWAP2 POP POP SWAP3 SWAP6 POP SWAP3 SWAP6 SWAP1 SWAP4 POP JUMP JUMPDEST PUSH0 PUSH2 0xBBB DUP3 PUSH2 0xAF3 JUMP JUMPDEST SWAP2 POP PUSH2 0xBC6 DUP4 PUSH2 0xAF3 JUMP JUMPDEST SWAP3 POP DUP3 DUP3 MUL PUSH2 0xBD4 DUP2 PUSH2 0xAF3 JUMP JUMPDEST SWAP2 POP PUSH32 0x8000000000000000000000000000000000000000000000000000000000000000 DUP5 EQ PUSH0 DUP5 SLT AND ISZERO PUSH2 0xC0B JUMPI PUSH2 0xC0A PUSH2 0x9B6 JUMP JUMPDEST JUMPDEST DUP3 DUP3 SDIV DUP5 EQ DUP4 ISZERO OR PUSH2 0xC20 JUMPI PUSH2 0xC1F PUSH2 0x9B6 JUMP JUMPDEST JUMPDEST POP SWAP3 SWAP2 POP POP JUMP INVALID LOG2 PUSH5 0x6970667358 0x22 SLT KECCAK256 POP 0xFC BALANCE PUSH10 0xAEC5CEF7999C00A07946 0xD5 SWAP11 PUSH30 0x7E12E29A37237DAC97584D35D9EBE464736F6C6343000819003300000000 "
				},
				"gasEstimates": {
					"creation": {
						"codeDepositCost": "633000",
						"executionCost": "47032",
						"totalCost": "680032"
					},
					"external": {
						"addressToAmountFunded(address)": "2802",
						"fund()": "infinite",
						"funders(uint256)": "5010",
						"minUSD()": "2512",
						"owner()": "2530",
						"withdraw()": "infinite"
					}
				},
				"methodIdentifiers": {
					"addressToAmountFunded(address)": "3e47d6f3",
					"fund()": "b60d4288",
					"funders(uint256)": "dc0d3dff",
					"minUSD()": "dc992aa0",
					"owner()": "8da5cb5b",
					"withdraw()": "3ccfd60b"
				}
			},
			"storageLayout": {
				"storage": [
					{
						"astId": 55,
						"contract": "github/dGFsYWw/Foundry/FundMe.sol:FundMe",
						"label": "minUSD",
						"offset": 0,
						"slot": "0",
						"type": "t_uint256"
					},
					{
						"astId": 58,
						"contract": "github/dGFsYWw/Foundry/FundMe.sol:FundMe",
						"label": "funders",
						"offset": 0,
						"slot": "1",
						"type": "t_array(t_address)dyn_storage"
					},
					{
						"astId": 62,
						"contract": "github/dGFsYWw/Foundry/FundMe.sol:FundMe",
						"label": "addressToAmountFunded",
						"offset": 0,
						"slot": "2",
						"type": "t_mapping(t_address,t_uint256)"
					},
					{
						"astId": 64,
						"contract": "github/dGFsYWw/Foundry/FundMe.sol:FundMe",
						"label": "owner",
						"offset": 0,
						"slot": "3",
						"type": "t_address"
					}
				],
				"types": {
					"t_address": {
						"encoding": "inplace",
						"label": "address",
						"numberOfBytes": "20"
					},
					"t_array(t_address)dyn_storage": {
						"base": "t_address",
						"encoding": "dynamic_array",
						"label": "address[]",
						"numberOfBytes": "32"
					},
					"t_mapping(t_address,t_uint256)": {
						"encoding": "mapping",
						"key": "t_address",
						"label": "mapping(address => uint256)",
						"numberOfBytes": "32",
						"value": "t_uint256"
					},
					"t_uint256": {
						"encoding": "inplace",
						"label": "uint256",
						"numberOfBytes": "32"
					}
				}
			},
			"userdoc": {
				"kind": "user",
				"methods": {},
				"version": 1
			}
		}
	}
}