{
	"github/dGFsYWw/Foundry/FundMe.sol": {
		"FundMe": {
			"abi": [
				{
					"inputs": [],
					"stateMutability": "nonpayable",
					"type": "constructor"
				},
				{
					"stateMutability": "payable",
					"type": "fallback"
				},
				{
					"inputs": [
						{
							"internalType": "address",
							"name": "funder",
							"type": "address"
						}
					],
					"name": "addressToAmountFunded",
					"outputs": [
						{
							"internalType": "uint256",
							"name": "amountFunded",
							"type": "uint256"
						}
					],
					"stateMutability": "view",
					"type": "function"
				},
				{
					"inputs": [],
					"name": "fund",
					"outputs": [],
					"stateMutability": "payable",
					"type": "function"
				},
				{
					"inputs": [
						{
							"internalType": "uint256",
							"name": "",
							"type": "uint256"
						}
					],
					"name": "funders",
					"outputs": [
						{
							"internalType": "address",
							"name": "",
							"type": "address"
						}
					],
					"stateMutability": "view",
					"type": "function"
				},
				{
					"inputs": [],
					"name": "minUSD",
					"outputs": [
						{
							"internalType": "uint256",
							"name": "",
							"type": "uint256"
						}
					],
					"stateMutability": "view",
					"type": "function"
				},
				{
					"inputs": [],
					"name": "owner",
					"outputs": [
						{
							"internalType": "address",
							"name": "",
							"type": "address"
						}
					],
					"stateMutability": "view",
					"type": "function"
				},
				{
					"inputs": [],
					"name": "withdraw",
					"outputs": [],
					"stateMutability": "nonpayable",
					"type": "function"
				},
				{
					"stateMutability": "payable",
					"type": "receive"
				}
			],
			"devdoc": {
				"kind": "dev",
				"methods": {},
				"version": 1
			},
			"evm": {
				"assembly": "    /* \"github/dGFsYWw/Foundry/FundMe.sol\":276:5844  contract FundMe {... */\n  mstore(0x40, 0x80)\n    /* \"github/dGFsYWw/Foundry/FundMe.sol\":1072:1281  constructor() { // To initialize certain varaibles at the moment of contract creation ... */\n  callvalue\n  dup1\n  iszero\n  tag_1\n  jumpi\n  0x00\n  dup1\n  revert\ntag_1:\n  pop\n    /* \"github/dGFsYWw/Foundry/FundMe.sol\":1176:1186  msg.sender */\n  caller\n    /* \"github/dGFsYWw/Foundry/FundMe.sol\":1168:1173  owner */\n  0x02\n  0x00\n    /* \"github/dGFsYWw/Foundry/FundMe.sol\":1168:1186  owner = msg.sender */\n  0x0100\n  exp\n  dup2\n  sload\n  dup2\n  0xffffffffffffffffffffffffffffffffffffffff\n  mul\n  not\n  and\n  swap1\n  dup4\n  0xffffffffffffffffffffffffffffffffffffffff\n  and\n  mul\n  or\n  swap1\n  sstore\n  pop\n    /* \"github/dGFsYWw/Foundry/FundMe.sol\":276:5844  contract FundMe {... */\n  dataSize(sub_0)\n  dup1\n  dataOffset(sub_0)\n  0x00\n  codecopy\n  0x00\n  return\nstop\n\nsub_0: assembly {\n        /* \"github/dGFsYWw/Foundry/FundMe.sol\":276:5844  contract FundMe {... */\n      mstore(0x40, 0x80)\n      jumpi(tag_1, lt(calldatasize, 0x04))\n      shr(0xe0, calldataload(0x00))\n      dup1\n      0x3ccfd60b\n      eq\n      tag_3\n      jumpi\n      dup1\n      0x3e47d6f3\n      eq\n      tag_4\n      jumpi\n      dup1\n      0x8da5cb5b\n      eq\n      tag_5\n      jumpi\n      dup1\n      0xb60d4288\n      eq\n      tag_6\n      jumpi\n      dup1\n      0xdc0d3dff\n      eq\n      tag_7\n      jumpi\n      dup1\n      0xdc992aa0\n      eq\n      tag_8\n      jumpi\n      jump(tag_2)\n    tag_1:\n      jumpi(tag_2, calldatasize)\n        /* \"github/dGFsYWw/Foundry/FundMe.sol\":5766:5772  fund() */\n      tag_11\n        /* \"github/dGFsYWw/Foundry/FundMe.sol\":5766:5770  fund */\n      tag_12\n        /* \"github/dGFsYWw/Foundry/FundMe.sol\":5766:5772  fund() */\n      jump\t// in\n    tag_11:\n        /* \"github/dGFsYWw/Foundry/FundMe.sol\":276:5844  contract FundMe {... */\n      stop\n    tag_2:\n        /* \"github/dGFsYWw/Foundry/FundMe.sol\":5827:5833  fund() */\n      tag_15\n        /* \"github/dGFsYWw/Foundry/FundMe.sol\":5827:5831  fund */\n      tag_12\n        /* \"github/dGFsYWw/Foundry/FundMe.sol\":5827:5833  fund() */\n      jump\t// in\n    tag_15:\n        /* \"github/dGFsYWw/Foundry/FundMe.sol\":276:5844  contract FundMe {... */\n      stop\n        /* \"github/dGFsYWw/Foundry/FundMe.sol\":3171:5250  function withdraw() public onlyOwner { // onlyOwner modifier gets executed first (i.e. only contract owner gets to run this function... */\n    tag_3:\n      callvalue\n      dup1\n      iszero\n      tag_16\n      jumpi\n      0x00\n      dup1\n      revert\n    tag_16:\n      pop\n      tag_17\n      tag_18\n      jump\t// in\n    tag_17:\n      stop\n        /* \"github/dGFsYWw/Foundry/FundMe.sol\":928:1005  mapping (address funder => uint256 amountFunded) public addressToAmountFunded */\n    tag_4:\n      callvalue\n      dup1\n      iszero\n      tag_19\n      jumpi\n      0x00\n      dup1\n      revert\n    tag_19:\n      pop\n      tag_20\n      0x04\n      dup1\n      calldatasize\n      sub\n      dup2\n      add\n      swap1\n      tag_21\n      swap2\n      swap1\n      tag_22\n      jump\t// in\n    tag_21:\n      tag_23\n      jump\t// in\n    tag_20:\n      mload(0x40)\n      tag_24\n      swap2\n      swap1\n      tag_25\n      jump\t// in\n    tag_24:\n      mload(0x40)\n      dup1\n      swap2\n      sub\n      swap1\n      return\n        /* \"github/dGFsYWw/Foundry/FundMe.sol\":1045:1065  address public owner */\n    tag_5:\n      callvalue\n      dup1\n      iszero\n      tag_26\n      jumpi\n      0x00\n      dup1\n      revert\n    tag_26:\n      pop\n      tag_27\n      tag_28\n      jump\t// in\n    tag_27:\n      mload(0x40)\n      tag_29\n      swap2\n      swap1\n      tag_30\n      jump\t// in\n    tag_29:\n      mload(0x40)\n      dup1\n      swap2\n      sub\n      swap1\n      return\n        /* \"github/dGFsYWw/Foundry/FundMe.sol\":2348:3163  function fund() public payable {... */\n    tag_6:\n      tag_31\n      tag_12\n      jump\t// in\n    tag_31:\n      stop\n        /* \"github/dGFsYWw/Foundry/FundMe.sol\":897:921  address[] public funders */\n    tag_7:\n      callvalue\n      dup1\n      iszero\n      tag_32\n      jumpi\n      0x00\n      dup1\n      revert\n    tag_32:\n      pop\n      tag_33\n      0x04\n      dup1\n      calldatasize\n      sub\n      dup2\n      add\n      swap1\n      tag_34\n      swap2\n      swap1\n      tag_35\n      jump\t// in\n    tag_34:\n      tag_36\n      jump\t// in\n    tag_33:\n      mload(0x40)\n      tag_37\n      swap2\n      swap1\n      tag_30\n      jump\t// in\n    tag_37:\n      mload(0x40)\n      dup1\n      swap2\n      sub\n      swap1\n      return\n        /* \"github/dGFsYWw/Foundry/FundMe.sol\":353:390  uint256 public constant minUSD = 5e18 */\n    tag_8:\n      callvalue\n      dup1\n      iszero\n      tag_38\n      jumpi\n      0x00\n      dup1\n      revert\n    tag_38:\n      pop\n      tag_39\n      tag_40\n      jump\t// in\n    tag_39:\n      mload(0x40)\n      tag_41\n      swap2\n      swap1\n      tag_25\n      jump\t// in\n    tag_41:\n      mload(0x40)\n      dup1\n      swap2\n      sub\n      swap1\n      return\n        /* \"github/dGFsYWw/Foundry/FundMe.sol\":2348:3163  function fund() public payable {... */\n    tag_12:\n        /* \"github/dGFsYWw/Foundry/FundMe.sol\":386:390  5e18 */\n      0x4563918244f40000\n        /* \"github/dGFsYWw/Foundry/FundMe.sol\":2636:2665  msg.value.getConversionRate() */\n      tag_43\n        /* \"github/dGFsYWw/Foundry/FundMe.sol\":2636:2645  msg.value */\n      callvalue\n        /* \"github/dGFsYWw/Foundry/FundMe.sol\":2636:2663  msg.value.getConversionRate */\n      tag_44\n        /* \"github/dGFsYWw/Foundry/FundMe.sol\":2636:2665  msg.value.getConversionRate() */\n      jump\t// in\n    tag_43:\n        /* \"github/dGFsYWw/Foundry/FundMe.sol\":2636:2675  msg.value.getConversionRate() >= minUSD */\n      lt\n      iszero\n        /* \"github/dGFsYWw/Foundry/FundMe.sol\":2628:2700  require(msg.value.getConversionRate() >= minUSD, \"Not enough ETH baby!\") */\n      tag_45\n      jumpi\n      mload(0x40)\n      0x08c379a000000000000000000000000000000000000000000000000000000000\n      dup2\n      mstore\n      0x04\n      add\n      tag_46\n      swap1\n      tag_47\n      jump\t// in\n    tag_46:\n      mload(0x40)\n      dup1\n      swap2\n      sub\n      swap1\n      revert\n    tag_45:\n        /* \"github/dGFsYWw/Foundry/FundMe.sol\":2711:2718  funders */\n      0x00\n        /* \"github/dGFsYWw/Foundry/FundMe.sol\":2724:2734  msg.sender */\n      caller\n        /* \"github/dGFsYWw/Foundry/FundMe.sol\":2711:2735  funders.push(msg.sender) */\n      swap1\n      dup1\n      0x01\n      dup2\n      sload\n      add\n      dup1\n      dup3\n      sstore\n      dup1\n      swap2\n      pop\n      pop\n      0x01\n      swap1\n      sub\n      swap1\n      0x00\n      mstore\n      keccak256(0x00, 0x20)\n      add\n      0x00\n      swap1\n      swap2\n      swap1\n      swap2\n      swap1\n      swap2\n      0x0100\n      exp\n      dup2\n      sload\n      dup2\n      0xffffffffffffffffffffffffffffffffffffffff\n      mul\n      not\n      and\n      swap1\n      dup4\n      0xffffffffffffffffffffffffffffffffffffffff\n      and\n      mul\n      or\n      swap1\n      sstore\n      pop\n        /* \"github/dGFsYWw/Foundry/FundMe.sol\":3031:3040  msg.value */\n      callvalue\n        /* \"github/dGFsYWw/Foundry/FundMe.sol\":2994:3015  addressToAmountFunded */\n      0x01\n        /* \"github/dGFsYWw/Foundry/FundMe.sol\":2994:3027  addressToAmountFunded[msg.sender] */\n      0x00\n        /* \"github/dGFsYWw/Foundry/FundMe.sol\":3016:3026  msg.sender */\n      caller\n        /* \"github/dGFsYWw/Foundry/FundMe.sol\":2994:3027  addressToAmountFunded[msg.sender] */\n      0xffffffffffffffffffffffffffffffffffffffff\n      and\n      0xffffffffffffffffffffffffffffffffffffffff\n      and\n      dup2\n      mstore\n      0x20\n      add\n      swap1\n      dup2\n      mstore\n      0x20\n      add\n      0x00\n      keccak256\n      0x00\n        /* \"github/dGFsYWw/Foundry/FundMe.sol\":2994:3040  addressToAmountFunded[msg.sender] += msg.value */\n      dup3\n      dup3\n      sload\n      tag_49\n      swap2\n      swap1\n      tag_50\n      jump\t// in\n    tag_49:\n      swap3\n      pop\n      pop\n      dup2\n      swap1\n      sstore\n      pop\n        /* \"github/dGFsYWw/Foundry/FundMe.sol\":2348:3163  function fund() public payable {... */\n      jump\t// out\n        /* \"github/dGFsYWw/Foundry/FundMe.sol\":3171:5250  function withdraw() public onlyOwner { // onlyOwner modifier gets executed first (i.e. only contract owner gets to run this function... */\n    tag_18:\n        /* \"github/dGFsYWw/Foundry/FundMe.sol\":5312:5317  owner */\n      0x02\n      0x00\n      swap1\n      sload\n      swap1\n      0x0100\n      exp\n      swap1\n      div\n      0xffffffffffffffffffffffffffffffffffffffff\n      and\n        /* \"github/dGFsYWw/Foundry/FundMe.sol\":5298:5317  msg.sender == owner */\n      0xffffffffffffffffffffffffffffffffffffffff\n      and\n        /* \"github/dGFsYWw/Foundry/FundMe.sol\":5298:5308  msg.sender */\n      caller\n        /* \"github/dGFsYWw/Foundry/FundMe.sol\":5298:5317  msg.sender == owner */\n      0xffffffffffffffffffffffffffffffffffffffff\n      and\n      eq\n        /* \"github/dGFsYWw/Foundry/FundMe.sol\":5290:5359  require(msg.sender == owner, \"Only contract owner can w/draw, DUDE!\") */\n      tag_52\n      jumpi\n      mload(0x40)\n      0x08c379a000000000000000000000000000000000000000000000000000000000\n      dup2\n      mstore\n      0x04\n      add\n      tag_53\n      swap1\n      tag_54\n      jump\t// in\n    tag_53:\n      mload(0x40)\n      dup1\n      swap2\n      sub\n      swap1\n      revert\n    tag_52:\n        /* \"github/dGFsYWw/Foundry/FundMe.sol\":3952:3971  uint256 funderIndex */\n      0x00\n        /* \"github/dGFsYWw/Foundry/FundMe.sol\":3947:4340  for (uint256 funderIndex = 0; funderIndex < funders.length; funderIndex++){... */\n    tag_56:\n        /* \"github/dGFsYWw/Foundry/FundMe.sol\":3991:3998  funders */\n      0x00\n        /* \"github/dGFsYWw/Foundry/FundMe.sol\":3991:4005  funders.length */\n      dup1\n      sload\n      swap1\n      pop\n        /* \"github/dGFsYWw/Foundry/FundMe.sol\":3977:3988  funderIndex */\n      dup2\n        /* \"github/dGFsYWw/Foundry/FundMe.sol\":3977:4005  funderIndex < funders.length */\n      lt\n        /* \"github/dGFsYWw/Foundry/FundMe.sol\":3947:4340  for (uint256 funderIndex = 0; funderIndex < funders.length; funderIndex++){... */\n      iszero\n      tag_57\n      jumpi\n        /* \"github/dGFsYWw/Foundry/FundMe.sol\":4142:4156  address funder */\n      0x00\n        /* \"github/dGFsYWw/Foundry/FundMe.sol\":4159:4166  funders */\n      dup1\n        /* \"github/dGFsYWw/Foundry/FundMe.sol\":4167:4178  funderIndex */\n      dup3\n        /* \"github/dGFsYWw/Foundry/FundMe.sol\":4159:4179  funders[funderIndex] */\n      dup2\n      sload\n      dup2\n      lt\n      tag_59\n      jumpi\n      tag_60\n      tag_61\n      jump\t// in\n    tag_60:\n    tag_59:\n      swap1\n      0x00\n      mstore\n      keccak256(0x00, 0x20)\n      add\n      0x00\n      swap1\n      sload\n      swap1\n      0x0100\n      exp\n      swap1\n      div\n      0xffffffffffffffffffffffffffffffffffffffff\n      and\n        /* \"github/dGFsYWw/Foundry/FundMe.sol\":4142:4179  address funder = funders[funderIndex] */\n      swap1\n      pop\n        /* \"github/dGFsYWw/Foundry/FundMe.sol\":4261:4262  0 */\n      0x00\n        /* \"github/dGFsYWw/Foundry/FundMe.sol\":4229:4250  addressToAmountFunded */\n      0x01\n        /* \"github/dGFsYWw/Foundry/FundMe.sol\":4229:4258  addressToAmountFunded[funder] */\n      0x00\n        /* \"github/dGFsYWw/Foundry/FundMe.sol\":4251:4257  funder */\n      dup4\n        /* \"github/dGFsYWw/Foundry/FundMe.sol\":4229:4258  addressToAmountFunded[funder] */\n      0xffffffffffffffffffffffffffffffffffffffff\n      and\n      0xffffffffffffffffffffffffffffffffffffffff\n      and\n      dup2\n      mstore\n      0x20\n      add\n      swap1\n      dup2\n      mstore\n      0x20\n      add\n      0x00\n      keccak256\n        /* \"github/dGFsYWw/Foundry/FundMe.sol\":4229:4262  addressToAmountFunded[funder] = 0 */\n      dup2\n      swap1\n      sstore\n      pop\n        /* \"github/dGFsYWw/Foundry/FundMe.sol\":4021:4340  {... */\n      pop\n        /* \"github/dGFsYWw/Foundry/FundMe.sol\":4007:4020  funderIndex++ */\n      dup1\n      dup1\n      0x01\n      add\n      swap2\n      pop\n      pop\n        /* \"github/dGFsYWw/Foundry/FundMe.sol\":3947:4340  for (uint256 funderIndex = 0; funderIndex < funders.length; funderIndex++){... */\n      jump(tag_56)\n    tag_57:\n      pop\n        /* \"github/dGFsYWw/Foundry/FundMe.sol\":4395:4396  0 */\n      0x00\n        /* \"github/dGFsYWw/Foundry/FundMe.sol\":4381:4397  new address[](0) */\n      0xffffffffffffffff\n      dup2\n      gt\n      iszero\n      tag_63\n      jumpi\n      tag_64\n      tag_65\n      jump\t// in\n    tag_64:\n    tag_63:\n      mload(0x40)\n      swap1\n      dup1\n      dup3\n      mstore\n      dup1\n      0x20\n      mul\n      0x20\n      add\n      dup3\n      add\n      0x40\n      mstore\n      dup1\n      iszero\n      tag_66\n      jumpi\n      dup2\n      0x20\n      add\n      0x20\n      dup3\n      mul\n      dup1\n      calldatasize\n      dup4\n      calldatacopy\n      dup1\n      dup3\n      add\n      swap2\n      pop\n      pop\n      swap1\n      pop\n    tag_66:\n      pop\n        /* \"github/dGFsYWw/Foundry/FundMe.sol\":4371:4378  funders */\n      0x00\n        /* \"github/dGFsYWw/Foundry/FundMe.sol\":4371:4397  funders = new address[](0) */\n      swap1\n      dup1\n      mload\n      swap1\n      0x20\n      add\n      swap1\n      tag_67\n      swap3\n      swap2\n      swap1\n      tag_68\n      jump\t// in\n    tag_67:\n      pop\n        /* \"github/dGFsYWw/Foundry/FundMe.sol\":5112:5128  bool callSuccess */\n      0x00\n        /* \"github/dGFsYWw/Foundry/FundMe.sol\":5142:5152  msg.sender */\n      caller\n        /* \"github/dGFsYWw/Foundry/FundMe.sol\":5134:5158  payable(msg.sender).call */\n      0xffffffffffffffffffffffffffffffffffffffff\n      and\n        /* \"github/dGFsYWw/Foundry/FundMe.sol\":5166:5187  address(this).balance */\n      selfbalance\n        /* \"github/dGFsYWw/Foundry/FundMe.sol\":5134:5192  payable(msg.sender).call{value: address(this).balance}(\"\") */\n      mload(0x40)\n      tag_69\n      swap1\n      tag_70\n      jump\t// in\n    tag_69:\n      0x00\n      mload(0x40)\n      dup1\n      dup4\n      sub\n      dup2\n      dup6\n      dup8\n      gas\n      call\n      swap3\n      pop\n      pop\n      pop\n      returndatasize\n      dup1\n      0x00\n      dup2\n      eq\n      tag_73\n      jumpi\n      mload(0x40)\n      swap2\n      pop\n      and(add(returndatasize, 0x3f), not(0x1f))\n      dup3\n      add\n      0x40\n      mstore\n      returndatasize\n      dup3\n      mstore\n      returndatasize\n      0x00\n      0x20\n      dup5\n      add\n      returndatacopy\n      jump(tag_72)\n    tag_73:\n      0x60\n      swap2\n      pop\n    tag_72:\n      pop\n        /* \"github/dGFsYWw/Foundry/FundMe.sol\":5111:5192  (bool callSuccess, ) = payable(msg.sender).call{value: address(this).balance}(\"\") */\n      pop\n      swap1\n      pop\n        /* \"github/dGFsYWw/Foundry/FundMe.sol\":5215:5226  callSuccess */\n      dup1\n        /* \"github/dGFsYWw/Foundry/FundMe.sol\":5207:5242  require(callSuccess, \"Call failed\") */\n      tag_74\n      jumpi\n      mload(0x40)\n      0x08c379a000000000000000000000000000000000000000000000000000000000\n      dup2\n      mstore\n      0x04\n      add\n      tag_75\n      swap1\n      tag_76\n      jump\t// in\n    tag_75:\n      mload(0x40)\n      dup1\n      swap2\n      sub\n      swap1\n      revert\n    tag_74:\n        /* \"github/dGFsYWw/Foundry/FundMe.sol\":3208:5250  { // onlyOwner modifier gets executed first (i.e. only contract owner gets to run this function... */\n      pop\n        /* \"github/dGFsYWw/Foundry/FundMe.sol\":3171:5250  function withdraw() public onlyOwner { // onlyOwner modifier gets executed first (i.e. only contract owner gets to run this function... */\n      jump\t// out\n        /* \"github/dGFsYWw/Foundry/FundMe.sol\":928:1005  mapping (address funder => uint256 amountFunded) public addressToAmountFunded */\n    tag_23:\n      mstore(0x20, 0x01)\n      dup1\n      0x00\n      mstore\n      keccak256(0x00, 0x40)\n      0x00\n      swap2\n      pop\n      swap1\n      pop\n      sload\n      dup2\n      jump\t// out\n        /* \"github/dGFsYWw/Foundry/FundMe.sol\":1045:1065  address public owner */\n    tag_28:\n      0x02\n      0x00\n      swap1\n      sload\n      swap1\n      0x0100\n      exp\n      swap1\n      div\n      0xffffffffffffffffffffffffffffffffffffffff\n      and\n      dup2\n      jump\t// out\n        /* \"github/dGFsYWw/Foundry/FundMe.sol\":897:921  address[] public funders */\n    tag_36:\n      0x00\n      dup2\n      dup2\n      sload\n      dup2\n      lt\n      tag_77\n      jumpi\n      0x00\n      dup1\n      revert\n    tag_77:\n      swap1\n      0x00\n      mstore\n      keccak256(0x00, 0x20)\n      add\n      0x00\n      swap2\n      pop\n      sload\n      swap1\n      0x0100\n      exp\n      swap1\n      div\n      0xffffffffffffffffffffffffffffffffffffffff\n      and\n      dup2\n      jump\t// out\n        /* \"github/dGFsYWw/Foundry/FundMe.sol\":353:390  uint256 public constant minUSD = 5e18 */\n    tag_40:\n        /* \"github/dGFsYWw/Foundry/FundMe.sol\":386:390  5e18 */\n      0x4563918244f40000\n        /* \"github/dGFsYWw/Foundry/FundMe.sol\":353:390  uint256 public constant minUSD = 5e18 */\n      dup2\n      jump\t// out\n        /* \"github/dGFsYWw/Foundry/PriceConverter.sol\":819:1302  function getConversionRate(uint256 ethAmount) internal view returns (uint256) {... */\n    tag_44:\n        /* \"github/dGFsYWw/Foundry/PriceConverter.sol\":888:895  uint256 */\n      0x00\n        /* \"github/dGFsYWw/Foundry/PriceConverter.sol\":1122:1138  uint256 ethPrice */\n      dup1\n        /* \"github/dGFsYWw/Foundry/PriceConverter.sol\":1141:1160  getChainlinkPrice() */\n      tag_80\n        /* \"github/dGFsYWw/Foundry/PriceConverter.sol\":1141:1158  getChainlinkPrice */\n      tag_81\n        /* \"github/dGFsYWw/Foundry/PriceConverter.sol\":1141:1160  getChainlinkPrice() */\n      jump\t// in\n    tag_80:\n        /* \"github/dGFsYWw/Foundry/PriceConverter.sol\":1122:1160  uint256 ethPrice = getChainlinkPrice() */\n      swap1\n      pop\n        /* \"github/dGFsYWw/Foundry/PriceConverter.sol\":1210:1232  uint256 ethAmountInUSD */\n      0x00\n        /* \"github/dGFsYWw/Foundry/PriceConverter.sol\":1258:1262  1e18 */\n      0x0de0b6b3a7640000\n        /* \"github/dGFsYWw/Foundry/PriceConverter.sol\":1247:1256  ethAmount */\n      dup5\n        /* \"github/dGFsYWw/Foundry/PriceConverter.sol\":1236:1244  ethPrice */\n      dup4\n        /* \"github/dGFsYWw/Foundry/PriceConverter.sol\":1236:1256  ethPrice * ethAmount */\n      tag_82\n      swap2\n      swap1\n      tag_83\n      jump\t// in\n    tag_82:\n        /* \"github/dGFsYWw/Foundry/PriceConverter.sol\":1235:1262  (ethPrice * ethAmount)/1e18 */\n      tag_84\n      swap2\n      swap1\n      tag_85\n      jump\t// in\n    tag_84:\n        /* \"github/dGFsYWw/Foundry/PriceConverter.sol\":1210:1262  uint256 ethAmountInUSD = (ethPrice * ethAmount)/1e18 */\n      swap1\n      pop\n        /* \"github/dGFsYWw/Foundry/PriceConverter.sol\":1280:1294  ethAmountInUSD */\n      dup1\n        /* \"github/dGFsYWw/Foundry/PriceConverter.sol\":1273:1294  return ethAmountInUSD */\n      swap3\n      pop\n      pop\n      pop\n        /* \"github/dGFsYWw/Foundry/PriceConverter.sol\":819:1302  function getConversionRate(uint256 ethAmount) internal view returns (uint256) {... */\n      swap2\n      swap1\n      pop\n      jump\t// out\n        /* \"github/dGFsYWw/Foundry/PriceConverter.sol\":361:811  function getChainlinkPrice() internal view returns (uint256) {... */\n    tag_81:\n        /* \"github/dGFsYWw/Foundry/PriceConverter.sol\":413:420  uint256 */\n      0x00\n        /* \"github/dGFsYWw/Foundry/PriceConverter.sol\":540:571  AggregatorV3Interface priceFeed */\n      dup1\n        /* \"github/dGFsYWw/Foundry/PriceConverter.sol\":596:638  0x694AA1769357215DE4FAC081bf1f309aDC325306 */\n      0x694aa1769357215de4fac081bf1f309adc325306\n        /* \"github/dGFsYWw/Foundry/PriceConverter.sol\":540:639  AggregatorV3Interface priceFeed = AggregatorV3Interface(0x694AA1769357215DE4FAC081bf1f309aDC325306) */\n      swap1\n      pop\n        /* \"github/dGFsYWw/Foundry/PriceConverter.sol\":653:666  int256 answer */\n      0x00\n        /* \"github/dGFsYWw/Foundry/PriceConverter.sol\":676:685  priceFeed */\n      dup2\n        /* \"github/dGFsYWw/Foundry/PriceConverter.sol\":676:701  priceFeed.latestRoundData */\n      0xffffffffffffffffffffffffffffffffffffffff\n      and\n      0xfeaf968c\n        /* \"github/dGFsYWw/Foundry/PriceConverter.sol\":676:703  priceFeed.latestRoundData() */\n      mload(0x40)\n      dup2\n      0xffffffff\n      and\n      0xe0\n      shl\n      dup2\n      mstore\n      0x04\n      add\n      0xa0\n      mload(0x40)\n      dup1\n      dup4\n      sub\n      dup2\n      dup7\n      gas\n      staticcall\n      iszero\n      dup1\n      iszero\n      tag_88\n      jumpi\n      returndatasize\n      0x00\n      dup1\n      returndatacopy\n      revert(0x00, returndatasize)\n    tag_88:\n      pop\n      pop\n      pop\n      pop\n      mload(0x40)\n      returndatasize\n      not(0x1f)\n      0x1f\n      dup3\n      add\n      and\n      dup3\n      add\n      dup1\n      0x40\n      mstore\n      pop\n      dup2\n      add\n      swap1\n      tag_89\n      swap2\n      swap1\n      tag_90\n      jump\t// in\n    tag_89:\n        /* \"github/dGFsYWw/Foundry/PriceConverter.sol\":650:703  (, int256 answer, , , ) = priceFeed.latestRoundData() */\n      pop\n      pop\n      pop\n      swap2\n      pop\n      pop\n        /* \"github/dGFsYWw/Foundry/PriceConverter.sol\":737:741  1e10 */\n      0x02540be400\n        /* \"github/dGFsYWw/Foundry/PriceConverter.sol\":729:735  answer */\n      dup2\n        /* \"github/dGFsYWw/Foundry/PriceConverter.sol\":729:741  answer* 1e10 */\n      tag_91\n      swap2\n      swap1\n      tag_92\n      jump\t// in\n    tag_91:\n        /* \"github/dGFsYWw/Foundry/PriceConverter.sol\":714:742  return uint256(answer* 1e10) */\n      swap3\n      pop\n      pop\n      pop\n        /* \"github/dGFsYWw/Foundry/PriceConverter.sol\":361:811  function getChainlinkPrice() internal view returns (uint256) {... */\n      swap1\n      jump\t// out\n    tag_68:\n      dup3\n      dup1\n      sload\n      dup3\n      dup3\n      sstore\n      swap1\n      0x00\n      mstore\n      keccak256(0x00, 0x20)\n      swap1\n      dup2\n      add\n      swap3\n      dup3\n      iszero\n      tag_93\n      jumpi\n      swap2\n      0x20\n      mul\n      dup3\n      add\n    tag_94:\n      dup3\n      dup2\n      gt\n      iszero\n      tag_95\n      jumpi\n      dup3\n      mload\n      dup3\n      exp(0x0100, 0x00)\n      dup2\n      sload\n      dup2\n      0xffffffffffffffffffffffffffffffffffffffff\n      mul\n      not\n      and\n      swap1\n      dup4\n      0xffffffffffffffffffffffffffffffffffffffff\n      and\n      mul\n      or\n      swap1\n      sstore\n      pop\n      swap2\n      0x20\n      add\n      swap2\n      swap1\n      0x01\n      add\n      swap1\n      jump(tag_94)\n    tag_95:\n    tag_93:\n      pop\n      swap1\n      pop\n      tag_96\n      swap2\n      swap1\n      tag_97\n      jump\t// in\n    tag_96:\n      pop\n      swap1\n      jump\t// out\n    tag_97:\n    tag_98:\n      dup1\n      dup3\n      gt\n      iszero\n      tag_99\n      jumpi\n      0x00\n      dup2\n      0x00\n      swap1\n      sstore\n      pop\n      0x01\n      add\n      jump(tag_98)\n    tag_99:\n      pop\n      swap1\n      jump\t// out\n        /* \"#utility.yul\":88:205   */\n    tag_101:\n        /* \"#utility.yul\":197:198   */\n      0x00\n        /* \"#utility.yul\":194:195   */\n      dup1\n        /* \"#utility.yul\":187:199   */\n      revert\n        /* \"#utility.yul\":334:460   */\n    tag_103:\n        /* \"#utility.yul\":371:378   */\n      0x00\n        /* \"#utility.yul\":411:453   */\n      0xffffffffffffffffffffffffffffffffffffffff\n        /* \"#utility.yul\":404:409   */\n      dup3\n        /* \"#utility.yul\":400:454   */\n      and\n        /* \"#utility.yul\":389:454   */\n      swap1\n      pop\n        /* \"#utility.yul\":334:460   */\n      swap2\n      swap1\n      pop\n      jump\t// out\n        /* \"#utility.yul\":466:562   */\n    tag_104:\n        /* \"#utility.yul\":503:510   */\n      0x00\n        /* \"#utility.yul\":532:556   */\n      tag_137\n        /* \"#utility.yul\":550:555   */\n      dup3\n        /* \"#utility.yul\":532:556   */\n      tag_103\n      jump\t// in\n    tag_137:\n        /* \"#utility.yul\":521:556   */\n      swap1\n      pop\n        /* \"#utility.yul\":466:562   */\n      swap2\n      swap1\n      pop\n      jump\t// out\n        /* \"#utility.yul\":568:690   */\n    tag_105:\n        /* \"#utility.yul\":641:665   */\n      tag_139\n        /* \"#utility.yul\":659:664   */\n      dup2\n        /* \"#utility.yul\":641:665   */\n      tag_104\n      jump\t// in\n    tag_139:\n        /* \"#utility.yul\":634:639   */\n      dup2\n        /* \"#utility.yul\":631:666   */\n      eq\n        /* \"#utility.yul\":621:684   */\n      tag_140\n      jumpi\n        /* \"#utility.yul\":680:681   */\n      0x00\n        /* \"#utility.yul\":677:678   */\n      dup1\n        /* \"#utility.yul\":670:682   */\n      revert\n        /* \"#utility.yul\":621:684   */\n    tag_140:\n        /* \"#utility.yul\":568:690   */\n      pop\n      jump\t// out\n        /* \"#utility.yul\":696:835   */\n    tag_106:\n        /* \"#utility.yul\":742:747   */\n      0x00\n        /* \"#utility.yul\":780:786   */\n      dup2\n        /* \"#utility.yul\":767:787   */\n      calldataload\n        /* \"#utility.yul\":758:787   */\n      swap1\n      pop\n        /* \"#utility.yul\":796:829   */\n      tag_142\n        /* \"#utility.yul\":823:828   */\n      dup2\n        /* \"#utility.yul\":796:829   */\n      tag_105\n      jump\t// in\n    tag_142:\n        /* \"#utility.yul\":696:835   */\n      swap3\n      swap2\n      pop\n      pop\n      jump\t// out\n        /* \"#utility.yul\":841:1170   */\n    tag_22:\n        /* \"#utility.yul\":900:906   */\n      0x00\n        /* \"#utility.yul\":949:951   */\n      0x20\n        /* \"#utility.yul\":937:946   */\n      dup3\n        /* \"#utility.yul\":928:935   */\n      dup5\n        /* \"#utility.yul\":924:947   */\n      sub\n        /* \"#utility.yul\":920:952   */\n      slt\n        /* \"#utility.yul\":917:1036   */\n      iszero\n      tag_144\n      jumpi\n        /* \"#utility.yul\":955:1034   */\n      tag_145\n      tag_101\n      jump\t// in\n    tag_145:\n        /* \"#utility.yul\":917:1036   */\n    tag_144:\n        /* \"#utility.yul\":1075:1076   */\n      0x00\n        /* \"#utility.yul\":1100:1153   */\n      tag_146\n        /* \"#utility.yul\":1145:1152   */\n      dup5\n        /* \"#utility.yul\":1136:1142   */\n      dup3\n        /* \"#utility.yul\":1125:1134   */\n      dup6\n        /* \"#utility.yul\":1121:1143   */\n      add\n        /* \"#utility.yul\":1100:1153   */\n      tag_106\n      jump\t// in\n    tag_146:\n        /* \"#utility.yul\":1090:1153   */\n      swap2\n      pop\n        /* \"#utility.yul\":1046:1163   */\n      pop\n        /* \"#utility.yul\":841:1170   */\n      swap3\n      swap2\n      pop\n      pop\n      jump\t// out\n        /* \"#utility.yul\":1176:1253   */\n    tag_107:\n        /* \"#utility.yul\":1213:1220   */\n      0x00\n        /* \"#utility.yul\":1242:1247   */\n      dup2\n        /* \"#utility.yul\":1231:1247   */\n      swap1\n      pop\n        /* \"#utility.yul\":1176:1253   */\n      swap2\n      swap1\n      pop\n      jump\t// out\n        /* \"#utility.yul\":1259:1377   */\n    tag_108:\n        /* \"#utility.yul\":1346:1370   */\n      tag_149\n        /* \"#utility.yul\":1364:1369   */\n      dup2\n        /* \"#utility.yul\":1346:1370   */\n      tag_107\n      jump\t// in\n    tag_149:\n        /* \"#utility.yul\":1341:1344   */\n      dup3\n        /* \"#utility.yul\":1334:1371   */\n      mstore\n        /* \"#utility.yul\":1259:1377   */\n      pop\n      pop\n      jump\t// out\n        /* \"#utility.yul\":1383:1605   */\n    tag_25:\n        /* \"#utility.yul\":1476:1480   */\n      0x00\n        /* \"#utility.yul\":1514:1516   */\n      0x20\n        /* \"#utility.yul\":1503:1512   */\n      dup3\n        /* \"#utility.yul\":1499:1517   */\n      add\n        /* \"#utility.yul\":1491:1517   */\n      swap1\n      pop\n        /* \"#utility.yul\":1527:1598   */\n      tag_151\n        /* \"#utility.yul\":1595:1596   */\n      0x00\n        /* \"#utility.yul\":1584:1593   */\n      dup4\n        /* \"#utility.yul\":1580:1597   */\n      add\n        /* \"#utility.yul\":1571:1577   */\n      dup5\n        /* \"#utility.yul\":1527:1598   */\n      tag_108\n      jump\t// in\n    tag_151:\n        /* \"#utility.yul\":1383:1605   */\n      swap3\n      swap2\n      pop\n      pop\n      jump\t// out\n        /* \"#utility.yul\":1611:1729   */\n    tag_109:\n        /* \"#utility.yul\":1698:1722   */\n      tag_153\n        /* \"#utility.yul\":1716:1721   */\n      dup2\n        /* \"#utility.yul\":1698:1722   */\n      tag_104\n      jump\t// in\n    tag_153:\n        /* \"#utility.yul\":1693:1696   */\n      dup3\n        /* \"#utility.yul\":1686:1723   */\n      mstore\n        /* \"#utility.yul\":1611:1729   */\n      pop\n      pop\n      jump\t// out\n        /* \"#utility.yul\":1735:1957   */\n    tag_30:\n        /* \"#utility.yul\":1828:1832   */\n      0x00\n        /* \"#utility.yul\":1866:1868   */\n      0x20\n        /* \"#utility.yul\":1855:1864   */\n      dup3\n        /* \"#utility.yul\":1851:1869   */\n      add\n        /* \"#utility.yul\":1843:1869   */\n      swap1\n      pop\n        /* \"#utility.yul\":1879:1950   */\n      tag_155\n        /* \"#utility.yul\":1947:1948   */\n      0x00\n        /* \"#utility.yul\":1936:1945   */\n      dup4\n        /* \"#utility.yul\":1932:1949   */\n      add\n        /* \"#utility.yul\":1923:1929   */\n      dup5\n        /* \"#utility.yul\":1879:1950   */\n      tag_109\n      jump\t// in\n    tag_155:\n        /* \"#utility.yul\":1735:1957   */\n      swap3\n      swap2\n      pop\n      pop\n      jump\t// out\n        /* \"#utility.yul\":1963:2085   */\n    tag_110:\n        /* \"#utility.yul\":2036:2060   */\n      tag_157\n        /* \"#utility.yul\":2054:2059   */\n      dup2\n        /* \"#utility.yul\":2036:2060   */\n      tag_107\n      jump\t// in\n    tag_157:\n        /* \"#utility.yul\":2029:2034   */\n      dup2\n        /* \"#utility.yul\":2026:2061   */\n      eq\n        /* \"#utility.yul\":2016:2079   */\n      tag_158\n      jumpi\n        /* \"#utility.yul\":2075:2076   */\n      0x00\n        /* \"#utility.yul\":2072:2073   */\n      dup1\n        /* \"#utility.yul\":2065:2077   */\n      revert\n        /* \"#utility.yul\":2016:2079   */\n    tag_158:\n        /* \"#utility.yul\":1963:2085   */\n      pop\n      jump\t// out\n        /* \"#utility.yul\":2091:2230   */\n    tag_111:\n        /* \"#utility.yul\":2137:2142   */\n      0x00\n        /* \"#utility.yul\":2175:2181   */\n      dup2\n        /* \"#utility.yul\":2162:2182   */\n      calldataload\n        /* \"#utility.yul\":2153:2182   */\n      swap1\n      pop\n        /* \"#utility.yul\":2191:2224   */\n      tag_160\n        /* \"#utility.yul\":2218:2223   */\n      dup2\n        /* \"#utility.yul\":2191:2224   */\n      tag_110\n      jump\t// in\n    tag_160:\n        /* \"#utility.yul\":2091:2230   */\n      swap3\n      swap2\n      pop\n      pop\n      jump\t// out\n        /* \"#utility.yul\":2236:2565   */\n    tag_35:\n        /* \"#utility.yul\":2295:2301   */\n      0x00\n        /* \"#utility.yul\":2344:2346   */\n      0x20\n        /* \"#utility.yul\":2332:2341   */\n      dup3\n        /* \"#utility.yul\":2323:2330   */\n      dup5\n        /* \"#utility.yul\":2319:2342   */\n      sub\n        /* \"#utility.yul\":2315:2347   */\n      slt\n        /* \"#utility.yul\":2312:2431   */\n      iszero\n      tag_162\n      jumpi\n        /* \"#utility.yul\":2350:2429   */\n      tag_163\n      tag_101\n      jump\t// in\n    tag_163:\n        /* \"#utility.yul\":2312:2431   */\n    tag_162:\n        /* \"#utility.yul\":2470:2471   */\n      0x00\n        /* \"#utility.yul\":2495:2548   */\n      tag_164\n        /* \"#utility.yul\":2540:2547   */\n      dup5\n        /* \"#utility.yul\":2531:2537   */\n      dup3\n        /* \"#utility.yul\":2520:2529   */\n      dup6\n        /* \"#utility.yul\":2516:2538   */\n      add\n        /* \"#utility.yul\":2495:2548   */\n      tag_111\n      jump\t// in\n    tag_164:\n        /* \"#utility.yul\":2485:2548   */\n      swap2\n      pop\n        /* \"#utility.yul\":2441:2558   */\n      pop\n        /* \"#utility.yul\":2236:2565   */\n      swap3\n      swap2\n      pop\n      pop\n      jump\t// out\n        /* \"#utility.yul\":2571:2740   */\n    tag_112:\n        /* \"#utility.yul\":2655:2666   */\n      0x00\n        /* \"#utility.yul\":2689:2695   */\n      dup3\n        /* \"#utility.yul\":2684:2687   */\n      dup3\n        /* \"#utility.yul\":2677:2696   */\n      mstore\n        /* \"#utility.yul\":2729:2733   */\n      0x20\n        /* \"#utility.yul\":2724:2727   */\n      dup3\n        /* \"#utility.yul\":2720:2734   */\n      add\n        /* \"#utility.yul\":2705:2734   */\n      swap1\n      pop\n        /* \"#utility.yul\":2571:2740   */\n      swap3\n      swap2\n      pop\n      pop\n      jump\t// out\n        /* \"#utility.yul\":2746:2916   */\n    tag_113:\n        /* \"#utility.yul\":2886:2908   */\n      0x4e6f7420656e6f75676820455448206261627921000000000000000000000000\n        /* \"#utility.yul\":2882:2883   */\n      0x00\n        /* \"#utility.yul\":2874:2880   */\n      dup3\n        /* \"#utility.yul\":2870:2884   */\n      add\n        /* \"#utility.yul\":2863:2909   */\n      mstore\n        /* \"#utility.yul\":2746:2916   */\n      pop\n      jump\t// out\n        /* \"#utility.yul\":2922:3288   */\n    tag_114:\n        /* \"#utility.yul\":3064:3067   */\n      0x00\n        /* \"#utility.yul\":3085:3152   */\n      tag_168\n        /* \"#utility.yul\":3149:3151   */\n      0x14\n        /* \"#utility.yul\":3144:3147   */\n      dup4\n        /* \"#utility.yul\":3085:3152   */\n      tag_112\n      jump\t// in\n    tag_168:\n        /* \"#utility.yul\":3078:3152   */\n      swap2\n      pop\n        /* \"#utility.yul\":3161:3254   */\n      tag_169\n        /* \"#utility.yul\":3250:3253   */\n      dup3\n        /* \"#utility.yul\":3161:3254   */\n      tag_113\n      jump\t// in\n    tag_169:\n        /* \"#utility.yul\":3279:3281   */\n      0x20\n        /* \"#utility.yul\":3274:3277   */\n      dup3\n        /* \"#utility.yul\":3270:3282   */\n      add\n        /* \"#utility.yul\":3263:3282   */\n      swap1\n      pop\n        /* \"#utility.yul\":2922:3288   */\n      swap2\n      swap1\n      pop\n      jump\t// out\n        /* \"#utility.yul\":3294:3713   */\n    tag_47:\n        /* \"#utility.yul\":3460:3464   */\n      0x00\n        /* \"#utility.yul\":3498:3500   */\n      0x20\n        /* \"#utility.yul\":3487:3496   */\n      dup3\n        /* \"#utility.yul\":3483:3501   */\n      add\n        /* \"#utility.yul\":3475:3501   */\n      swap1\n      pop\n        /* \"#utility.yul\":3547:3556   */\n      dup2\n        /* \"#utility.yul\":3541:3545   */\n      dup2\n        /* \"#utility.yul\":3537:3557   */\n      sub\n        /* \"#utility.yul\":3533:3534   */\n      0x00\n        /* \"#utility.yul\":3522:3531   */\n      dup4\n        /* \"#utility.yul\":3518:3535   */\n      add\n        /* \"#utility.yul\":3511:3558   */\n      mstore\n        /* \"#utility.yul\":3575:3706   */\n      tag_171\n        /* \"#utility.yul\":3701:3705   */\n      dup2\n        /* \"#utility.yul\":3575:3706   */\n      tag_114\n      jump\t// in\n    tag_171:\n        /* \"#utility.yul\":3567:3706   */\n      swap1\n      pop\n        /* \"#utility.yul\":3294:3713   */\n      swap2\n      swap1\n      pop\n      jump\t// out\n        /* \"#utility.yul\":3719:3899   */\n    tag_115:\n        /* \"#utility.yul\":3767:3844   */\n      0x4e487b7100000000000000000000000000000000000000000000000000000000\n        /* \"#utility.yul\":3764:3765   */\n      0x00\n        /* \"#utility.yul\":3757:3845   */\n      mstore\n        /* \"#utility.yul\":3864:3868   */\n      0x11\n        /* \"#utility.yul\":3861:3862   */\n      0x04\n        /* \"#utility.yul\":3854:3869   */\n      mstore\n        /* \"#utility.yul\":3888:3892   */\n      0x24\n        /* \"#utility.yul\":3885:3886   */\n      0x00\n        /* \"#utility.yul\":3878:3893   */\n      revert\n        /* \"#utility.yul\":3905:4096   */\n    tag_50:\n        /* \"#utility.yul\":3945:3948   */\n      0x00\n        /* \"#utility.yul\":3964:3984   */\n      tag_174\n        /* \"#utility.yul\":3982:3983   */\n      dup3\n        /* \"#utility.yul\":3964:3984   */\n      tag_107\n      jump\t// in\n    tag_174:\n        /* \"#utility.yul\":3959:3984   */\n      swap2\n      pop\n        /* \"#utility.yul\":3998:4018   */\n      tag_175\n        /* \"#utility.yul\":4016:4017   */\n      dup4\n        /* \"#utility.yul\":3998:4018   */\n      tag_107\n      jump\t// in\n    tag_175:\n        /* \"#utility.yul\":3993:4018   */\n      swap3\n      pop\n        /* \"#utility.yul\":4041:4042   */\n      dup3\n        /* \"#utility.yul\":4038:4039   */\n      dup3\n        /* \"#utility.yul\":4034:4043   */\n      add\n        /* \"#utility.yul\":4027:4043   */\n      swap1\n      pop\n        /* \"#utility.yul\":4062:4065   */\n      dup1\n        /* \"#utility.yul\":4059:4060   */\n      dup3\n        /* \"#utility.yul\":4056:4066   */\n      gt\n        /* \"#utility.yul\":4053:4089   */\n      iszero\n      tag_176\n      jumpi\n        /* \"#utility.yul\":4069:4087   */\n      tag_177\n      tag_115\n      jump\t// in\n    tag_177:\n        /* \"#utility.yul\":4053:4089   */\n    tag_176:\n        /* \"#utility.yul\":3905:4096   */\n      swap3\n      swap2\n      pop\n      pop\n      jump\t// out\n        /* \"#utility.yul\":4102:4326   */\n    tag_116:\n        /* \"#utility.yul\":4242:4276   */\n      0x4f6e6c7920636f6e7472616374206f776e65722063616e20772f647261772c20\n        /* \"#utility.yul\":4238:4239   */\n      0x00\n        /* \"#utility.yul\":4230:4236   */\n      dup3\n        /* \"#utility.yul\":4226:4240   */\n      add\n        /* \"#utility.yul\":4219:4277   */\n      mstore\n        /* \"#utility.yul\":4311:4318   */\n      0x4455444521000000000000000000000000000000000000000000000000000000\n        /* \"#utility.yul\":4306:4308   */\n      0x20\n        /* \"#utility.yul\":4298:4304   */\n      dup3\n        /* \"#utility.yul\":4294:4309   */\n      add\n        /* \"#utility.yul\":4287:4319   */\n      mstore\n        /* \"#utility.yul\":4102:4326   */\n      pop\n      jump\t// out\n        /* \"#utility.yul\":4332:4698   */\n    tag_117:\n        /* \"#utility.yul\":4474:4477   */\n      0x00\n        /* \"#utility.yul\":4495:4562   */\n      tag_180\n        /* \"#utility.yul\":4559:4561   */\n      0x25\n        /* \"#utility.yul\":4554:4557   */\n      dup4\n        /* \"#utility.yul\":4495:4562   */\n      tag_112\n      jump\t// in\n    tag_180:\n        /* \"#utility.yul\":4488:4562   */\n      swap2\n      pop\n        /* \"#utility.yul\":4571:4664   */\n      tag_181\n        /* \"#utility.yul\":4660:4663   */\n      dup3\n        /* \"#utility.yul\":4571:4664   */\n      tag_116\n      jump\t// in\n    tag_181:\n        /* \"#utility.yul\":4689:4691   */\n      0x40\n        /* \"#utility.yul\":4684:4687   */\n      dup3\n        /* \"#utility.yul\":4680:4692   */\n      add\n        /* \"#utility.yul\":4673:4692   */\n      swap1\n      pop\n        /* \"#utility.yul\":4332:4698   */\n      swap2\n      swap1\n      pop\n      jump\t// out\n        /* \"#utility.yul\":4704:5123   */\n    tag_54:\n        /* \"#utility.yul\":4870:4874   */\n      0x00\n        /* \"#utility.yul\":4908:4910   */\n      0x20\n        /* \"#utility.yul\":4897:4906   */\n      dup3\n        /* \"#utility.yul\":4893:4911   */\n      add\n        /* \"#utility.yul\":4885:4911   */\n      swap1\n      pop\n        /* \"#utility.yul\":4957:4966   */\n      dup2\n        /* \"#utility.yul\":4951:4955   */\n      dup2\n        /* \"#utility.yul\":4947:4967   */\n      sub\n        /* \"#utility.yul\":4943:4944   */\n      0x00\n        /* \"#utility.yul\":4932:4941   */\n      dup4\n        /* \"#utility.yul\":4928:4945   */\n      add\n        /* \"#utility.yul\":4921:4968   */\n      mstore\n        /* \"#utility.yul\":4985:5116   */\n      tag_183\n        /* \"#utility.yul\":5111:5115   */\n      dup2\n        /* \"#utility.yul\":4985:5116   */\n      tag_117\n      jump\t// in\n    tag_183:\n        /* \"#utility.yul\":4977:5116   */\n      swap1\n      pop\n        /* \"#utility.yul\":4704:5123   */\n      swap2\n      swap1\n      pop\n      jump\t// out\n        /* \"#utility.yul\":5129:5309   */\n    tag_61:\n        /* \"#utility.yul\":5177:5254   */\n      0x4e487b7100000000000000000000000000000000000000000000000000000000\n        /* \"#utility.yul\":5174:5175   */\n      0x00\n        /* \"#utility.yul\":5167:5255   */\n      mstore\n        /* \"#utility.yul\":5274:5278   */\n      0x32\n        /* \"#utility.yul\":5271:5272   */\n      0x04\n        /* \"#utility.yul\":5264:5279   */\n      mstore\n        /* \"#utility.yul\":5298:5302   */\n      0x24\n        /* \"#utility.yul\":5295:5296   */\n      0x00\n        /* \"#utility.yul\":5288:5303   */\n      revert\n        /* \"#utility.yul\":5315:5495   */\n    tag_65:\n        /* \"#utility.yul\":5363:5440   */\n      0x4e487b7100000000000000000000000000000000000000000000000000000000\n        /* \"#utility.yul\":5360:5361   */\n      0x00\n        /* \"#utility.yul\":5353:5441   */\n      mstore\n        /* \"#utility.yul\":5460:5464   */\n      0x41\n        /* \"#utility.yul\":5457:5458   */\n      0x04\n        /* \"#utility.yul\":5450:5465   */\n      mstore\n        /* \"#utility.yul\":5484:5488   */\n      0x24\n        /* \"#utility.yul\":5481:5482   */\n      0x00\n        /* \"#utility.yul\":5474:5489   */\n      revert\n        /* \"#utility.yul\":5501:5648   */\n    tag_118:\n        /* \"#utility.yul\":5602:5613   */\n      0x00\n        /* \"#utility.yul\":5639:5642   */\n      dup2\n        /* \"#utility.yul\":5624:5642   */\n      swap1\n      pop\n        /* \"#utility.yul\":5501:5648   */\n      swap3\n      swap2\n      pop\n      pop\n      jump\t// out\n        /* \"#utility.yul\":5654:5768   */\n    tag_119:\n      pop\n      jump\t// out\n        /* \"#utility.yul\":5774:6172   */\n    tag_120:\n        /* \"#utility.yul\":5933:5936   */\n      0x00\n        /* \"#utility.yul\":5954:6037   */\n      tag_189\n        /* \"#utility.yul\":6035:6036   */\n      0x00\n        /* \"#utility.yul\":6030:6033   */\n      dup4\n        /* \"#utility.yul\":5954:6037   */\n      tag_118\n      jump\t// in\n    tag_189:\n        /* \"#utility.yul\":5947:6037   */\n      swap2\n      pop\n        /* \"#utility.yul\":6046:6139   */\n      tag_190\n        /* \"#utility.yul\":6135:6138   */\n      dup3\n        /* \"#utility.yul\":6046:6139   */\n      tag_119\n      jump\t// in\n    tag_190:\n        /* \"#utility.yul\":6164:6165   */\n      0x00\n        /* \"#utility.yul\":6159:6162   */\n      dup3\n        /* \"#utility.yul\":6155:6166   */\n      add\n        /* \"#utility.yul\":6148:6166   */\n      swap1\n      pop\n        /* \"#utility.yul\":5774:6172   */\n      swap2\n      swap1\n      pop\n      jump\t// out\n        /* \"#utility.yul\":6178:6557   */\n    tag_70:\n        /* \"#utility.yul\":6362:6365   */\n      0x00\n        /* \"#utility.yul\":6384:6531   */\n      tag_192\n        /* \"#utility.yul\":6527:6530   */\n      dup3\n        /* \"#utility.yul\":6384:6531   */\n      tag_120\n      jump\t// in\n    tag_192:\n        /* \"#utility.yul\":6377:6531   */\n      swap2\n      pop\n        /* \"#utility.yul\":6548:6551   */\n      dup2\n        /* \"#utility.yul\":6541:6551   */\n      swap1\n      pop\n        /* \"#utility.yul\":6178:6557   */\n      swap2\n      swap1\n      pop\n      jump\t// out\n        /* \"#utility.yul\":6563:6724   */\n    tag_121:\n        /* \"#utility.yul\":6703:6716   */\n      0x43616c6c206661696c6564000000000000000000000000000000000000000000\n        /* \"#utility.yul\":6699:6700   */\n      0x00\n        /* \"#utility.yul\":6691:6697   */\n      dup3\n        /* \"#utility.yul\":6687:6701   */\n      add\n        /* \"#utility.yul\":6680:6717   */\n      mstore\n        /* \"#utility.yul\":6563:6724   */\n      pop\n      jump\t// out\n        /* \"#utility.yul\":6730:7096   */\n    tag_122:\n        /* \"#utility.yul\":6872:6875   */\n      0x00\n        /* \"#utility.yul\":6893:6960   */\n      tag_195\n        /* \"#utility.yul\":6957:6959   */\n      0x0b\n        /* \"#utility.yul\":6952:6955   */\n      dup4\n        /* \"#utility.yul\":6893:6960   */\n      tag_112\n      jump\t// in\n    tag_195:\n        /* \"#utility.yul\":6886:6960   */\n      swap2\n      pop\n        /* \"#utility.yul\":6969:7062   */\n      tag_196\n        /* \"#utility.yul\":7058:7061   */\n      dup3\n        /* \"#utility.yul\":6969:7062   */\n      tag_121\n      jump\t// in\n    tag_196:\n        /* \"#utility.yul\":7087:7089   */\n      0x20\n        /* \"#utility.yul\":7082:7085   */\n      dup3\n        /* \"#utility.yul\":7078:7090   */\n      add\n        /* \"#utility.yul\":7071:7090   */\n      swap1\n      pop\n        /* \"#utility.yul\":6730:7096   */\n      swap2\n      swap1\n      pop\n      jump\t// out\n        /* \"#utility.yul\":7102:7521   */\n    tag_76:\n        /* \"#utility.yul\":7268:7272   */\n      0x00\n        /* \"#utility.yul\":7306:7308   */\n      0x20\n        /* \"#utility.yul\":7295:7304   */\n      dup3\n        /* \"#utility.yul\":7291:7309   */\n      add\n        /* \"#utility.yul\":7283:7309   */\n      swap1\n      pop\n        /* \"#utility.yul\":7355:7364   */\n      dup2\n        /* \"#utility.yul\":7349:7353   */\n      dup2\n        /* \"#utility.yul\":7345:7365   */\n      sub\n        /* \"#utility.yul\":7341:7342   */\n      0x00\n        /* \"#utility.yul\":7330:7339   */\n      dup4\n        /* \"#utility.yul\":7326:7343   */\n      add\n        /* \"#utility.yul\":7319:7366   */\n      mstore\n        /* \"#utility.yul\":7383:7514   */\n      tag_198\n        /* \"#utility.yul\":7509:7513   */\n      dup2\n        /* \"#utility.yul\":7383:7514   */\n      tag_122\n      jump\t// in\n    tag_198:\n        /* \"#utility.yul\":7375:7514   */\n      swap1\n      pop\n        /* \"#utility.yul\":7102:7521   */\n      swap2\n      swap1\n      pop\n      jump\t// out\n        /* \"#utility.yul\":7527:7937   */\n    tag_83:\n        /* \"#utility.yul\":7567:7574   */\n      0x00\n        /* \"#utility.yul\":7590:7610   */\n      tag_200\n        /* \"#utility.yul\":7608:7609   */\n      dup3\n        /* \"#utility.yul\":7590:7610   */\n      tag_107\n      jump\t// in\n    tag_200:\n        /* \"#utility.yul\":7585:7610   */\n      swap2\n      pop\n        /* \"#utility.yul\":7624:7644   */\n      tag_201\n        /* \"#utility.yul\":7642:7643   */\n      dup4\n        /* \"#utility.yul\":7624:7644   */\n      tag_107\n      jump\t// in\n    tag_201:\n        /* \"#utility.yul\":7619:7644   */\n      swap3\n      pop\n        /* \"#utility.yul\":7679:7680   */\n      dup3\n        /* \"#utility.yul\":7676:7677   */\n      dup3\n        /* \"#utility.yul\":7672:7681   */\n      mul\n        /* \"#utility.yul\":7701:7731   */\n      tag_202\n        /* \"#utility.yul\":7719:7730   */\n      dup2\n        /* \"#utility.yul\":7701:7731   */\n      tag_107\n      jump\t// in\n    tag_202:\n        /* \"#utility.yul\":7690:7731   */\n      swap2\n      pop\n        /* \"#utility.yul\":7880:7881   */\n      dup3\n        /* \"#utility.yul\":7871:7878   */\n      dup3\n        /* \"#utility.yul\":7867:7882   */\n      div\n        /* \"#utility.yul\":7864:7865   */\n      dup5\n        /* \"#utility.yul\":7861:7883   */\n      eq\n        /* \"#utility.yul\":7841:7842   */\n      dup4\n        /* \"#utility.yul\":7834:7843   */\n      iszero\n        /* \"#utility.yul\":7814:7897   */\n      or\n        /* \"#utility.yul\":7791:7930   */\n      tag_203\n      jumpi\n        /* \"#utility.yul\":7910:7928   */\n      tag_204\n      tag_115\n      jump\t// in\n    tag_204:\n        /* \"#utility.yul\":7791:7930   */\n    tag_203:\n        /* \"#utility.yul\":7575:7937   */\n      pop\n        /* \"#utility.yul\":7527:7937   */\n      swap3\n      swap2\n      pop\n      pop\n      jump\t// out\n        /* \"#utility.yul\":7943:8123   */\n    tag_123:\n        /* \"#utility.yul\":7991:8068   */\n      0x4e487b7100000000000000000000000000000000000000000000000000000000\n        /* \"#utility.yul\":7988:7989   */\n      0x00\n        /* \"#utility.yul\":7981:8069   */\n      mstore\n        /* \"#utility.yul\":8088:8092   */\n      0x12\n        /* \"#utility.yul\":8085:8086   */\n      0x04\n        /* \"#utility.yul\":8078:8093   */\n      mstore\n        /* \"#utility.yul\":8112:8116   */\n      0x24\n        /* \"#utility.yul\":8109:8110   */\n      0x00\n        /* \"#utility.yul\":8102:8117   */\n      revert\n        /* \"#utility.yul\":8129:8314   */\n    tag_85:\n        /* \"#utility.yul\":8169:8170   */\n      0x00\n        /* \"#utility.yul\":8186:8206   */\n      tag_207\n        /* \"#utility.yul\":8204:8205   */\n      dup3\n        /* \"#utility.yul\":8186:8206   */\n      tag_107\n      jump\t// in\n    tag_207:\n        /* \"#utility.yul\":8181:8206   */\n      swap2\n      pop\n        /* \"#utility.yul\":8220:8240   */\n      tag_208\n        /* \"#utility.yul\":8238:8239   */\n      dup4\n        /* \"#utility.yul\":8220:8240   */\n      tag_107\n      jump\t// in\n    tag_208:\n        /* \"#utility.yul\":8215:8240   */\n      swap3\n      pop\n        /* \"#utility.yul\":8259:8260   */\n      dup3\n        /* \"#utility.yul\":8249:8284   */\n      tag_209\n      jumpi\n        /* \"#utility.yul\":8264:8282   */\n      tag_210\n      tag_123\n      jump\t// in\n    tag_210:\n        /* \"#utility.yul\":8249:8284   */\n    tag_209:\n        /* \"#utility.yul\":8306:8307   */\n      dup3\n        /* \"#utility.yul\":8303:8304   */\n      dup3\n        /* \"#utility.yul\":8299:8308   */\n      div\n        /* \"#utility.yul\":8294:8308   */\n      swap1\n      pop\n        /* \"#utility.yul\":8129:8314   */\n      swap3\n      swap2\n      pop\n      pop\n      jump\t// out\n        /* \"#utility.yul\":8320:8425   */\n    tag_124:\n        /* \"#utility.yul\":8356:8363   */\n      0x00\n        /* \"#utility.yul\":8396:8418   */\n      0xffffffffffffffffffff\n        /* \"#utility.yul\":8389:8394   */\n      dup3\n        /* \"#utility.yul\":8385:8419   */\n      and\n        /* \"#utility.yul\":8374:8419   */\n      swap1\n      pop\n        /* \"#utility.yul\":8320:8425   */\n      swap2\n      swap1\n      pop\n      jump\t// out\n        /* \"#utility.yul\":8431:8551   */\n    tag_125:\n        /* \"#utility.yul\":8503:8526   */\n      tag_213\n        /* \"#utility.yul\":8520:8525   */\n      dup2\n        /* \"#utility.yul\":8503:8526   */\n      tag_124\n      jump\t// in\n    tag_213:\n        /* \"#utility.yul\":8496:8501   */\n      dup2\n        /* \"#utility.yul\":8493:8527   */\n      eq\n        /* \"#utility.yul\":8483:8545   */\n      tag_214\n      jumpi\n        /* \"#utility.yul\":8541:8542   */\n      0x00\n        /* \"#utility.yul\":8538:8539   */\n      dup1\n        /* \"#utility.yul\":8531:8543   */\n      revert\n        /* \"#utility.yul\":8483:8545   */\n    tag_214:\n        /* \"#utility.yul\":8431:8551   */\n      pop\n      jump\t// out\n        /* \"#utility.yul\":8557:8698   */\n    tag_126:\n        /* \"#utility.yul\":8613:8618   */\n      0x00\n        /* \"#utility.yul\":8644:8650   */\n      dup2\n        /* \"#utility.yul\":8638:8651   */\n      mload\n        /* \"#utility.yul\":8629:8651   */\n      swap1\n      pop\n        /* \"#utility.yul\":8660:8692   */\n      tag_216\n        /* \"#utility.yul\":8686:8691   */\n      dup2\n        /* \"#utility.yul\":8660:8692   */\n      tag_125\n      jump\t// in\n    tag_216:\n        /* \"#utility.yul\":8557:8698   */\n      swap3\n      swap2\n      pop\n      pop\n      jump\t// out\n        /* \"#utility.yul\":8704:8780   */\n    tag_127:\n        /* \"#utility.yul\":8740:8747   */\n      0x00\n        /* \"#utility.yul\":8769:8774   */\n      dup2\n        /* \"#utility.yul\":8758:8774   */\n      swap1\n      pop\n        /* \"#utility.yul\":8704:8780   */\n      swap2\n      swap1\n      pop\n      jump\t// out\n        /* \"#utility.yul\":8786:8906   */\n    tag_128:\n        /* \"#utility.yul\":8858:8881   */\n      tag_219\n        /* \"#utility.yul\":8875:8880   */\n      dup2\n        /* \"#utility.yul\":8858:8881   */\n      tag_127\n      jump\t// in\n    tag_219:\n        /* \"#utility.yul\":8851:8856   */\n      dup2\n        /* \"#utility.yul\":8848:8882   */\n      eq\n        /* \"#utility.yul\":8838:8900   */\n      tag_220\n      jumpi\n        /* \"#utility.yul\":8896:8897   */\n      0x00\n        /* \"#utility.yul\":8893:8894   */\n      dup1\n        /* \"#utility.yul\":8886:8898   */\n      revert\n        /* \"#utility.yul\":8838:8900   */\n    tag_220:\n        /* \"#utility.yul\":8786:8906   */\n      pop\n      jump\t// out\n        /* \"#utility.yul\":8912:9053   */\n    tag_129:\n        /* \"#utility.yul\":8968:8973   */\n      0x00\n        /* \"#utility.yul\":8999:9005   */\n      dup2\n        /* \"#utility.yul\":8993:9006   */\n      mload\n        /* \"#utility.yul\":8984:9006   */\n      swap1\n      pop\n        /* \"#utility.yul\":9015:9047   */\n      tag_222\n        /* \"#utility.yul\":9041:9046   */\n      dup2\n        /* \"#utility.yul\":9015:9047   */\n      tag_128\n      jump\t// in\n    tag_222:\n        /* \"#utility.yul\":8912:9053   */\n      swap3\n      swap2\n      pop\n      pop\n      jump\t// out\n        /* \"#utility.yul\":9059:9202   */\n    tag_130:\n        /* \"#utility.yul\":9116:9121   */\n      0x00\n        /* \"#utility.yul\":9147:9153   */\n      dup2\n        /* \"#utility.yul\":9141:9154   */\n      mload\n        /* \"#utility.yul\":9132:9154   */\n      swap1\n      pop\n        /* \"#utility.yul\":9163:9196   */\n      tag_224\n        /* \"#utility.yul\":9190:9195   */\n      dup2\n        /* \"#utility.yul\":9163:9196   */\n      tag_110\n      jump\t// in\n    tag_224:\n        /* \"#utility.yul\":9059:9202   */\n      swap3\n      swap2\n      pop\n      pop\n      jump\t// out\n        /* \"#utility.yul\":9208:10179   */\n    tag_90:\n        /* \"#utility.yul\":9311:9317   */\n      0x00\n        /* \"#utility.yul\":9319:9325   */\n      dup1\n        /* \"#utility.yul\":9327:9333   */\n      0x00\n        /* \"#utility.yul\":9335:9341   */\n      dup1\n        /* \"#utility.yul\":9343:9349   */\n      0x00\n        /* \"#utility.yul\":9392:9395   */\n      0xa0\n        /* \"#utility.yul\":9380:9389   */\n      dup7\n        /* \"#utility.yul\":9371:9378   */\n      dup9\n        /* \"#utility.yul\":9367:9390   */\n      sub\n        /* \"#utility.yul\":9363:9396   */\n      slt\n        /* \"#utility.yul\":9360:9480   */\n      iszero\n      tag_226\n      jumpi\n        /* \"#utility.yul\":9399:9478   */\n      tag_227\n      tag_101\n      jump\t// in\n    tag_227:\n        /* \"#utility.yul\":9360:9480   */\n    tag_226:\n        /* \"#utility.yul\":9519:9520   */\n      0x00\n        /* \"#utility.yul\":9544:9607   */\n      tag_228\n        /* \"#utility.yul\":9599:9606   */\n      dup9\n        /* \"#utility.yul\":9590:9596   */\n      dup3\n        /* \"#utility.yul\":9579:9588   */\n      dup10\n        /* \"#utility.yul\":9575:9597   */\n      add\n        /* \"#utility.yul\":9544:9607   */\n      tag_126\n      jump\t// in\n    tag_228:\n        /* \"#utility.yul\":9534:9607   */\n      swap6\n      pop\n        /* \"#utility.yul\":9490:9617   */\n      pop\n        /* \"#utility.yul\":9656:9658   */\n      0x20\n        /* \"#utility.yul\":9682:9745   */\n      tag_229\n        /* \"#utility.yul\":9737:9744   */\n      dup9\n        /* \"#utility.yul\":9728:9734   */\n      dup3\n        /* \"#utility.yul\":9717:9726   */\n      dup10\n        /* \"#utility.yul\":9713:9735   */\n      add\n        /* \"#utility.yul\":9682:9745   */\n      tag_129\n      jump\t// in\n    tag_229:\n        /* \"#utility.yul\":9672:9745   */\n      swap5\n      pop\n        /* \"#utility.yul\":9627:9755   */\n      pop\n        /* \"#utility.yul\":9794:9796   */\n      0x40\n        /* \"#utility.yul\":9820:9884   */\n      tag_230\n        /* \"#utility.yul\":9876:9883   */\n      dup9\n        /* \"#utility.yul\":9867:9873   */\n      dup3\n        /* \"#utility.yul\":9856:9865   */\n      dup10\n        /* \"#utility.yul\":9852:9874   */\n      add\n        /* \"#utility.yul\":9820:9884   */\n      tag_130\n      jump\t// in\n    tag_230:\n        /* \"#utility.yul\":9810:9884   */\n      swap4\n      pop\n        /* \"#utility.yul\":9765:9894   */\n      pop\n        /* \"#utility.yul\":9933:9935   */\n      0x60\n        /* \"#utility.yul\":9959:10023   */\n      tag_231\n        /* \"#utility.yul\":10015:10022   */\n      dup9\n        /* \"#utility.yul\":10006:10012   */\n      dup3\n        /* \"#utility.yul\":9995:10004   */\n      dup10\n        /* \"#utility.yul\":9991:10013   */\n      add\n        /* \"#utility.yul\":9959:10023   */\n      tag_130\n      jump\t// in\n    tag_231:\n        /* \"#utility.yul\":9949:10023   */\n      swap3\n      pop\n        /* \"#utility.yul\":9904:10033   */\n      pop\n        /* \"#utility.yul\":10072:10075   */\n      0x80\n        /* \"#utility.yul\":10099:10162   */\n      tag_232\n        /* \"#utility.yul\":10154:10161   */\n      dup9\n        /* \"#utility.yul\":10145:10151   */\n      dup3\n        /* \"#utility.yul\":10134:10143   */\n      dup10\n        /* \"#utility.yul\":10130:10152   */\n      add\n        /* \"#utility.yul\":10099:10162   */\n      tag_126\n      jump\t// in\n    tag_232:\n        /* \"#utility.yul\":10089:10162   */\n      swap2\n      pop\n        /* \"#utility.yul\":10043:10172   */\n      pop\n        /* \"#utility.yul\":9208:10179   */\n      swap3\n      swap6\n      pop\n      swap3\n      swap6\n      swap1\n      swap4\n      pop\n      jump\t// out\n        /* \"#utility.yul\":10185:10741   */\n    tag_92:\n        /* \"#utility.yul\":10224:10231   */\n      0x00\n        /* \"#utility.yul\":10247:10266   */\n      tag_234\n        /* \"#utility.yul\":10264:10265   */\n      dup3\n        /* \"#utility.yul\":10247:10266   */\n      tag_127\n      jump\t// in\n    tag_234:\n        /* \"#utility.yul\":10242:10266   */\n      swap2\n      pop\n        /* \"#utility.yul\":10280:10299   */\n      tag_235\n        /* \"#utility.yul\":10297:10298   */\n      dup4\n        /* \"#utility.yul\":10280:10299   */\n      tag_127\n      jump\t// in\n    tag_235:\n        /* \"#utility.yul\":10275:10299   */\n      swap3\n      pop\n        /* \"#utility.yul\":10334:10335   */\n      dup3\n        /* \"#utility.yul\":10331:10332   */\n      dup3\n        /* \"#utility.yul\":10327:10336   */\n      mul\n        /* \"#utility.yul\":10356:10385   */\n      tag_236\n        /* \"#utility.yul\":10373:10384   */\n      dup2\n        /* \"#utility.yul\":10356:10385   */\n      tag_127\n      jump\t// in\n    tag_236:\n        /* \"#utility.yul\":10345:10385   */\n      swap2\n      pop\n        /* \"#utility.yul\":10443:10509   */\n      0x8000000000000000000000000000000000000000000000000000000000000000\n        /* \"#utility.yul\":10440:10441   */\n      dup5\n        /* \"#utility.yul\":10437:10510   */\n      eq\n        /* \"#utility.yul\":10433:10434   */\n      0x00\n        /* \"#utility.yul\":10430:10431   */\n      dup5\n        /* \"#utility.yul\":10426:10435   */\n      slt\n        /* \"#utility.yul\":10422:10511   */\n      and\n        /* \"#utility.yul\":10419:10534   */\n      iszero\n      tag_237\n      jumpi\n        /* \"#utility.yul\":10514:10532   */\n      tag_238\n      tag_115\n      jump\t// in\n    tag_238:\n        /* \"#utility.yul\":10419:10534   */\n    tag_237:\n        /* \"#utility.yul\":10684:10685   */\n      dup3\n        /* \"#utility.yul\":10675:10682   */\n      dup3\n        /* \"#utility.yul\":10670:10686   */\n      sdiv\n        /* \"#utility.yul\":10667:10668   */\n      dup5\n        /* \"#utility.yul\":10664:10687   */\n      eq\n        /* \"#utility.yul\":10644:10645   */\n      dup4\n        /* \"#utility.yul\":10637:10646   */\n      iszero\n        /* \"#utility.yul\":10617:10701   */\n      or\n        /* \"#utility.yul\":10594:10734   */\n      tag_239\n      jumpi\n        /* \"#utility.yul\":10714:10732   */\n      tag_240\n      tag_115\n      jump\t// in\n    tag_240:\n        /* \"#utility.yul\":10594:10734   */\n    tag_239:\n        /* \"#utility.yul\":10232:10741   */\n      pop\n        /* \"#utility.yul\":10185:10741   */\n      swap3\n      swap2\n      pop\n      pop\n      jump\t// out\n\n    auxdata: 0xa2646970667358221220b276064a3b21a324647f20a2cedb13985ae3136f54fac948de68992ef9914a1864736f6c63430008190033\n}\n",
				"bytecode": {
					"linkReferences": {},
					"object": "6080604052348015600e575f80fd5b503360025f6101000a81548173ffffffffffffffffffffffffffffffffffffffff021916908373ffffffffffffffffffffffffffffffffffffffff160217905550610c7f8061005c5f395ff3fe608060405260043610610058575f3560e01c80633ccfd60b146100715780633e47d6f3146100875780638da5cb5b146100c3578063b60d4288146100ed578063dc0d3dff146100f7578063dc992aa01461013357610067565b366100675761006561015d565b005b61006f61015d565b005b34801561007c575f80fd5b50610085610264565b005b348015610092575f80fd5b506100ad60048036038101906100a891906106f6565b610499565b6040516100ba9190610739565b60405180910390f35b3480156100ce575f80fd5b506100d76104ae565b6040516100e49190610761565b60405180910390f35b6100f561015d565b005b348015610102575f80fd5b5061011d600480360381019061011891906107a4565b6104d3565b60405161012a9190610761565b60405180910390f35b34801561013e575f80fd5b5061014761050d565b6040516101549190610739565b60405180910390f35b674563918244f4000061016f34610519565b10156101b0576040517f08c379a00000000000000000000000000000000000000000000000000000000081526004016101a790610829565b60405180910390fd5b5f33908060018154018082558091505060019003905f5260205f20015f9091909190916101000a81548173ffffffffffffffffffffffffffffffffffffffff021916908373ffffffffffffffffffffffffffffffffffffffff1602179055503460015f3373ffffffffffffffffffffffffffffffffffffffff1673ffffffffffffffffffffffffffffffffffffffff1681526020019081526020015f205f82825461025b9190610874565b92505081905550565b60025f9054906101000a900473ffffffffffffffffffffffffffffffffffffffff1673ffffffffffffffffffffffffffffffffffffffff163373ffffffffffffffffffffffffffffffffffffffff16146102f3576040517f08c379a00000000000000000000000000000000000000000000000000000000081526004016102ea90610917565b60405180910390fd5b5f5b5f8054905081101561038f575f80828154811061031557610314610935565b5b905f5260205f20015f9054906101000a900473ffffffffffffffffffffffffffffffffffffffff1690505f60015f8373ffffffffffffffffffffffffffffffffffffffff1673ffffffffffffffffffffffffffffffffffffffff1681526020019081526020015f20819055505080806001019150506102f5565b505f67ffffffffffffffff8111156103aa576103a9610962565b5b6040519080825280602002602001820160405280156103d85781602001602082028036833780820191505090505b505f90805190602001906103ed9291906105f6565b505f3373ffffffffffffffffffffffffffffffffffffffff1647604051610413906109bc565b5f6040518083038185875af1925050503d805f811461044d576040519150601f19603f3d011682016040523d82523d5f602084013e610452565b606091505b5050905080610496576040517f08c379a000000000000000000000000000000000000000000000000000000000815260040161048d90610a1a565b60405180910390fd5b50565b6001602052805f5260405f205f915090505481565b60025f9054906101000a900473ffffffffffffffffffffffffffffffffffffffff1681565b5f81815481106104e1575f80fd5b905f5260205f20015f915054906101000a900473ffffffffffffffffffffffffffffffffffffffff1681565b674563918244f4000081565b5f80610523610551565b90505f670de0b6b3a7640000848361053b9190610a38565b6105459190610aa6565b90508092505050919050565b5f8073694aa1769357215de4fac081bf1f309adc32530690505f8173ffffffffffffffffffffffffffffffffffffffff1663feaf968c6040518163ffffffff1660e01b815260040160a060405180830381865afa1580156105b4573d5f803e3d5ffd5b505050506040513d601f19601f820116820180604052508101906105d89190610b5c565b5050509150506402540be400816105ef9190610bd3565b9250505090565b828054828255905f5260205f2090810192821561066c579160200282015b8281111561066b578251825f6101000a81548173ffffffffffffffffffffffffffffffffffffffff021916908373ffffffffffffffffffffffffffffffffffffffff16021790555091602001919060010190610614565b5b509050610679919061067d565b5090565b5b80821115610694575f815f90555060010161067e565b5090565b5f80fd5b5f73ffffffffffffffffffffffffffffffffffffffff82169050919050565b5f6106c58261069c565b9050919050565b6106d5816106bb565b81146106df575f80fd5b50565b5f813590506106f0816106cc565b92915050565b5f6020828403121561070b5761070a610698565b5b5f610718848285016106e2565b91505092915050565b5f819050919050565b61073381610721565b82525050565b5f60208201905061074c5f83018461072a565b92915050565b61075b816106bb565b82525050565b5f6020820190506107745f830184610752565b92915050565b61078381610721565b811461078d575f80fd5b50565b5f8135905061079e8161077a565b92915050565b5f602082840312156107b9576107b8610698565b5b5f6107c684828501610790565b91505092915050565b5f82825260208201905092915050565b7f4e6f7420656e6f756768204554482062616279210000000000000000000000005f82015250565b5f6108136014836107cf565b915061081e826107df565b602082019050919050565b5f6020820190508181035f83015261084081610807565b9050919050565b7f4e487b71000000000000000000000000000000000000000000000000000000005f52601160045260245ffd5b5f61087e82610721565b915061088983610721565b92508282019050808211156108a1576108a0610847565b5b92915050565b7f4f6e6c7920636f6e7472616374206f776e65722063616e20772f647261772c205f8201527f4455444521000000000000000000000000000000000000000000000000000000602082015250565b5f6109016025836107cf565b915061090c826108a7565b604082019050919050565b5f6020820190508181035f83015261092e816108f5565b9050919050565b7f4e487b71000000000000000000000000000000000000000000000000000000005f52603260045260245ffd5b7f4e487b71000000000000000000000000000000000000000000000000000000005f52604160045260245ffd5b5f81905092915050565b50565b5f6109a75f8361098f565b91506109b282610999565b5f82019050919050565b5f6109c68261099c565b9150819050919050565b7f43616c6c206661696c65640000000000000000000000000000000000000000005f82015250565b5f610a04600b836107cf565b9150610a0f826109d0565b602082019050919050565b5f6020820190508181035f830152610a31816109f8565b9050919050565b5f610a4282610721565b9150610a4d83610721565b9250828202610a5b81610721565b91508282048414831517610a7257610a71610847565b5b5092915050565b7f4e487b71000000000000000000000000000000000000000000000000000000005f52601260045260245ffd5b5f610ab082610721565b9150610abb83610721565b925082610acb57610aca610a79565b5b828204905092915050565b5f69ffffffffffffffffffff82169050919050565b610af481610ad6565b8114610afe575f80fd5b50565b5f81519050610b0f81610aeb565b92915050565b5f819050919050565b610b2781610b15565b8114610b31575f80fd5b50565b5f81519050610b4281610b1e565b92915050565b5f81519050610b568161077a565b92915050565b5f805f805f60a08688031215610b7557610b74610698565b5b5f610b8288828901610b01565b9550506020610b9388828901610b34565b9450506040610ba488828901610b48565b9350506060610bb588828901610b48565b9250506080610bc688828901610b01565b9150509295509295909350565b5f610bdd82610b15565b9150610be883610b15565b9250828202610bf681610b15565b91507f800000000000000000000000000000000000000000000000000000000000000084145f84121615610c2d57610c2c610847565b5b8282058414831517610c4257610c41610847565b5b509291505056fea2646970667358221220b276064a3b21a324647f20a2cedb13985ae3136f54fac948de68992ef9914a1864736f6c63430008190033",
					"opcodes": "PUSH1 0x80 PUSH1 0x40 MSTORE CALLVALUE DUP1 ISZERO PUSH1 0xE JUMPI PUSH0 DUP1 REVERT JUMPDEST POP CALLER PUSH1 0x2 PUSH0 PUSH2 0x100 EXP DUP2 SLOAD DUP2 PUSH20 0xFFFFFFFFFFFFFFFFFFFFFFFFFFFFFFFFFFFFFFFF MUL NOT AND SWAP1 DUP4 PUSH20 0xFFFFFFFFFFFFFFFFFFFFFFFFFFFFFFFFFFFFFFFF AND MUL OR SWAP1 SSTORE POP PUSH2 0xC7F DUP1 PUSH2 0x5C PUSH0 CODECOPY PUSH0 RETURN INVALID PUSH1 0x80 PUSH1 0x40 MSTORE PUSH1 0x4 CALLDATASIZE LT PUSH2 0x58 JUMPI PUSH0 CALLDATALOAD PUSH1 0xE0 SHR DUP1 PUSH4 0x3CCFD60B EQ PUSH2 0x71 JUMPI DUP1 PUSH4 0x3E47D6F3 EQ PUSH2 0x87 JUMPI DUP1 PUSH4 0x8DA5CB5B EQ PUSH2 0xC3 JUMPI DUP1 PUSH4 0xB60D4288 EQ PUSH2 0xED JUMPI DUP1 PUSH4 0xDC0D3DFF EQ PUSH2 0xF7 JUMPI DUP1 PUSH4 0xDC992AA0 EQ PUSH2 0x133 JUMPI PUSH2 0x67 JUMP JUMPDEST CALLDATASIZE PUSH2 0x67 JUMPI PUSH2 0x65 PUSH2 0x15D JUMP JUMPDEST STOP JUMPDEST PUSH2 0x6F PUSH2 0x15D JUMP JUMPDEST STOP JUMPDEST CALLVALUE DUP1 ISZERO PUSH2 0x7C JUMPI PUSH0 DUP1 REVERT JUMPDEST POP PUSH2 0x85 PUSH2 0x264 JUMP JUMPDEST STOP JUMPDEST CALLVALUE DUP1 ISZERO PUSH2 0x92 JUMPI PUSH0 DUP1 REVERT JUMPDEST POP PUSH2 0xAD PUSH1 0x4 DUP1 CALLDATASIZE SUB DUP2 ADD SWAP1 PUSH2 0xA8 SWAP2 SWAP1 PUSH2 0x6F6 JUMP JUMPDEST PUSH2 0x499 JUMP JUMPDEST PUSH1 0x40 MLOAD PUSH2 0xBA SWAP2 SWAP1 PUSH2 0x739 JUMP JUMPDEST PUSH1 0x40 MLOAD DUP1 SWAP2 SUB SWAP1 RETURN JUMPDEST CALLVALUE DUP1 ISZERO PUSH2 0xCE JUMPI PUSH0 DUP1 REVERT JUMPDEST POP PUSH2 0xD7 PUSH2 0x4AE JUMP JUMPDEST PUSH1 0x40 MLOAD PUSH2 0xE4 SWAP2 SWAP1 PUSH2 0x761 JUMP JUMPDEST PUSH1 0x40 MLOAD DUP1 SWAP2 SUB SWAP1 RETURN JUMPDEST PUSH2 0xF5 PUSH2 0x15D JUMP JUMPDEST STOP JUMPDEST CALLVALUE DUP1 ISZERO PUSH2 0x102 JUMPI PUSH0 DUP1 REVERT JUMPDEST POP PUSH2 0x11D PUSH1 0x4 DUP1 CALLDATASIZE SUB DUP2 ADD SWAP1 PUSH2 0x118 SWAP2 SWAP1 PUSH2 0x7A4 JUMP JUMPDEST PUSH2 0x4D3 JUMP JUMPDEST PUSH1 0x40 MLOAD PUSH2 0x12A SWAP2 SWAP1 PUSH2 0x761 JUMP JUMPDEST PUSH1 0x40 MLOAD DUP1 SWAP2 SUB SWAP1 RETURN JUMPDEST CALLVALUE DUP1 ISZERO PUSH2 0x13E JUMPI PUSH0 DUP1 REVERT JUMPDEST POP PUSH2 0x147 PUSH2 0x50D JUMP JUMPDEST PUSH1 0x40 MLOAD PUSH2 0x154 SWAP2 SWAP1 PUSH2 0x739 JUMP JUMPDEST PUSH1 0x40 MLOAD DUP1 SWAP2 SUB SWAP1 RETURN JUMPDEST PUSH8 0x4563918244F40000 PUSH2 0x16F CALLVALUE PUSH2 0x519 JUMP JUMPDEST LT ISZERO PUSH2 0x1B0 JUMPI PUSH1 0x40 MLOAD PUSH32 0x8C379A000000000000000000000000000000000000000000000000000000000 DUP2 MSTORE PUSH1 0x4 ADD PUSH2 0x1A7 SWAP1 PUSH2 0x829 JUMP JUMPDEST PUSH1 0x40 MLOAD DUP1 SWAP2 SUB SWAP1 REVERT JUMPDEST PUSH0 CALLER SWAP1 DUP1 PUSH1 0x1 DUP2 SLOAD ADD DUP1 DUP3 SSTORE DUP1 SWAP2 POP POP PUSH1 0x1 SWAP1 SUB SWAP1 PUSH0 MSTORE PUSH1 0x20 PUSH0 KECCAK256 ADD PUSH0 SWAP1 SWAP2 SWAP1 SWAP2 SWAP1 SWAP2 PUSH2 0x100 EXP DUP2 SLOAD DUP2 PUSH20 0xFFFFFFFFFFFFFFFFFFFFFFFFFFFFFFFFFFFFFFFF MUL NOT AND SWAP1 DUP4 PUSH20 0xFFFFFFFFFFFFFFFFFFFFFFFFFFFFFFFFFFFFFFFF AND MUL OR SWAP1 SSTORE POP CALLVALUE PUSH1 0x1 PUSH0 CALLER PUSH20 0xFFFFFFFFFFFFFFFFFFFFFFFFFFFFFFFFFFFFFFFF AND PUSH20 0xFFFFFFFFFFFFFFFFFFFFFFFFFFFFFFFFFFFFFFFF AND DUP2 MSTORE PUSH1 0x20 ADD SWAP1 DUP2 MSTORE PUSH1 0x20 ADD PUSH0 KECCAK256 PUSH0 DUP3 DUP3 SLOAD PUSH2 0x25B SWAP2 SWAP1 PUSH2 0x874 JUMP JUMPDEST SWAP3 POP POP DUP2 SWAP1 SSTORE POP JUMP JUMPDEST PUSH1 0x2 PUSH0 SWAP1 SLOAD SWAP1 PUSH2 0x100 EXP SWAP1 DIV PUSH20 0xFFFFFFFFFFFFFFFFFFFFFFFFFFFFFFFFFFFFFFFF AND PUSH20 0xFFFFFFFFFFFFFFFFFFFFFFFFFFFFFFFFFFFFFFFF AND CALLER PUSH20 0xFFFFFFFFFFFFFFFFFFFFFFFFFFFFFFFFFFFFFFFF AND EQ PUSH2 0x2F3 JUMPI PUSH1 0x40 MLOAD PUSH32 0x8C379A000000000000000000000000000000000000000000000000000000000 DUP2 MSTORE PUSH1 0x4 ADD PUSH2 0x2EA SWAP1 PUSH2 0x917 JUMP JUMPDEST PUSH1 0x40 MLOAD DUP1 SWAP2 SUB SWAP1 REVERT JUMPDEST PUSH0 JUMPDEST PUSH0 DUP1 SLOAD SWAP1 POP DUP2 LT ISZERO PUSH2 0x38F JUMPI PUSH0 DUP1 DUP3 DUP2 SLOAD DUP2 LT PUSH2 0x315 JUMPI PUSH2 0x314 PUSH2 0x935 JUMP JUMPDEST JUMPDEST SWAP1 PUSH0 MSTORE PUSH1 0x20 PUSH0 KECCAK256 ADD PUSH0 SWAP1 SLOAD SWAP1 PUSH2 0x100 EXP SWAP1 DIV PUSH20 0xFFFFFFFFFFFFFFFFFFFFFFFFFFFFFFFFFFFFFFFF AND SWAP1 POP PUSH0 PUSH1 0x1 PUSH0 DUP4 PUSH20 0xFFFFFFFFFFFFFFFFFFFFFFFFFFFFFFFFFFFFFFFF AND PUSH20 0xFFFFFFFFFFFFFFFFFFFFFFFFFFFFFFFFFFFFFFFF AND DUP2 MSTORE PUSH1 0x20 ADD SWAP1 DUP2 MSTORE PUSH1 0x20 ADD PUSH0 KECCAK256 DUP2 SWAP1 SSTORE POP POP DUP1 DUP1 PUSH1 0x1 ADD SWAP2 POP POP PUSH2 0x2F5 JUMP JUMPDEST POP PUSH0 PUSH8 0xFFFFFFFFFFFFFFFF DUP2 GT ISZERO PUSH2 0x3AA JUMPI PUSH2 0x3A9 PUSH2 0x962 JUMP JUMPDEST JUMPDEST PUSH1 0x40 MLOAD SWAP1 DUP1 DUP3 MSTORE DUP1 PUSH1 0x20 MUL PUSH1 0x20 ADD DUP3 ADD PUSH1 0x40 MSTORE DUP1 ISZERO PUSH2 0x3D8 JUMPI DUP2 PUSH1 0x20 ADD PUSH1 0x20 DUP3 MUL DUP1 CALLDATASIZE DUP4 CALLDATACOPY DUP1 DUP3 ADD SWAP2 POP POP SWAP1 POP JUMPDEST POP PUSH0 SWAP1 DUP1 MLOAD SWAP1 PUSH1 0x20 ADD SWAP1 PUSH2 0x3ED SWAP3 SWAP2 SWAP1 PUSH2 0x5F6 JUMP JUMPDEST POP PUSH0 CALLER PUSH20 0xFFFFFFFFFFFFFFFFFFFFFFFFFFFFFFFFFFFFFFFF AND SELFBALANCE PUSH1 0x40 MLOAD PUSH2 0x413 SWAP1 PUSH2 0x9BC JUMP JUMPDEST PUSH0 PUSH1 0x40 MLOAD DUP1 DUP4 SUB DUP2 DUP6 DUP8 GAS CALL SWAP3 POP POP POP RETURNDATASIZE DUP1 PUSH0 DUP2 EQ PUSH2 0x44D JUMPI PUSH1 0x40 MLOAD SWAP2 POP PUSH1 0x1F NOT PUSH1 0x3F RETURNDATASIZE ADD AND DUP3 ADD PUSH1 0x40 MSTORE RETURNDATASIZE DUP3 MSTORE RETURNDATASIZE PUSH0 PUSH1 0x20 DUP5 ADD RETURNDATACOPY PUSH2 0x452 JUMP JUMPDEST PUSH1 0x60 SWAP2 POP JUMPDEST POP POP SWAP1 POP DUP1 PUSH2 0x496 JUMPI PUSH1 0x40 MLOAD PUSH32 0x8C379A000000000000000000000000000000000000000000000000000000000 DUP2 MSTORE PUSH1 0x4 ADD PUSH2 0x48D SWAP1 PUSH2 0xA1A JUMP JUMPDEST PUSH1 0x40 MLOAD DUP1 SWAP2 SUB SWAP1 REVERT JUMPDEST POP JUMP JUMPDEST PUSH1 0x1 PUSH1 0x20 MSTORE DUP1 PUSH0 MSTORE PUSH1 0x40 PUSH0 KECCAK256 PUSH0 SWAP2 POP SWAP1 POP SLOAD DUP2 JUMP JUMPDEST PUSH1 0x2 PUSH0 SWAP1 SLOAD SWAP1 PUSH2 0x100 EXP SWAP1 DIV PUSH20 0xFFFFFFFFFFFFFFFFFFFFFFFFFFFFFFFFFFFFFFFF AND DUP2 JUMP JUMPDEST PUSH0 DUP2 DUP2 SLOAD DUP2 LT PUSH2 0x4E1 JUMPI PUSH0 DUP1 REVERT JUMPDEST SWAP1 PUSH0 MSTORE PUSH1 0x20 PUSH0 KECCAK256 ADD PUSH0 SWAP2 POP SLOAD SWAP1 PUSH2 0x100 EXP SWAP1 DIV PUSH20 0xFFFFFFFFFFFFFFFFFFFFFFFFFFFFFFFFFFFFFFFF AND DUP2 JUMP JUMPDEST PUSH8 0x4563918244F40000 DUP2 JUMP JUMPDEST PUSH0 DUP1 PUSH2 0x523 PUSH2 0x551 JUMP JUMPDEST SWAP1 POP PUSH0 PUSH8 0xDE0B6B3A7640000 DUP5 DUP4 PUSH2 0x53B SWAP2 SWAP1 PUSH2 0xA38 JUMP JUMPDEST PUSH2 0x545 SWAP2 SWAP1 PUSH2 0xAA6 JUMP JUMPDEST SWAP1 POP DUP1 SWAP3 POP POP POP SWAP2 SWAP1 POP JUMP JUMPDEST PUSH0 DUP1 PUSH20 0x694AA1769357215DE4FAC081BF1F309ADC325306 SWAP1 POP PUSH0 DUP2 PUSH20 0xFFFFFFFFFFFFFFFFFFFFFFFFFFFFFFFFFFFFFFFF AND PUSH4 0xFEAF968C PUSH1 0x40 MLOAD DUP2 PUSH4 0xFFFFFFFF AND PUSH1 0xE0 SHL DUP2 MSTORE PUSH1 0x4 ADD PUSH1 0xA0 PUSH1 0x40 MLOAD DUP1 DUP4 SUB DUP2 DUP7 GAS STATICCALL ISZERO DUP1 ISZERO PUSH2 0x5B4 JUMPI RETURNDATASIZE PUSH0 DUP1 RETURNDATACOPY RETURNDATASIZE PUSH0 REVERT JUMPDEST POP POP POP POP PUSH1 0x40 MLOAD RETURNDATASIZE PUSH1 0x1F NOT PUSH1 0x1F DUP3 ADD AND DUP3 ADD DUP1 PUSH1 0x40 MSTORE POP DUP2 ADD SWAP1 PUSH2 0x5D8 SWAP2 SWAP1 PUSH2 0xB5C JUMP JUMPDEST POP POP POP SWAP2 POP POP PUSH5 0x2540BE400 DUP2 PUSH2 0x5EF SWAP2 SWAP1 PUSH2 0xBD3 JUMP JUMPDEST SWAP3 POP POP POP SWAP1 JUMP JUMPDEST DUP3 DUP1 SLOAD DUP3 DUP3 SSTORE SWAP1 PUSH0 MSTORE PUSH1 0x20 PUSH0 KECCAK256 SWAP1 DUP2 ADD SWAP3 DUP3 ISZERO PUSH2 0x66C JUMPI SWAP2 PUSH1 0x20 MUL DUP3 ADD JUMPDEST DUP3 DUP2 GT ISZERO PUSH2 0x66B JUMPI DUP3 MLOAD DUP3 PUSH0 PUSH2 0x100 EXP DUP2 SLOAD DUP2 PUSH20 0xFFFFFFFFFFFFFFFFFFFFFFFFFFFFFFFFFFFFFFFF MUL NOT AND SWAP1 DUP4 PUSH20 0xFFFFFFFFFFFFFFFFFFFFFFFFFFFFFFFFFFFFFFFF AND MUL OR SWAP1 SSTORE POP SWAP2 PUSH1 0x20 ADD SWAP2 SWAP1 PUSH1 0x1 ADD SWAP1 PUSH2 0x614 JUMP JUMPDEST JUMPDEST POP SWAP1 POP PUSH2 0x679 SWAP2 SWAP1 PUSH2 0x67D JUMP JUMPDEST POP SWAP1 JUMP JUMPDEST JUMPDEST DUP1 DUP3 GT ISZERO PUSH2 0x694 JUMPI PUSH0 DUP2 PUSH0 SWAP1 SSTORE POP PUSH1 0x1 ADD PUSH2 0x67E JUMP JUMPDEST POP SWAP1 JUMP JUMPDEST PUSH0 DUP1 REVERT JUMPDEST PUSH0 PUSH20 0xFFFFFFFFFFFFFFFFFFFFFFFFFFFFFFFFFFFFFFFF DUP3 AND SWAP1 POP SWAP2 SWAP1 POP JUMP JUMPDEST PUSH0 PUSH2 0x6C5 DUP3 PUSH2 0x69C JUMP JUMPDEST SWAP1 POP SWAP2 SWAP1 POP JUMP JUMPDEST PUSH2 0x6D5 DUP2 PUSH2 0x6BB JUMP JUMPDEST DUP2 EQ PUSH2 0x6DF JUMPI PUSH0 DUP1 REVERT JUMPDEST POP JUMP JUMPDEST PUSH0 DUP2 CALLDATALOAD SWAP1 POP PUSH2 0x6F0 DUP2 PUSH2 0x6CC JUMP JUMPDEST SWAP3 SWAP2 POP POP JUMP JUMPDEST PUSH0 PUSH1 0x20 DUP3 DUP5 SUB SLT ISZERO PUSH2 0x70B JUMPI PUSH2 0x70A PUSH2 0x698 JUMP JUMPDEST JUMPDEST PUSH0 PUSH2 0x718 DUP5 DUP3 DUP6 ADD PUSH2 0x6E2 JUMP JUMPDEST SWAP2 POP POP SWAP3 SWAP2 POP POP JUMP JUMPDEST PUSH0 DUP2 SWAP1 POP SWAP2 SWAP1 POP JUMP JUMPDEST PUSH2 0x733 DUP2 PUSH2 0x721 JUMP JUMPDEST DUP3 MSTORE POP POP JUMP JUMPDEST PUSH0 PUSH1 0x20 DUP3 ADD SWAP1 POP PUSH2 0x74C PUSH0 DUP4 ADD DUP5 PUSH2 0x72A JUMP JUMPDEST SWAP3 SWAP2 POP POP JUMP JUMPDEST PUSH2 0x75B DUP2 PUSH2 0x6BB JUMP JUMPDEST DUP3 MSTORE POP POP JUMP JUMPDEST PUSH0 PUSH1 0x20 DUP3 ADD SWAP1 POP PUSH2 0x774 PUSH0 DUP4 ADD DUP5 PUSH2 0x752 JUMP JUMPDEST SWAP3 SWAP2 POP POP JUMP JUMPDEST PUSH2 0x783 DUP2 PUSH2 0x721 JUMP JUMPDEST DUP2 EQ PUSH2 0x78D JUMPI PUSH0 DUP1 REVERT JUMPDEST POP JUMP JUMPDEST PUSH0 DUP2 CALLDATALOAD SWAP1 POP PUSH2 0x79E DUP2 PUSH2 0x77A JUMP JUMPDEST SWAP3 SWAP2 POP POP JUMP JUMPDEST PUSH0 PUSH1 0x20 DUP3 DUP5 SUB SLT ISZERO PUSH2 0x7B9 JUMPI PUSH2 0x7B8 PUSH2 0x698 JUMP JUMPDEST JUMPDEST PUSH0 PUSH2 0x7C6 DUP5 DUP3 DUP6 ADD PUSH2 0x790 JUMP JUMPDEST SWAP2 POP POP SWAP3 SWAP2 POP POP JUMP JUMPDEST PUSH0 DUP3 DUP3 MSTORE PUSH1 0x20 DUP3 ADD SWAP1 POP SWAP3 SWAP2 POP POP JUMP JUMPDEST PUSH32 0x4E6F7420656E6F75676820455448206261627921000000000000000000000000 PUSH0 DUP3 ADD MSTORE POP JUMP JUMPDEST PUSH0 PUSH2 0x813 PUSH1 0x14 DUP4 PUSH2 0x7CF JUMP JUMPDEST SWAP2 POP PUSH2 0x81E DUP3 PUSH2 0x7DF JUMP JUMPDEST PUSH1 0x20 DUP3 ADD SWAP1 POP SWAP2 SWAP1 POP JUMP JUMPDEST PUSH0 PUSH1 0x20 DUP3 ADD SWAP1 POP DUP2 DUP2 SUB PUSH0 DUP4 ADD MSTORE PUSH2 0x840 DUP2 PUSH2 0x807 JUMP JUMPDEST SWAP1 POP SWAP2 SWAP1 POP JUMP JUMPDEST PUSH32 0x4E487B7100000000000000000000000000000000000000000000000000000000 PUSH0 MSTORE PUSH1 0x11 PUSH1 0x4 MSTORE PUSH1 0x24 PUSH0 REVERT JUMPDEST PUSH0 PUSH2 0x87E DUP3 PUSH2 0x721 JUMP JUMPDEST SWAP2 POP PUSH2 0x889 DUP4 PUSH2 0x721 JUMP JUMPDEST SWAP3 POP DUP3 DUP3 ADD SWAP1 POP DUP1 DUP3 GT ISZERO PUSH2 0x8A1 JUMPI PUSH2 0x8A0 PUSH2 0x847 JUMP JUMPDEST JUMPDEST SWAP3 SWAP2 POP POP JUMP JUMPDEST PUSH32 0x4F6E6C7920636F6E7472616374206F776E65722063616E20772F647261772C20 PUSH0 DUP3 ADD MSTORE PUSH32 0x4455444521000000000000000000000000000000000000000000000000000000 PUSH1 0x20 DUP3 ADD MSTORE POP JUMP JUMPDEST PUSH0 PUSH2 0x901 PUSH1 0x25 DUP4 PUSH2 0x7CF JUMP JUMPDEST SWAP2 POP PUSH2 0x90C DUP3 PUSH2 0x8A7 JUMP JUMPDEST PUSH1 0x40 DUP3 ADD SWAP1 POP SWAP2 SWAP1 POP JUMP JUMPDEST PUSH0 PUSH1 0x20 DUP3 ADD SWAP1 POP DUP2 DUP2 SUB PUSH0 DUP4 ADD MSTORE PUSH2 0x92E DUP2 PUSH2 0x8F5 JUMP JUMPDEST SWAP1 POP SWAP2 SWAP1 POP JUMP JUMPDEST PUSH32 0x4E487B7100000000000000000000000000000000000000000000000000000000 PUSH0 MSTORE PUSH1 0x32 PUSH1 0x4 MSTORE PUSH1 0x24 PUSH0 REVERT JUMPDEST PUSH32 0x4E487B7100000000000000000000000000000000000000000000000000000000 PUSH0 MSTORE PUSH1 0x41 PUSH1 0x4 MSTORE PUSH1 0x24 PUSH0 REVERT JUMPDEST PUSH0 DUP2 SWAP1 POP SWAP3 SWAP2 POP POP JUMP JUMPDEST POP JUMP JUMPDEST PUSH0 PUSH2 0x9A7 PUSH0 DUP4 PUSH2 0x98F JUMP JUMPDEST SWAP2 POP PUSH2 0x9B2 DUP3 PUSH2 0x999 JUMP JUMPDEST PUSH0 DUP3 ADD SWAP1 POP SWAP2 SWAP1 POP JUMP JUMPDEST PUSH0 PUSH2 0x9C6 DUP3 PUSH2 0x99C JUMP JUMPDEST SWAP2 POP DUP2 SWAP1 POP SWAP2 SWAP1 POP JUMP JUMPDEST PUSH32 0x43616C6C206661696C6564000000000000000000000000000000000000000000 PUSH0 DUP3 ADD MSTORE POP JUMP JUMPDEST PUSH0 PUSH2 0xA04 PUSH1 0xB DUP4 PUSH2 0x7CF JUMP JUMPDEST SWAP2 POP PUSH2 0xA0F DUP3 PUSH2 0x9D0 JUMP JUMPDEST PUSH1 0x20 DUP3 ADD SWAP1 POP SWAP2 SWAP1 POP JUMP JUMPDEST PUSH0 PUSH1 0x20 DUP3 ADD SWAP1 POP DUP2 DUP2 SUB PUSH0 DUP4 ADD MSTORE PUSH2 0xA31 DUP2 PUSH2 0x9F8 JUMP JUMPDEST SWAP1 POP SWAP2 SWAP1 POP JUMP JUMPDEST PUSH0 PUSH2 0xA42 DUP3 PUSH2 0x721 JUMP JUMPDEST SWAP2 POP PUSH2 0xA4D DUP4 PUSH2 0x721 JUMP JUMPDEST SWAP3 POP DUP3 DUP3 MUL PUSH2 0xA5B DUP2 PUSH2 0x721 JUMP JUMPDEST SWAP2 POP DUP3 DUP3 DIV DUP5 EQ DUP4 ISZERO OR PUSH2 0xA72 JUMPI PUSH2 0xA71 PUSH2 0x847 JUMP JUMPDEST JUMPDEST POP SWAP3 SWAP2 POP POP JUMP JUMPDEST PUSH32 0x4E487B7100000000000000000000000000000000000000000000000000000000 PUSH0 MSTORE PUSH1 0x12 PUSH1 0x4 MSTORE PUSH1 0x24 PUSH0 REVERT JUMPDEST PUSH0 PUSH2 0xAB0 DUP3 PUSH2 0x721 JUMP JUMPDEST SWAP2 POP PUSH2 0xABB DUP4 PUSH2 0x721 JUMP JUMPDEST SWAP3 POP DUP3 PUSH2 0xACB JUMPI PUSH2 0xACA PUSH2 0xA79 JUMP JUMPDEST JUMPDEST DUP3 DUP3 DIV SWAP1 POP SWAP3 SWAP2 POP POP JUMP JUMPDEST PUSH0 PUSH10 0xFFFFFFFFFFFFFFFFFFFF DUP3 AND SWAP1 POP SWAP2 SWAP1 POP JUMP JUMPDEST PUSH2 0xAF4 DUP2 PUSH2 0xAD6 JUMP JUMPDEST DUP2 EQ PUSH2 0xAFE JUMPI PUSH0 DUP1 REVERT JUMPDEST POP JUMP JUMPDEST PUSH0 DUP2 MLOAD SWAP1 POP PUSH2 0xB0F DUP2 PUSH2 0xAEB JUMP JUMPDEST SWAP3 SWAP2 POP POP JUMP JUMPDEST PUSH0 DUP2 SWAP1 POP SWAP2 SWAP1 POP JUMP JUMPDEST PUSH2 0xB27 DUP2 PUSH2 0xB15 JUMP JUMPDEST DUP2 EQ PUSH2 0xB31 JUMPI PUSH0 DUP1 REVERT JUMPDEST POP JUMP JUMPDEST PUSH0 DUP2 MLOAD SWAP1 POP PUSH2 0xB42 DUP2 PUSH2 0xB1E JUMP JUMPDEST SWAP3 SWAP2 POP POP JUMP JUMPDEST PUSH0 DUP2 MLOAD SWAP1 POP PUSH2 0xB56 DUP2 PUSH2 0x77A JUMP JUMPDEST SWAP3 SWAP2 POP POP JUMP JUMPDEST PUSH0 DUP1 PUSH0 DUP1 PUSH0 PUSH1 0xA0 DUP7 DUP9 SUB SLT ISZERO PUSH2 0xB75 JUMPI PUSH2 0xB74 PUSH2 0x698 JUMP JUMPDEST JUMPDEST PUSH0 PUSH2 0xB82 DUP9 DUP3 DUP10 ADD PUSH2 0xB01 JUMP JUMPDEST SWAP6 POP POP PUSH1 0x20 PUSH2 0xB93 DUP9 DUP3 DUP10 ADD PUSH2 0xB34 JUMP JUMPDEST SWAP5 POP POP PUSH1 0x40 PUSH2 0xBA4 DUP9 DUP3 DUP10 ADD PUSH2 0xB48 JUMP JUMPDEST SWAP4 POP POP PUSH1 0x60 PUSH2 0xBB5 DUP9 DUP3 DUP10 ADD PUSH2 0xB48 JUMP JUMPDEST SWAP3 POP POP PUSH1 0x80 PUSH2 0xBC6 DUP9 DUP3 DUP10 ADD PUSH2 0xB01 JUMP JUMPDEST SWAP2 POP POP SWAP3 SWAP6 POP SWAP3 SWAP6 SWAP1 SWAP4 POP JUMP JUMPDEST PUSH0 PUSH2 0xBDD DUP3 PUSH2 0xB15 JUMP JUMPDEST SWAP2 POP PUSH2 0xBE8 DUP4 PUSH2 0xB15 JUMP JUMPDEST SWAP3 POP DUP3 DUP3 MUL PUSH2 0xBF6 DUP2 PUSH2 0xB15 JUMP JUMPDEST SWAP2 POP PUSH32 0x8000000000000000000000000000000000000000000000000000000000000000 DUP5 EQ PUSH0 DUP5 SLT AND ISZERO PUSH2 0xC2D JUMPI PUSH2 0xC2C PUSH2 0x847 JUMP JUMPDEST JUMPDEST DUP3 DUP3 SDIV DUP5 EQ DUP4 ISZERO OR PUSH2 0xC42 JUMPI PUSH2 0xC41 PUSH2 0x847 JUMP JUMPDEST JUMPDEST POP SWAP3 SWAP2 POP POP JUMP INVALID LOG2 PUSH5 0x6970667358 0x22 SLT KECCAK256 0xB2 PUSH23 0x64A3B21A324647F20A2CEDB13985AE3136F54FAC948DE PUSH9 0x992EF9914A1864736F PUSH13 0x63430008190033000000000000 "
				},
				"gasEstimates": {
					"creation": {
						"codeDepositCost": "639800",
						"executionCost": "24933",
						"totalCost": "664733"
					},
					"external": {
						"": "infinite",
						"addressToAmountFunded(address)": "2802",
						"fund()": "infinite",
						"funders(uint256)": "5009",
						"minUSD()": "413",
						"owner()": "2530",
						"withdraw()": "infinite"
					}
				},
				"methodIdentifiers": {
					"addressToAmountFunded(address)": "3e47d6f3",
					"fund()": "b60d4288",
					"funders(uint256)": "dc0d3dff",
					"minUSD()": "dc992aa0",
					"owner()": "8da5cb5b",
					"withdraw()": "3ccfd60b"
				}
			},
			"storageLayout": {
				"storage": [
					{
						"astId": 58,
						"contract": "github/dGFsYWw/Foundry/FundMe.sol:FundMe",
						"label": "funders",
						"offset": 0,
						"slot": "0",
						"type": "t_array(t_address)dyn_storage"
					},
					{
						"astId": 62,
						"contract": "github/dGFsYWw/Foundry/FundMe.sol:FundMe",
						"label": "addressToAmountFunded",
						"offset": 0,
						"slot": "1",
						"type": "t_mapping(t_address,t_uint256)"
					},
					{
						"astId": 64,
						"contract": "github/dGFsYWw/Foundry/FundMe.sol:FundMe",
						"label": "owner",
						"offset": 0,
						"slot": "2",
						"type": "t_address"
					}
				],
				"types": {
					"t_address": {
						"encoding": "inplace",
						"label": "address",
						"numberOfBytes": "20"
					},
					"t_array(t_address)dyn_storage": {
						"base": "t_address",
						"encoding": "dynamic_array",
						"label": "address[]",
						"numberOfBytes": "32"
					},
					"t_mapping(t_address,t_uint256)": {
						"encoding": "mapping",
						"key": "t_address",
						"label": "mapping(address => uint256)",
						"numberOfBytes": "32",
						"value": "t_uint256"
					},
					"t_uint256": {
						"encoding": "inplace",
						"label": "uint256",
						"numberOfBytes": "32"
					}
				}
			},
			"userdoc": {
				"kind": "user",
				"methods": {},
				"version": 1
			}
		}
	}
}